{
	"data": {
		"bytecode": {
			"linkReferences": {},
			"object": "608060405234801561001057600080fd5b506147fb806100206000396000f3fe6080604052600436106100a75760003560e01c806344ae7b671161006457806344ae7b67146103c7578063a49a408814610481578063a981848f146105df578063c3908f9714610644578063cc527775146106fc578063e156d58e1461074b576100a7565b806301ba4a361461011557806313e3dcf2146101d657806316b7218f1461026657806318cb2b18146102cb5780632f1ae7ab146102e25780633c186ff314610338575b6040517f08c379a00000000000000000000000000000000000000000000000000000000081526004018080602001828103825260138152602001807f444552525f554e4b4e4f574e5f4d4554484f440000000000000000000000000081525060200191505060405180910390fd5b34801561012157600080fd5b5061014e6004803603602081101561013857600080fd5b810190808035906020019092919050505061080f565b60405180851515151581526020018463ffffffff1663ffffffff1681526020018363ffffffff1663ffffffff16815260200180602001828103825283818151815260200191508051906020019060200280838360005b838110156101bf5780820151818401526020810190506101a4565b505050509050019550505050505060405180910390f35b3480156101e257600080fd5b50610264600480360360408110156101f957600080fd5b81019080803590602001909291908035906020019064010000000081111561022057600080fd5b82018360208201111561023257600080fd5b8035906020019184602083028401116401000000008311171561025457600080fd5b9091929391929390505050610904565b005b34801561027257600080fd5b506102b56004803603602081101561028957600080fd5b81019080803573ffffffffffffffffffffffffffffffffffffffff1690602001909291905050506109ef565b6040518082815260200191505060405180910390f35b3480156102d757600080fd5b506102e0610a38565b005b3480156102ee57600080fd5b5061031b6004803603608081101561030557600080fd5b8101908080608001909192919290505050610acc565b604051808381526020018281526020019250505060405180910390f35b34801561034457600080fd5b506103b16004803603606081101561035b57600080fd5b8101908080359060200190929190803573ffffffffffffffffffffffffffffffffffffffff169060200190929190803573ffffffffffffffffffffffffffffffffffffffff169060200190929190505050610b45565b6040518082815260200191505060405180910390f35b3480156103d357600080fd5b5061047f600480360360e08110156103ea57600080fd5b8101908080359060200190929190803573ffffffffffffffffffffffffffffffffffffffff169060200190929190806080019091929192908035906020019064010000000081111561043b57600080fd5b82018360208201111561044d57600080fd5b8035906020019184608083028401116401000000008311171561046f57600080fd5b9091929391929390505050610be0565b005b34801561048d57600080fd5b506105dd600480360360e08110156104a457600080fd5b81019080803590602001909291908035906020019092919080359060200190929190803590602001906401000000008111156104df57600080fd5b8201836020820111156104f157600080fd5b8035906020019184602083028401116401000000008311171561051357600080fd5b9091929391929390803563ffffffff1690602001909291908035906020019064010000000081111561054457600080fd5b82018360208201111561055657600080fd5b8035906020019184604083028401116401000000008311171561057857600080fd5b90919293919293908035906020019064010000000081111561059957600080fd5b8201836020820111156105ab57600080fd5b803590602001918460208302840111640100000000831117156105cd57600080fd5b90919293919293905050506111a4565b005b3480156105eb57600080fd5b506106426004803603606081101561060257600080fd5b81019080803573ffffffffffffffffffffffffffffffffffffffff1690602001909291908035906020019092919080359060200190929190505050611893565b005b34801561065057600080fd5b506106fa600480360360c081101561066757600080fd5b810190808035906020019092919080359060200190929190803590602001909291908035906020019092919080359060200190929190803590602001906401000000008111156106b657600080fd5b8201836020820111156106c857600080fd5b803590602001918460208302840111640100000000831117156106ea57600080fd5b9091929391929390505050611a81565b005b34801561070857600080fd5b506107356004803603602081101561071f57600080fd5b8101908080359060200190929190505050611d4c565b6040518082815260200191505060405180910390f35b34801561075757600080fd5b5061080d600480360360a081101561076e57600080fd5b81019080803590602001909291908035906020019092919080359060200190929190803573ffffffffffffffffffffffffffffffffffffffff169060200190929190803590602001906401000000008111156107c957600080fd5b8201836020820111156107db57600080fd5b803590602001918460808302840111640100000000831117156107fd57600080fd5b9091929391929390505050611d6c565b005b60008060006060600080600087815260200190815260200160002090508060010160009054906101000a900460ff168160010160019054906101000a900463ffffffff168260010160059054906101000a900463ffffffff1683600201808054806020026020016040519081016040528092919081815260200182805480156108ed57602002820191906000526020600020905b8160009054906101000a900473ffffffffffffffffffffffffffffffffffffffff1673ffffffffffffffffffffffffffffffffffffffff16815260200190600101908083116108a3575b505050505090509450945094509450509193509193565b600080600085815260200190815260200160002090508060010160009054906101000a900460ff1661099e576040517f08c379a00000000000000000000000000000000000000000000000000000000081526004018080602001828103825260188152602001807f444552525f4d415443485f4e4f545f46494e414c495a4544000000000000000081525060200191505060405180910390fd5b6109e984848480806020026020016040519081016040528093929190818152602001838360200280828437600081840152601f19601f82011690508083019250505050505050612083565b50505050565b6000600260008373ffffffffffffffffffffffffffffffffffffffff1673ffffffffffffffffffffffffffffffffffffffff168152602001908152602001600020549050919050565b42600260003373ffffffffffffffffffffffffffffffffffffffff1673ffffffffffffffffffffffffffffffffffffffff168152602001908152602001600020819055503373ffffffffffffffffffffffffffffffffffffffff167ff741d0ba71da7949fae818df4044531f78c6303a239319d2f9e2ede16cbe2d19426040518082815260200191505060405180910390a2565b600080610ad761464e565b610b17846004806020026040519081016040528092919082600460200280828437600081840152601f19601f820116905080830192505050505050612500565b9050610b22816125bd565b600160008361014001518152602001908152602001600020549250925050915091565b600080600085815260200190815260200160002060000160008473ffffffffffffffffffffffffffffffffffffffff1673ffffffffffffffffffffffffffffffffffffffff16815260200190815260200160002060008373ffffffffffffffffffffffffffffffffffffffff1673ffffffffffffffffffffffffffffffffffffffff1681526020019081526020016000205490509392505050565b60008282905011610c59576040517f08c379a000000000000000000000000000000000000000000000000000000000815260040180806020018281038252601c8152602001807f444552525f454d5054595f5041434b454452494748544f52444552530000000081525060200191505060405180910390fd5b610c6161464e565b610ca38686866004806020026040519081016040528092919082600460200280828437600081840152601f19601f820116905080830192505050505050612774565b905060008090505b8383905081101561119b57610cbe61464e565b610d118888878786818110610ccf57fe5b9050608002016004806020026040519081016040528092919082600460200280828437600081840152601f19601f820116905080830192505050505050612774565b9050806000015173ffffffffffffffffffffffffffffffffffffffff16836000015173ffffffffffffffffffffffffffffffffffffffff161415610dbd576040517f08c379a000000000000000000000000000000000000000000000000000000000815260040180806020018281038252600f8152602001807f444552525f53414d455f4d414b4552000000000000000000000000000000000081525060200191505060405180910390fd5b8260c0015160ff168160c0015160ff161415610e41576040517f08c379a00000000000000000000000000000000000000000000000000000000081526004018080602001828103825260138152602001807f444552525f53414d455f444952454354494f4e0000000000000000000000000081525060200191505060405180910390fd5b600080610e4d85612f9f565b91509150600080610e5d85612f9f565b9150915081841115610eaa57610ea38260018960c0015160ff1614610e8c578860a0015163ffffffff16610e9e565b8860a0015163ffffffff16633b9aca00035b613039565b9250610ee7565b610ee48460018960c0015160ff1614610ed3578660a0015163ffffffff16633b9aca0003610edf565b8660a0015163ffffffff165b613039565b90505b610eef6146f3565b610efb82876001613064565b90506001600a811115610f0a57fe5b8160000151600a811115610f1a57fe5b14610ff4578560600151866000015173ffffffffffffffffffffffffffffffffffffffff163373ffffffffffffffffffffffffffffffffffffffff167fc18d9b605d704a457c4e1843595120a6722eb9b31b859ec775262189d62f04b789604001518a61014001518660000151600a811115610f9257fe5b604051808473ffffffffffffffffffffffffffffffffffffffff1673ffffffffffffffffffffffffffffffffffffffff1681526020018381526020018261ffff1661ffff168152602001935050505060405180910390a450505050505061118e565b610ffe8682613924565b6110066146f3565b611012858a6001613064565b90506001600a81111561102157fe5b8160000151600a81111561103157fe5b146110a4576040517f08c379a00000000000000000000000000000000000000000000000000000000081526004018080602001828103825260148152602001807f444552525f4c4546545f54524144455f4641494c00000000000000000000000081525060200191505060405180910390fd5b6110ae8982613924565b600080905060018a60c0015160ff1614156110e8578260a001518260c0015101905060008360a001818152508260c0018181525050611109565b8260c001518260a0015101905060008360c001818152508260a00181815250505b6000811215611122576111218a604001513383613a85565b5b8260a001518360c00151018260a001518360c00151011215611157576111488a83613d61565b6111528884613d61565b61116c565b6111618884613d61565b61116b8a83613d61565b5b6000811315611185576111848a604001513383613a85565b5b50505050505050505b8080600101915050610cab565b50505050505050565b60008a8a8a8a8a6040516020018086815260200185815260200184815260200183836020028082843780830192505050955050505050506040516020818303038152906040528051906020012060001c9050600080600083815260200190815260200160002090508060010160009054906101000a900460ff1661183a5760008b11611298576040517f08c379a00000000000000000000000000000000000000000000000000000000081526004018080602001828103825260178152602001807f444552525f5a45524f5f4752414445525f51554f52554d00000000000000000081525060200191505060405180910390fd5b888890508686905014611313576040517f08c379a00000000000000000000000000000000000000000000000000000000081526004018080602001828103825260158152602001807f444552525f494e56414c49445f4e554d5f53494753000000000000000000000081525060200191505060405180910390fd5b633b9aca008a111561138d576040517f08c379a00000000000000000000000000000000000000000000000000000000081526004018080602001828103825260168152602001807f444552525f494e56414c49445f4752414445524645450000000000000000000081525060200191505060405180910390fd5b6000308389604051602001808473ffffffffffffffffffffffffffffffffffffffff1673ffffffffffffffffffffffffffffffffffffffff1660601b81526014018381526020018263ffffffff1663ffffffff1660e01b815260040193505050506040516020818303038152906040528051906020012060405160200180807f19457468657265756d205369676e6564204d6573736167653a0a333200000000815250601c01828152602001915050604051602081830303815290604052805190602001209050600080905060008090505b8b8b905081101561165757600089898381811061147857fe5b90506040020160006002811061148a57fe5b60200201351461164a5760006114e5848b8b858181106114a657fe5b9050604002016000600281106114b857fe5b60200201358c8c868181106114c957fe5b9050604002016001600281106114db57fe5b6020020135613f5e565b90508c8c838181106114f357fe5b9050602002013573ffffffffffffffffffffffffffffffffffffffff1673ffffffffffffffffffffffffffffffffffffffff168173ffffffffffffffffffffffffffffffffffffffff16146115b0576040517f08c379a00000000000000000000000000000000000000000000000000000000081526004018080602001828103825260138152602001807f444552525f4241445f4752414445525f5349470000000000000000000000000081525060200191505060405180910390fd5b846002018d8d848181106115c057fe5b9050602002013573ffffffffffffffffffffffffffffffffffffffff1690806001815401808255809150509060018203906000526020600020016000909192909190916101000a81548173ffffffffffffffffffffffffffffffffffffffff021916908373ffffffffffffffffffffffffffffffffffffffff160217905550508280600101935050505b808060010191505061145f565b508c8110156116ce576040517f08c379a00000000000000000000000000000000000000000000000000000000081526004018080602001828103825260198152602001807f444552525f494e53554646494349454e545f475241444552530000000000000081525060200191505060405180910390fd5b60008063800000008b1663ffffffff16141590506000637fffffff8b16905060018560010160006101000a81548160ff021916908315150217905550808560010160016101000a81548163ffffffff021916908363ffffffff16021790555081611738578d61173b565b60005b8560010160056101000a81548163ffffffff021916908363ffffffff160217905550633b9aca008560010160019054906101000a900463ffffffff1663ffffffff1611156117f1576040517f08c379a00000000000000000000000000000000000000000000000000000000081526004018080602001828103825260138152602001807f444552525f4241445f46494e414c50524943450000000000000000000000000081525060200191505060405180910390fd5b857f5b7dd90e5b4429f4065b72413fa0e6b3e94d240f37f15738c63219cf4d1d29a38c604051808263ffffffff1663ffffffff16815260200191505060405180910390a2505050505b61188582858580806020026020016040519081016040528093929190818152602001838360200280828437600081840152601f19601f82011690508083019250505050505050612083565b505050505050505050505050565b6bffffffffffffffffffffffff811115611915576040517f08c379a00000000000000000000000000000000000000000000000000000000081526004018080602001828103825260138152602001807f444552525f4241445f4f5244455247524f55500000000000000000000000000081525060200191505060405180910390fd5b600033848484604051602001808573ffffffffffffffffffffffffffffffffffffffff1673ffffffffffffffffffffffffffffffffffffffff1660601b81526014018473ffffffffffffffffffffffffffffffffffffffff1673ffffffffffffffffffffffffffffffffffffffff1660601b81526014018381526020018281526020019450505050506040516020818303038152906040528051906020012060001c90507fffffffffffffffffffffffffffffffffffffffffffffffffffffffffffffffff60016000838152602001908152602001600020819055503373ffffffffffffffffffffffffffffffffffffffff167f1430a8409c73700eb66d67441f57646f38f97871d4ef568e9891000cfbc542da858585604051808473ffffffffffffffffffffffffffffffffffffffff1673ffffffffffffffffffffffffffffffffffffffff168152602001838152602001828152602001935050505060405180910390a250505050565b6000878787604051602001808481526020018381526020018281526020019350505050604051602081830303815290604052805190602001209050600081868686866040516020018086815260200185815260200184815260200183836020028082843780830192505050955050505050506040516020818303038152906040528051906020012060001c9050600080600083815260200190815260200160002090508060010160009054906101000a900460ff1615611ba9576040517f08c379a00000000000000000000000000000000000000000000000000000000081526004018080602001828103825260178152602001807f444552525f4d415443485f49535f46494e414c495a454400000000000000000081525060200191505060405180910390fd5b428910611c1e576040517f08c379a00000000000000000000000000000000000000000000000000000000081526004018080602001828103825260188152602001807f444552525f544f4f5f534f4f4e5f544f5f5245434f564552000000000000000081525060200191505060405180910390fd5b633b9aca00881115611c98576040517f08c379a00000000000000000000000000000000000000000000000000000000081526004018080602001828103825260188152602001807f444552525f494e56414c49445f43414e43454c5052494345000000000000000081525060200191505060405180910390fd5b60018160010160006101000a81548160ff021916908315150217905550878160010160016101000a81548163ffffffff021916908363ffffffff16021790555060008160010160056101000a81548163ffffffff021916908363ffffffff160217905550817f5b7dd90e5b4429f4065b72413fa0e6b3e94d240f37f15738c63219cf4d1d29a389604051808263ffffffff1663ffffffff16815260200191505060405180910390a250505050505050505050565b6000600160008360001c8152602001908152602001600020549050919050565b60008514158015611d7d5750844210155b15611e3f5783600073ffffffffffffffffffffffffffffffffffffffff163373ffffffffffffffffffffffffffffffffffffffff167fc18d9b605d704a457c4e1843595120a6722eb9b31b859ec775262189d62f04b78660006003600a811115611de357fe5b604051808473ffffffffffffffffffffffffffffffffffffffff1673ffffffffffffffffffffffffffffffffffffffff1681526020018381526020018261ffff1661ffff168152602001935050505060405180910390a461207b565b60008282905011611eb8576040517f08c379a00000000000000000000000000000000000000000000000000000000081526004018080602001828103825260178152602001807f444552525f454d5054595f5041434b45444f524445525300000000000000000081525060200191505060405180910390fd5b600086905060008090505b8383905081101561207857611ed661464e565b611f298787878786818110611ee757fe5b9050608002016004806020026040519081016040528092919082600460200280828437600081840152601f19601f820116905080830192505050505050612774565b9050611f336146f3565b611f3f84836000613064565b90506001600a811115611f4e57fe5b8160000151600a811115611f5e57fe5b1415611f8e57611f6e8282613924565b611f788282613d61565b611f8784826101200151613fff565b9350612059565b8160600151826000015173ffffffffffffffffffffffffffffffffffffffff163373ffffffffffffffffffffffffffffffffffffffff167fc18d9b605d704a457c4e1843595120a6722eb9b31b859ec775262189d62f04b785604001518661014001518660000151600a81111561200157fe5b604051808473ffffffffffffffffffffffffffffffffffffffff1673ffffffffffffffffffffffffffffffffffffffff1681526020018381526020018261ffff1661ffff168152602001935050505060405180910390a45b6002841015612069575050612078565b50508080600101915050611ec3565b50505b505050505050565b600080600084815260200190815260200160002090508060010160009054906101000a900460ff166120b157fe5b633b9aca008160010160059054906101000a900463ffffffff1663ffffffff1611156120d957fe5b60008090505b82518110156124fa57600073ffffffffffffffffffffffffffffffffffffffff84838151811061210b57fe5b6020026020010151169050600080905082806001019350505b845183108015612169575060007f800000000000000000000000000000000000000000000000000000000000000086858151811061215e57fe5b602002602001015116145b156123ea57600085848151811061217c57fe5b60200260200101519050600080905060008660000160008473ffffffffffffffffffffffffffffffffffffffff1673ffffffffffffffffffffffffffffffffffffffff16815260200190815260200160002060008673ffffffffffffffffffffffffffffffffffffffff1673ffffffffffffffffffffffffffffffffffffffff16815260200190815260200160002054905060008113156122425761223b818860010160019054906101000a900463ffffffff1663ffffffff16613039565b9150612288565b600081121561227f57612278816000038860010160019054906101000a900463ffffffff1663ffffffff16633b9aca0003613039565b9150612287565b5050506123dd565b5b600082121561229357fe5b60006122b9838960010160059054906101000a900463ffffffff1663ffffffff16613039565b905060008112156122c657fe5b8083039250808501945060008312156122db57fe5b60008860000160008673ffffffffffffffffffffffffffffffffffffffff1673ffffffffffffffffffffffffffffffffffffffff16815260200190815260200160002060008873ffffffffffffffffffffffffffffffffffffffff1673ffffffffffffffffffffffffffffffffffffffff1681526020019081526020016000208190555061236a868585613a85565b8573ffffffffffffffffffffffffffffffffffffffff168a8573ffffffffffffffffffffffffffffffffffffffff167f34b19d4ab39b572df0255e6c74331cd56f42aff855508021d664cd2be29b3ff88685604051808381526020018281526020019250505060405180910390a4505050505b8280600101935050612124565b60008460010160059054906101000a900463ffffffff1663ffffffff1614806124135750600081145b1561241f5750506124f5565b60008460020180549050828161243157fe5b05905060008090505b60018660020180549050038110156124a25781830392506124958487600201838154811061246457fe5b9060005260206000200160009054906101000a900473ffffffffffffffffffffffffffffffffffffffff1684613a85565b808060010191505061243a565b506124f183866002016001886002018054905003815481106124c057fe5b9060005260206000200160009054906101000a900473ffffffffffffffffffffffffffffffffffffffff1684613a85565b5050505b6120df565b50505050565b61250861464e565b6125128282614016565b8160026004811061251f57fe5b60200201518160600181815250508160036004811061253a57fe5b6020020151816040019073ffffffffffffffffffffffffffffffffffffffff16908173ffffffffffffffffffffffffffffffffffffffff16815250506000816020019073ffffffffffffffffffffffffffffffffffffffff16908173ffffffffffffffffffffffffffffffffffffffff16815250506125b8816141c3565b919050565b60008160e001514210158061261a575081610100015160026000846000015173ffffffffffffffffffffffffffffffffffffffff1673ffffffffffffffffffffffffffffffffffffffff1681526020019081526020016000205410155b15612628576000905061276f565b60006001600084610140015181526020019081526020016000205490507fffffffffffffffffffffffffffffffffffffffffffffffffffffffffffffffff81141561267757600091505061276f565b600080600085606001518152602001908152602001600020905060006126a1856080015184613fff565b90506000826000016000876000015173ffffffffffffffffffffffffffffffffffffffff1673ffffffffffffffffffffffffffffffffffffffff1681526020019081526020016000206000876040015173ffffffffffffffffffffffffffffffffffffffff1673ffffffffffffffffffffffffffffffffffffffff1681526020019081526020016000205490506127688261276361274789604001518a60000151614281565b848a60a0015163ffffffff1660018c60c0015160ff16146144c2565b614519565b9450505050505b919050565b61277c61464e565b6127868282614016565b82816040019073ffffffffffffffffffffffffffffffffffffffff16908173ffffffffffffffffffffffffffffffffffffffff1681525050838160600181815250506127d1816141c3565b60006040518080614785604291396042019050604051809103902060405180807f5061726c657900000000000000000000000000000000000000000000000000008152506006019050604051809103902060405180807f312e3000000000000000000000000000000000000000000000000000000000008152506003019050604051809103902073888888e88e027e5585fa504954dad6246271aa81604051602001808581526020018481526020018381526020018273ffffffffffffffffffffffffffffffffffffffff1673ffffffffffffffffffffffffffffffffffffffff1681526020019450505050506040516020818303038152906040528051906020012060405160200180807f4f72646572280000000000000000000000000000000000000000000000000000815250600601807f61646472657373206d616b65722c000000000000000000000000000000000000815250600e01807f616464726573732074616b65722c000000000000000000000000000000000000815250600e01807f6164647265737320746f6b656e2c000000000000000000000000000000000000815250600e01807f75696e74323536206d6174636849642c00000000000000000000000000000000815250601001807f75696e7432353620616d6f756e742c0000000000000000000000000000000000815250600f01807f75696e743235362070726963652c000000000000000000000000000000000000815250600e01807f75696e7432353620646972656374696f6e2c0000000000000000000000000000815250601201807f75696e74323536206578706972792c0000000000000000000000000000000000815250600f01807f75696e743235362074696d657374616d702c0000000000000000000000000000815250601201807f75696e74323536206f7264657247726f75700000000000000000000000000000815250601201807f2900000000000000000000000000000000000000000000000000000000000000815250600101905060405160208183030381529060405280519060200120836000015184602001518560400151866060015187608001518860a0015163ffffffff168960c0015160ff168a60e001518b61010001518c6101200151604051602001808c81526020018b73ffffffffffffffffffffffffffffffffffffffff1673ffffffffffffffffffffffffffffffffffffffff1681526020018a73ffffffffffffffffffffffffffffffffffffffff1673ffffffffffffffffffffffffffffffffffffffff1681526020018973ffffffffffffffffffffffffffffffffffffffff1673ffffffffffffffffffffffffffffffffffffffff1681526020018881526020018781526020018681526020018581526020018481526020018381526020018281526020019b5050505050505050505050506040516020818303038152906040528051906020012060405160200180807f19010000000000000000000000000000000000000000000000000000000000008152506002018381526020018281526020019250505060405160208183030381529060405280519060200120905060006b02000000000000000000000084600060048110612c7357fe5b60200201511614612cd0578060405160200180807f19457468657265756d205369676e6564204d6573736167653a0a333200000000815250601c018281526020019150506040516020818303038152906040528051906020012090505b816000015173ffffffffffffffffffffffffffffffffffffffff16612d188285600260048110612cfc57fe5b602002015186600360048110612d0e57fe5b6020020151613f5e565b73ffffffffffffffffffffffffffffffffffffffff1614612da1576040517f08c379a000000000000000000000000000000000000000000000000000000000815260040180806020018281038252601c8152602001807f444552525f494e56414c49445f4f524445525f5349474e41545552450000000081525060200191505060405180910390fd5b600073ffffffffffffffffffffffffffffffffffffffff16826020015173ffffffffffffffffffffffffffffffffffffffff161480612e0f57503373ffffffffffffffffffffffffffffffffffffffff16826020015173ffffffffffffffffffffffffffffffffffffffff16145b612e81576040517f08c379a00000000000000000000000000000000000000000000000000000000081526004018080602001828103825260128152602001807f444552525f494e56414c49445f54414b4552000000000000000000000000000081525060200191505060405180910390fd5b60008260a0015163ffffffff16118015612ea85750633b9aca008260a0015163ffffffff16105b612f1a576040517f08c379a00000000000000000000000000000000000000000000000000000000081526004018080602001828103825260128152602001807f444552525f494e56414c49445f5052494345000000000000000000000000000081525060200191505060405180910390fd5b60028260c0015160ff1610612f97576040517f08c379a00000000000000000000000000000000000000000000000000000000081526004018080602001828103825260168152602001807f444552525f494e56414c49445f444952454354494f4e0000000000000000000081525060200191505060405180910390fd5b509392505050565b60008060018360c0015160ff161415612ff557600080612fe2612fc1866125bd565b6fffffffffffffffffffffffffffffffff8760a0015163ffffffff16614532565b9150915080820181935093505050613034565b6000806130256fffffffffffffffffffffffffffffffff613015876125bd565b8760a0015163ffffffff16614532565b91509150808201829350935050505b915091565b60008083121561304557fe5b633b9aca00613054848461459d565b8161305b57fe5b04905092915050565b61306c6146f3565b60008160000190600a81111561307e57fe5b9081600a81111561308b57fe5b815250508260e0015142106130c55760078160000190600a8111156130ac57fe5b9081600a8111156130b957fe5b8152505080905061391d565b600060016000856101400151815260200190815260200160002054905083610100015160026000866000015173ffffffffffffffffffffffffffffffffffffffff1673ffffffffffffffffffffffffffffffffffffffff1681526020019081526020016000205410158061315857507fffffffffffffffffffffffffffffffffffffffffffffffffffffffffffffffff81145b156131895760088260000190600a81111561316f57fe5b9081600a81111561317c57fe5b815250508191505061391d565b836000015173ffffffffffffffffffffffffffffffffffffffff163373ffffffffffffffffffffffffffffffffffffffff1614156131ed57600a8260000190600a8111156131d357fe5b9081600a8111156131e057fe5b815250508191505061391d565b6fffffffffffffffffffffffffffffffff8511156132315760098260000190600a81111561321757fe5b9081600a81111561322457fe5b815250508191505061391d565b60008060008660600151815260200190815260200160002090508060010160009054906101000a900460ff161561328f5760048360000190600a81111561327457fe5b9081600a81111561328157fe5b81525050829250505061391d565b60008060008060008960c0015160ff1614156133755733876020019073ffffffffffffffffffffffffffffffffffffffff16908173ffffffffffffffffffffffffffffffffffffffff16815250508993508860000151876040019073ffffffffffffffffffffffffffffffffffffffff16908173ffffffffffffffffffffffffffffffffffffffff168152505061332a896080015187613fff565b9250876133485761334389604001518860200151614281565b61335a565b6fffffffffffffffffffffffffffffffff5b915061336e89604001518860400151614281565b9050613441565b8860000151876020019073ffffffffffffffffffffffffffffffffffffffff16908173ffffffffffffffffffffffffffffffffffffffff16815250506133bf896080015187613fff565b935033876040019073ffffffffffffffffffffffffffffffffffffffff16908173ffffffffffffffffffffffffffffffffffffffff168152505089925061340e89604001518860200151614281565b91508761342c5761342789604001518860400151614281565b61343e565b6fffffffffffffffffffffffffffffffff5b90505b6000856000016000896020015173ffffffffffffffffffffffffffffffffffffffff1673ffffffffffffffffffffffffffffffffffffffff16815260200190815260200160002060008b6040015173ffffffffffffffffffffffffffffffffffffffff1673ffffffffffffffffffffffffffffffffffffffff16815260200190815260200160002054905060008660000160008a6040015173ffffffffffffffffffffffffffffffffffffffff1673ffffffffffffffffffffffffffffffffffffffff16815260200190815260200160002060008c6040015173ffffffffffffffffffffffffffffffffffffffff1673ffffffffffffffffffffffffffffffffffffffff1681526020019081526020016000205490506135778661357286858f60a0015163ffffffff1660016144c2565b614519565b95506135998561359485848f60a0015163ffffffff1660006144c2565b614519565b945060028610156135ee5760008b60c0015160ff16146135ba5760066135bd565b60025b8960000190600a8111156135cd57fe5b9081600a8111156135da57fe5b81525050889850505050505050505061391d565b60028510156136415760008b60c0015160ff161461360d576002613610565b60065b8960000190600a81111561362057fe5b9081600a81111561362d57fe5b81525050889850505050505050505061391d565b61365686868d60a0015163ffffffff16614532565b8096508197505050600286108061366d5750600285105b156136a55760058960000190600a81111561368457fe5b9081600a81111561369157fe5b81525050889850505050505050505061391d565b60008587018301905060008688018303905060008b60a001818152505060008b60c0018181525050600084121561370f576136ff6136e46000846145cc565b85600003018e60a0015163ffffffff16633b9aca0003613039565b8b60a00181815101915081815250505b6000821315613748576137386137266000866145e5565b83038e60a0015163ffffffff16613039565b8b60a00181815103915081815250505b60008313156137815761377161375f6000836145e5565b84038e60a0015163ffffffff16613039565b8b60c00181815101915081815250505b60008112156137c3576137b36137986000856145cc565b82600003018e60a0015163ffffffff16633b9aca0003613039565b8b60c00181815103915081815250505b60006137db8c60a001518d60c00151878688876145ff565b90506000811461386e57600181141561380457828060019003935050818060010192505061384b565b7fffffffffffffffffffffffffffffffffffffffffffffffffffffffffffffffff811415613841578b60a00180518091906001018152505061384a565b600061384957fe5b5b5b6138618c60a001518d60c00151878688876145ff565b90506000811461386d57fe5b5b60018c60000190600a81111561388057fe5b9081600a81111561388d57fe5b81525050828c6060018181525050818c6080018181525050878c60e0018181525050888c61010001818152505060008e60c0015160ff1614156138ee578b61010001518c6101200181815250508b60e001518c61014001818152505061390e565b8b60e001518c6101200181815250508b61010001518c6101400181815250505b8b9b5050505050505050505050505b9392505050565b6001600a81111561393157fe5b8160000151600a81111561394157fe5b1461394857fe5b60008060008460600151815260200190815260200160002090508160600151816000016000846020015173ffffffffffffffffffffffffffffffffffffffff1673ffffffffffffffffffffffffffffffffffffffff1681526020019081526020016000206000856040015173ffffffffffffffffffffffffffffffffffffffff1673ffffffffffffffffffffffffffffffffffffffff168152602001908152602001600020819055508160800151816000016000846040015173ffffffffffffffffffffffffffffffffffffffff1673ffffffffffffffffffffffffffffffffffffffff1681526020019081526020016000206000856040015173ffffffffffffffffffffffffffffffffffffffff1673ffffffffffffffffffffffffffffffffffffffff16815260200190815260200160002081905550505050565b6000811315613bc7578273ffffffffffffffffffffffffffffffffffffffff1663a9059cbb83836040518363ffffffff1660e01b8152600401808373ffffffffffffffffffffffffffffffffffffffff1673ffffffffffffffffffffffffffffffffffffffff16815260200182815260200192505050602060405180830381600087803b158015613b1557600080fd5b505af1158015613b29573d6000803e3d6000fd5b505050506040513d6020811015613b3f57600080fd5b8101908080519060200190929190505050613bc2576040517f08c379a00000000000000000000000000000000000000000000000000000000081526004018080602001828103825260188152602001807f444552525f544f4b454e5f5452414e534645525f4641494c000000000000000081525060200191505060405180910390fd5b613d5c565b6000811215613d5b578273ffffffffffffffffffffffffffffffffffffffff166323b872dd8330847fffffffffffffffffffffffffffffffffffffffffffffffffffffffffffffffff026040518463ffffffff1660e01b8152600401808473ffffffffffffffffffffffffffffffffffffffff1673ffffffffffffffffffffffffffffffffffffffff1681526020018373ffffffffffffffffffffffffffffffffffffffff1673ffffffffffffffffffffffffffffffffffffffff1681526020018281526020019350505050602060405180830381600087803b158015613cad57600080fd5b505af1158015613cc1573d6000803e3d6000fd5b505050506040513d6020811015613cd757600080fd5b8101908080519060200190929190505050613d5a576040517f08c379a000000000000000000000000000000000000000000000000000000000815260040180806020018281038252601c8152602001807f444552525f544f4b454e5f5452414e5346455246524f4d5f4641494c0000000081525060200191505060405180910390fd5b5b5b505050565b6001600a811115613d6e57fe5b8160000151600a811115613d7e57fe5b14613d8557fe5b8060c001518160a001511215613dc857613dac826040015182602001518360a00151613a85565b613dc3826040015182604001518360c00151613a85565b613df7565b613ddf826040015182604001518360c00151613a85565b613df6826040015182602001518360a00151613a85565b5b60008260c0015160ff1614613e1157806101000151613e17565b8060e001515b600160008461014001518152602001908152602001600020600082825401925050819055508160600151826000015173ffffffffffffffffffffffffffffffffffffffff163373ffffffffffffffffffffffffffffffffffffffff167fdc13589835b7bdc7ff3bbf712a59927511e18e82e9ec9231372692090e1c09f185604001518661014001518760c001518860a0015188610100015189606001518a60e001518b608001518c60a001518d60c00151604051808b73ffffffffffffffffffffffffffffffffffffffff1673ffffffffffffffffffffffffffffffffffffffff1681526020018a81526020018960ff1660ff1681526020018863ffffffff1663ffffffff1681526020018781526020018681526020018581526020018481526020018381526020018281526020019a505050505050505050505060405180910390a45050565b600060018460ff84901c601b018560001b7f7fffffffffffffffffffffffffffffffffffffffffffffffffffffffffffffff861660001b60405160008152602001604052604051808581526020018460ff1660ff1681526020018381526020018281526020019450505050506020604051602081039080840390855afa158015613fec573d6000803e3d6000fd5b5050506020604051035190509392505050565b60008282111561400b57fe5b818303905092915050565b60608260006004811061402557fe5b6020020151901c816000019073ffffffffffffffffffffffffffffffffffffffff16908173ffffffffffffffffffffffffffffffffffffffff168152505060006b0100000000000000000000008360006004811061407f57fe5b602002015116146140905733614093565b60005b816020019073ffffffffffffffffffffffffffffffffffffffff16908173ffffffffffffffffffffffffffffffffffffffff16815250506080826001600481106140d957fe5b6020020151901c81608001818152505063ffffffff606063ffffffff168360016004811061410357fe5b6020020151901c168160a0019063ffffffff16908163ffffffff168152505060ff60508360006004811061413357fe5b6020020151901c168160c0019060ff16908160ff168152505064ffffffffff60288360006004811061416157fe5b6020020151901c168160e001818152505064ffffffffff8260006004811061418557fe5b602002015116816101000181815250506bffffffffffffffffffffffff826001600481106141af57fe5b602002015116816101200181815250505050565b806000015181604001518260800151836101200151604051602001808573ffffffffffffffffffffffffffffffffffffffff1673ffffffffffffffffffffffffffffffffffffffff1660601b81526014018473ffffffffffffffffffffffffffffffffffffffff1673ffffffffffffffffffffffffffffffffffffffff1660601b81526014018381526020018281526020019450505050506040516020818303038152906040528051906020012060001c8161014001818152505050565b6000806144308473ffffffffffffffffffffffffffffffffffffffff166370a08231856040518263ffffffff1660e01b8152600401808273ffffffffffffffffffffffffffffffffffffffff1673ffffffffffffffffffffffffffffffffffffffff16815260200191505060206040518083038186803b15801561430457600080fd5b505afa158015614318573d6000803e3d6000fd5b505050506040513d602081101561432e57600080fd5b81019080805190602001909291905050508573ffffffffffffffffffffffffffffffffffffffff1663dd62ed3e86306040518363ffffffff1660e01b8152600401808373ffffffffffffffffffffffffffffffffffffffff1673ffffffffffffffffffffffffffffffffffffffff1681526020018273ffffffffffffffffffffffffffffffffffffffff1673ffffffffffffffffffffffffffffffffffffffff1681526020019250505060206040518083038186803b1580156143f057600080fd5b505afa158015614404573d6000803e3d6000fd5b505050506040513d602081101561441a57600080fd5b8101908080519060200190929190505050614519565b90506fffffffffffffffffffffffffffffffff8111156144b8576040517f08c379a00000000000000000000000000000000000000000000000000000000081526004018080602001828103825260138152602001807f444552525f42414c414e43455f494e53414e450000000000000000000000000081525060200191505060405180910390fd5b8091505092915050565b60008085905082156144ee5760008512156144e9576144e48560000385613039565b810190505b61450d565b600085131561450c576145078585633b9aca0003613039565b810190505b5b80915050949350505050565b6000818310614528578161452a565b825b905092915050565b6000806000836145488786633b9aca000361459d565b8161454f57fe5b0486019050600084633b9aca0003614567878761459d565b8161456e57fe5b04860190508082111561458a5785810386935093505050614595565b868783039350935050505b935093915050565b600080828402905060008414806145bc5750828482816145b957fe5b04145b6145c257fe5b8091505092915050565b60008183126145db57816145dd565b825b905092915050565b6000818312156145f557816145f7565b825b905092915050565b6000806000905060008513156146215761461a6000876145e5565b8503810190505b600084131561463c576146356000846145e5565b8403810390505b86888201019150509695505050505050565b604051806101600160405280600073ffffffffffffffffffffffffffffffffffffffff168152602001600073ffffffffffffffffffffffffffffffffffffffff168152602001600073ffffffffffffffffffffffffffffffffffffffff1681526020016000815260200160008152602001600063ffffffff168152602001600060ff168152602001600081526020016000815260200160008152602001600081525090565b6040518061016001604052806000600a81111561470c57fe5b8152602001600073ffffffffffffffffffffffffffffffffffffffff168152602001600073ffffffffffffffffffffffffffffffffffffffff1681526020016000815260200160008152602001600081526020016000815260200160008152602001600081526020016000815260200160008152509056fe454950373132446f6d61696e28737472696e67206e616d652c737472696e672076657273696f6e2c6164647265737320766572696679696e67436f6e747261637429a265627a7a723058203580dd582b5a40a8f4720b7c12ed39ef9139e5466dd4e896439790e06f7d611164736f6c634300050a0032",
			"opcodes": "PUSH1 0x80 PUSH1 0x40 MSTORE CALLVALUE DUP1 ISZERO PUSH2 0x10 JUMPI PUSH1 0x0 DUP1 REVERT JUMPDEST POP PUSH2 0x47FB DUP1 PUSH2 0x20 PUSH1 0x0 CODECOPY PUSH1 0x0 RETURN INVALID PUSH1 0x80 PUSH1 0x40 MSTORE PUSH1 0x4 CALLDATASIZE LT PUSH2 0xA7 JUMPI PUSH1 0x0 CALLDATALOAD PUSH1 0xE0 SHR DUP1 PUSH4 0x44AE7B67 GT PUSH2 0x64 JUMPI DUP1 PUSH4 0x44AE7B67 EQ PUSH2 0x3C7 JUMPI DUP1 PUSH4 0xA49A4088 EQ PUSH2 0x481 JUMPI DUP1 PUSH4 0xA981848F EQ PUSH2 0x5DF JUMPI DUP1 PUSH4 0xC3908F97 EQ PUSH2 0x644 JUMPI DUP1 PUSH4 0xCC527775 EQ PUSH2 0x6FC JUMPI DUP1 PUSH4 0xE156D58E EQ PUSH2 0x74B JUMPI PUSH2 0xA7 JUMP JUMPDEST DUP1 PUSH4 0x1BA4A36 EQ PUSH2 0x115 JUMPI DUP1 PUSH4 0x13E3DCF2 EQ PUSH2 0x1D6 JUMPI DUP1 PUSH4 0x16B7218F EQ PUSH2 0x266 JUMPI DUP1 PUSH4 0x18CB2B18 EQ PUSH2 0x2CB JUMPI DUP1 PUSH4 0x2F1AE7AB EQ PUSH2 0x2E2 JUMPI DUP1 PUSH4 0x3C186FF3 EQ PUSH2 0x338 JUMPI JUMPDEST PUSH1 0x40 MLOAD PUSH32 0x8C379A000000000000000000000000000000000000000000000000000000000 DUP2 MSTORE PUSH1 0x4 ADD DUP1 DUP1 PUSH1 0x20 ADD DUP3 DUP2 SUB DUP3 MSTORE PUSH1 0x13 DUP2 MSTORE PUSH1 0x20 ADD DUP1 PUSH32 0x444552525F554E4B4E4F574E5F4D4554484F4400000000000000000000000000 DUP2 MSTORE POP PUSH1 0x20 ADD SWAP2 POP POP PUSH1 0x40 MLOAD DUP1 SWAP2 SUB SWAP1 REVERT JUMPDEST CALLVALUE DUP1 ISZERO PUSH2 0x121 JUMPI PUSH1 0x0 DUP1 REVERT JUMPDEST POP PUSH2 0x14E PUSH1 0x4 DUP1 CALLDATASIZE SUB PUSH1 0x20 DUP2 LT ISZERO PUSH2 0x138 JUMPI PUSH1 0x0 DUP1 REVERT JUMPDEST DUP2 ADD SWAP1 DUP1 DUP1 CALLDATALOAD SWAP1 PUSH1 0x20 ADD SWAP1 SWAP3 SWAP2 SWAP1 POP POP POP PUSH2 0x80F JUMP JUMPDEST PUSH1 0x40 MLOAD DUP1 DUP6 ISZERO ISZERO ISZERO ISZERO DUP2 MSTORE PUSH1 0x20 ADD DUP5 PUSH4 0xFFFFFFFF AND PUSH4 0xFFFFFFFF AND DUP2 MSTORE PUSH1 0x20 ADD DUP4 PUSH4 0xFFFFFFFF AND PUSH4 0xFFFFFFFF AND DUP2 MSTORE PUSH1 0x20 ADD DUP1 PUSH1 0x20 ADD DUP3 DUP2 SUB DUP3 MSTORE DUP4 DUP2 DUP2 MLOAD DUP2 MSTORE PUSH1 0x20 ADD SWAP2 POP DUP1 MLOAD SWAP1 PUSH1 0x20 ADD SWAP1 PUSH1 0x20 MUL DUP1 DUP4 DUP4 PUSH1 0x0 JUMPDEST DUP4 DUP2 LT ISZERO PUSH2 0x1BF JUMPI DUP1 DUP3 ADD MLOAD DUP2 DUP5 ADD MSTORE PUSH1 0x20 DUP2 ADD SWAP1 POP PUSH2 0x1A4 JUMP JUMPDEST POP POP POP POP SWAP1 POP ADD SWAP6 POP POP POP POP POP POP PUSH1 0x40 MLOAD DUP1 SWAP2 SUB SWAP1 RETURN JUMPDEST CALLVALUE DUP1 ISZERO PUSH2 0x1E2 JUMPI PUSH1 0x0 DUP1 REVERT JUMPDEST POP PUSH2 0x264 PUSH1 0x4 DUP1 CALLDATASIZE SUB PUSH1 0x40 DUP2 LT ISZERO PUSH2 0x1F9 JUMPI PUSH1 0x0 DUP1 REVERT JUMPDEST DUP2 ADD SWAP1 DUP1 DUP1 CALLDATALOAD SWAP1 PUSH1 0x20 ADD SWAP1 SWAP3 SWAP2 SWAP1 DUP1 CALLDATALOAD SWAP1 PUSH1 0x20 ADD SWAP1 PUSH5 0x100000000 DUP2 GT ISZERO PUSH2 0x220 JUMPI PUSH1 0x0 DUP1 REVERT JUMPDEST DUP3 ADD DUP4 PUSH1 0x20 DUP3 ADD GT ISZERO PUSH2 0x232 JUMPI PUSH1 0x0 DUP1 REVERT JUMPDEST DUP1 CALLDATALOAD SWAP1 PUSH1 0x20 ADD SWAP2 DUP5 PUSH1 0x20 DUP4 MUL DUP5 ADD GT PUSH5 0x100000000 DUP4 GT OR ISZERO PUSH2 0x254 JUMPI PUSH1 0x0 DUP1 REVERT JUMPDEST SWAP1 SWAP2 SWAP3 SWAP4 SWAP2 SWAP3 SWAP4 SWAP1 POP POP POP PUSH2 0x904 JUMP JUMPDEST STOP JUMPDEST CALLVALUE DUP1 ISZERO PUSH2 0x272 JUMPI PUSH1 0x0 DUP1 REVERT JUMPDEST POP PUSH2 0x2B5 PUSH1 0x4 DUP1 CALLDATASIZE SUB PUSH1 0x20 DUP2 LT ISZERO PUSH2 0x289 JUMPI PUSH1 0x0 DUP1 REVERT JUMPDEST DUP2 ADD SWAP1 DUP1 DUP1 CALLDATALOAD PUSH20 0xFFFFFFFFFFFFFFFFFFFFFFFFFFFFFFFFFFFFFFFF AND SWAP1 PUSH1 0x20 ADD SWAP1 SWAP3 SWAP2 SWAP1 POP POP POP PUSH2 0x9EF JUMP JUMPDEST PUSH1 0x40 MLOAD DUP1 DUP3 DUP2 MSTORE PUSH1 0x20 ADD SWAP2 POP POP PUSH1 0x40 MLOAD DUP1 SWAP2 SUB SWAP1 RETURN JUMPDEST CALLVALUE DUP1 ISZERO PUSH2 0x2D7 JUMPI PUSH1 0x0 DUP1 REVERT JUMPDEST POP PUSH2 0x2E0 PUSH2 0xA38 JUMP JUMPDEST STOP JUMPDEST CALLVALUE DUP1 ISZERO PUSH2 0x2EE JUMPI PUSH1 0x0 DUP1 REVERT JUMPDEST POP PUSH2 0x31B PUSH1 0x4 DUP1 CALLDATASIZE SUB PUSH1 0x80 DUP2 LT ISZERO PUSH2 0x305 JUMPI PUSH1 0x0 DUP1 REVERT JUMPDEST DUP2 ADD SWAP1 DUP1 DUP1 PUSH1 0x80 ADD SWAP1 SWAP2 SWAP3 SWAP2 SWAP3 SWAP1 POP POP POP PUSH2 0xACC JUMP JUMPDEST PUSH1 0x40 MLOAD DUP1 DUP4 DUP2 MSTORE PUSH1 0x20 ADD DUP3 DUP2 MSTORE PUSH1 0x20 ADD SWAP3 POP POP POP PUSH1 0x40 MLOAD DUP1 SWAP2 SUB SWAP1 RETURN JUMPDEST CALLVALUE DUP1 ISZERO PUSH2 0x344 JUMPI PUSH1 0x0 DUP1 REVERT JUMPDEST POP PUSH2 0x3B1 PUSH1 0x4 DUP1 CALLDATASIZE SUB PUSH1 0x60 DUP2 LT ISZERO PUSH2 0x35B JUMPI PUSH1 0x0 DUP1 REVERT JUMPDEST DUP2 ADD SWAP1 DUP1 DUP1 CALLDATALOAD SWAP1 PUSH1 0x20 ADD SWAP1 SWAP3 SWAP2 SWAP1 DUP1 CALLDATALOAD PUSH20 0xFFFFFFFFFFFFFFFFFFFFFFFFFFFFFFFFFFFFFFFF AND SWAP1 PUSH1 0x20 ADD SWAP1 SWAP3 SWAP2 SWAP1 DUP1 CALLDATALOAD PUSH20 0xFFFFFFFFFFFFFFFFFFFFFFFFFFFFFFFFFFFFFFFF AND SWAP1 PUSH1 0x20 ADD SWAP1 SWAP3 SWAP2 SWAP1 POP POP POP PUSH2 0xB45 JUMP JUMPDEST PUSH1 0x40 MLOAD DUP1 DUP3 DUP2 MSTORE PUSH1 0x20 ADD SWAP2 POP POP PUSH1 0x40 MLOAD DUP1 SWAP2 SUB SWAP1 RETURN JUMPDEST CALLVALUE DUP1 ISZERO PUSH2 0x3D3 JUMPI PUSH1 0x0 DUP1 REVERT JUMPDEST POP PUSH2 0x47F PUSH1 0x4 DUP1 CALLDATASIZE SUB PUSH1 0xE0 DUP2 LT ISZERO PUSH2 0x3EA JUMPI PUSH1 0x0 DUP1 REVERT JUMPDEST DUP2 ADD SWAP1 DUP1 DUP1 CALLDATALOAD SWAP1 PUSH1 0x20 ADD SWAP1 SWAP3 SWAP2 SWAP1 DUP1 CALLDATALOAD PUSH20 0xFFFFFFFFFFFFFFFFFFFFFFFFFFFFFFFFFFFFFFFF AND SWAP1 PUSH1 0x20 ADD SWAP1 SWAP3 SWAP2 SWAP1 DUP1 PUSH1 0x80 ADD SWAP1 SWAP2 SWAP3 SWAP2 SWAP3 SWAP1 DUP1 CALLDATALOAD SWAP1 PUSH1 0x20 ADD SWAP1 PUSH5 0x100000000 DUP2 GT ISZERO PUSH2 0x43B JUMPI PUSH1 0x0 DUP1 REVERT JUMPDEST DUP3 ADD DUP4 PUSH1 0x20 DUP3 ADD GT ISZERO PUSH2 0x44D JUMPI PUSH1 0x0 DUP1 REVERT JUMPDEST DUP1 CALLDATALOAD SWAP1 PUSH1 0x20 ADD SWAP2 DUP5 PUSH1 0x80 DUP4 MUL DUP5 ADD GT PUSH5 0x100000000 DUP4 GT OR ISZERO PUSH2 0x46F JUMPI PUSH1 0x0 DUP1 REVERT JUMPDEST SWAP1 SWAP2 SWAP3 SWAP4 SWAP2 SWAP3 SWAP4 SWAP1 POP POP POP PUSH2 0xBE0 JUMP JUMPDEST STOP JUMPDEST CALLVALUE DUP1 ISZERO PUSH2 0x48D JUMPI PUSH1 0x0 DUP1 REVERT JUMPDEST POP PUSH2 0x5DD PUSH1 0x4 DUP1 CALLDATASIZE SUB PUSH1 0xE0 DUP2 LT ISZERO PUSH2 0x4A4 JUMPI PUSH1 0x0 DUP1 REVERT JUMPDEST DUP2 ADD SWAP1 DUP1 DUP1 CALLDATALOAD SWAP1 PUSH1 0x20 ADD SWAP1 SWAP3 SWAP2 SWAP1 DUP1 CALLDATALOAD SWAP1 PUSH1 0x20 ADD SWAP1 SWAP3 SWAP2 SWAP1 DUP1 CALLDATALOAD SWAP1 PUSH1 0x20 ADD SWAP1 SWAP3 SWAP2 SWAP1 DUP1 CALLDATALOAD SWAP1 PUSH1 0x20 ADD SWAP1 PUSH5 0x100000000 DUP2 GT ISZERO PUSH2 0x4DF JUMPI PUSH1 0x0 DUP1 REVERT JUMPDEST DUP3 ADD DUP4 PUSH1 0x20 DUP3 ADD GT ISZERO PUSH2 0x4F1 JUMPI PUSH1 0x0 DUP1 REVERT JUMPDEST DUP1 CALLDATALOAD SWAP1 PUSH1 0x20 ADD SWAP2 DUP5 PUSH1 0x20 DUP4 MUL DUP5 ADD GT PUSH5 0x100000000 DUP4 GT OR ISZERO PUSH2 0x513 JUMPI PUSH1 0x0 DUP1 REVERT JUMPDEST SWAP1 SWAP2 SWAP3 SWAP4 SWAP2 SWAP3 SWAP4 SWAP1 DUP1 CALLDATALOAD PUSH4 0xFFFFFFFF AND SWAP1 PUSH1 0x20 ADD SWAP1 SWAP3 SWAP2 SWAP1 DUP1 CALLDATALOAD SWAP1 PUSH1 0x20 ADD SWAP1 PUSH5 0x100000000 DUP2 GT ISZERO PUSH2 0x544 JUMPI PUSH1 0x0 DUP1 REVERT JUMPDEST DUP3 ADD DUP4 PUSH1 0x20 DUP3 ADD GT ISZERO PUSH2 0x556 JUMPI PUSH1 0x0 DUP1 REVERT JUMPDEST DUP1 CALLDATALOAD SWAP1 PUSH1 0x20 ADD SWAP2 DUP5 PUSH1 0x40 DUP4 MUL DUP5 ADD GT PUSH5 0x100000000 DUP4 GT OR ISZERO PUSH2 0x578 JUMPI PUSH1 0x0 DUP1 REVERT JUMPDEST SWAP1 SWAP2 SWAP3 SWAP4 SWAP2 SWAP3 SWAP4 SWAP1 DUP1 CALLDATALOAD SWAP1 PUSH1 0x20 ADD SWAP1 PUSH5 0x100000000 DUP2 GT ISZERO PUSH2 0x599 JUMPI PUSH1 0x0 DUP1 REVERT JUMPDEST DUP3 ADD DUP4 PUSH1 0x20 DUP3 ADD GT ISZERO PUSH2 0x5AB JUMPI PUSH1 0x0 DUP1 REVERT JUMPDEST DUP1 CALLDATALOAD SWAP1 PUSH1 0x20 ADD SWAP2 DUP5 PUSH1 0x20 DUP4 MUL DUP5 ADD GT PUSH5 0x100000000 DUP4 GT OR ISZERO PUSH2 0x5CD JUMPI PUSH1 0x0 DUP1 REVERT JUMPDEST SWAP1 SWAP2 SWAP3 SWAP4 SWAP2 SWAP3 SWAP4 SWAP1 POP POP POP PUSH2 0x11A4 JUMP JUMPDEST STOP JUMPDEST CALLVALUE DUP1 ISZERO PUSH2 0x5EB JUMPI PUSH1 0x0 DUP1 REVERT JUMPDEST POP PUSH2 0x642 PUSH1 0x4 DUP1 CALLDATASIZE SUB PUSH1 0x60 DUP2 LT ISZERO PUSH2 0x602 JUMPI PUSH1 0x0 DUP1 REVERT JUMPDEST DUP2 ADD SWAP1 DUP1 DUP1 CALLDATALOAD PUSH20 0xFFFFFFFFFFFFFFFFFFFFFFFFFFFFFFFFFFFFFFFF AND SWAP1 PUSH1 0x20 ADD SWAP1 SWAP3 SWAP2 SWAP1 DUP1 CALLDATALOAD SWAP1 PUSH1 0x20 ADD SWAP1 SWAP3 SWAP2 SWAP1 DUP1 CALLDATALOAD SWAP1 PUSH1 0x20 ADD SWAP1 SWAP3 SWAP2 SWAP1 POP POP POP PUSH2 0x1893 JUMP JUMPDEST STOP JUMPDEST CALLVALUE DUP1 ISZERO PUSH2 0x650 JUMPI PUSH1 0x0 DUP1 REVERT JUMPDEST POP PUSH2 0x6FA PUSH1 0x4 DUP1 CALLDATASIZE SUB PUSH1 0xC0 DUP2 LT ISZERO PUSH2 0x667 JUMPI PUSH1 0x0 DUP1 REVERT JUMPDEST DUP2 ADD SWAP1 DUP1 DUP1 CALLDATALOAD SWAP1 PUSH1 0x20 ADD SWAP1 SWAP3 SWAP2 SWAP1 DUP1 CALLDATALOAD SWAP1 PUSH1 0x20 ADD SWAP1 SWAP3 SWAP2 SWAP1 DUP1 CALLDATALOAD SWAP1 PUSH1 0x20 ADD SWAP1 SWAP3 SWAP2 SWAP1 DUP1 CALLDATALOAD SWAP1 PUSH1 0x20 ADD SWAP1 SWAP3 SWAP2 SWAP1 DUP1 CALLDATALOAD SWAP1 PUSH1 0x20 ADD SWAP1 SWAP3 SWAP2 SWAP1 DUP1 CALLDATALOAD SWAP1 PUSH1 0x20 ADD SWAP1 PUSH5 0x100000000 DUP2 GT ISZERO PUSH2 0x6B6 JUMPI PUSH1 0x0 DUP1 REVERT JUMPDEST DUP3 ADD DUP4 PUSH1 0x20 DUP3 ADD GT ISZERO PUSH2 0x6C8 JUMPI PUSH1 0x0 DUP1 REVERT JUMPDEST DUP1 CALLDATALOAD SWAP1 PUSH1 0x20 ADD SWAP2 DUP5 PUSH1 0x20 DUP4 MUL DUP5 ADD GT PUSH5 0x100000000 DUP4 GT OR ISZERO PUSH2 0x6EA JUMPI PUSH1 0x0 DUP1 REVERT JUMPDEST SWAP1 SWAP2 SWAP3 SWAP4 SWAP2 SWAP3 SWAP4 SWAP1 POP POP POP PUSH2 0x1A81 JUMP JUMPDEST STOP JUMPDEST CALLVALUE DUP1 ISZERO PUSH2 0x708 JUMPI PUSH1 0x0 DUP1 REVERT JUMPDEST POP PUSH2 0x735 PUSH1 0x4 DUP1 CALLDATASIZE SUB PUSH1 0x20 DUP2 LT ISZERO PUSH2 0x71F JUMPI PUSH1 0x0 DUP1 REVERT JUMPDEST DUP2 ADD SWAP1 DUP1 DUP1 CALLDATALOAD SWAP1 PUSH1 0x20 ADD SWAP1 SWAP3 SWAP2 SWAP1 POP POP POP PUSH2 0x1D4C JUMP JUMPDEST PUSH1 0x40 MLOAD DUP1 DUP3 DUP2 MSTORE PUSH1 0x20 ADD SWAP2 POP POP PUSH1 0x40 MLOAD DUP1 SWAP2 SUB SWAP1 RETURN JUMPDEST CALLVALUE DUP1 ISZERO PUSH2 0x757 JUMPI PUSH1 0x0 DUP1 REVERT JUMPDEST POP PUSH2 0x80D PUSH1 0x4 DUP1 CALLDATASIZE SUB PUSH1 0xA0 DUP2 LT ISZERO PUSH2 0x76E JUMPI PUSH1 0x0 DUP1 REVERT JUMPDEST DUP2 ADD SWAP1 DUP1 DUP1 CALLDATALOAD SWAP1 PUSH1 0x20 ADD SWAP1 SWAP3 SWAP2 SWAP1 DUP1 CALLDATALOAD SWAP1 PUSH1 0x20 ADD SWAP1 SWAP3 SWAP2 SWAP1 DUP1 CALLDATALOAD SWAP1 PUSH1 0x20 ADD SWAP1 SWAP3 SWAP2 SWAP1 DUP1 CALLDATALOAD PUSH20 0xFFFFFFFFFFFFFFFFFFFFFFFFFFFFFFFFFFFFFFFF AND SWAP1 PUSH1 0x20 ADD SWAP1 SWAP3 SWAP2 SWAP1 DUP1 CALLDATALOAD SWAP1 PUSH1 0x20 ADD SWAP1 PUSH5 0x100000000 DUP2 GT ISZERO PUSH2 0x7C9 JUMPI PUSH1 0x0 DUP1 REVERT JUMPDEST DUP3 ADD DUP4 PUSH1 0x20 DUP3 ADD GT ISZERO PUSH2 0x7DB JUMPI PUSH1 0x0 DUP1 REVERT JUMPDEST DUP1 CALLDATALOAD SWAP1 PUSH1 0x20 ADD SWAP2 DUP5 PUSH1 0x80 DUP4 MUL DUP5 ADD GT PUSH5 0x100000000 DUP4 GT OR ISZERO PUSH2 0x7FD JUMPI PUSH1 0x0 DUP1 REVERT JUMPDEST SWAP1 SWAP2 SWAP3 SWAP4 SWAP2 SWAP3 SWAP4 SWAP1 POP POP POP PUSH2 0x1D6C JUMP JUMPDEST STOP JUMPDEST PUSH1 0x0 DUP1 PUSH1 0x0 PUSH1 0x60 PUSH1 0x0 DUP1 PUSH1 0x0 DUP8 DUP2 MSTORE PUSH1 0x20 ADD SWAP1 DUP2 MSTORE PUSH1 0x20 ADD PUSH1 0x0 KECCAK256 SWAP1 POP DUP1 PUSH1 0x1 ADD PUSH1 0x0 SWAP1 SLOAD SWAP1 PUSH2 0x100 EXP SWAP1 DIV PUSH1 0xFF AND DUP2 PUSH1 0x1 ADD PUSH1 0x1 SWAP1 SLOAD SWAP1 PUSH2 0x100 EXP SWAP1 DIV PUSH4 0xFFFFFFFF AND DUP3 PUSH1 0x1 ADD PUSH1 0x5 SWAP1 SLOAD SWAP1 PUSH2 0x100 EXP SWAP1 DIV PUSH4 0xFFFFFFFF AND DUP4 PUSH1 0x2 ADD DUP1 DUP1 SLOAD DUP1 PUSH1 0x20 MUL PUSH1 0x20 ADD PUSH1 0x40 MLOAD SWAP1 DUP2 ADD PUSH1 0x40 MSTORE DUP1 SWAP3 SWAP2 SWAP1 DUP2 DUP2 MSTORE PUSH1 0x20 ADD DUP3 DUP1 SLOAD DUP1 ISZERO PUSH2 0x8ED JUMPI PUSH1 0x20 MUL DUP3 ADD SWAP2 SWAP1 PUSH1 0x0 MSTORE PUSH1 0x20 PUSH1 0x0 KECCAK256 SWAP1 JUMPDEST DUP2 PUSH1 0x0 SWAP1 SLOAD SWAP1 PUSH2 0x100 EXP SWAP1 DIV PUSH20 0xFFFFFFFFFFFFFFFFFFFFFFFFFFFFFFFFFFFFFFFF AND PUSH20 0xFFFFFFFFFFFFFFFFFFFFFFFFFFFFFFFFFFFFFFFF AND DUP2 MSTORE PUSH1 0x20 ADD SWAP1 PUSH1 0x1 ADD SWAP1 DUP1 DUP4 GT PUSH2 0x8A3 JUMPI JUMPDEST POP POP POP POP POP SWAP1 POP SWAP5 POP SWAP5 POP SWAP5 POP SWAP5 POP POP SWAP2 SWAP4 POP SWAP2 SWAP4 JUMP JUMPDEST PUSH1 0x0 DUP1 PUSH1 0x0 DUP6 DUP2 MSTORE PUSH1 0x20 ADD SWAP1 DUP2 MSTORE PUSH1 0x20 ADD PUSH1 0x0 KECCAK256 SWAP1 POP DUP1 PUSH1 0x1 ADD PUSH1 0x0 SWAP1 SLOAD SWAP1 PUSH2 0x100 EXP SWAP1 DIV PUSH1 0xFF AND PUSH2 0x99E JUMPI PUSH1 0x40 MLOAD PUSH32 0x8C379A000000000000000000000000000000000000000000000000000000000 DUP2 MSTORE PUSH1 0x4 ADD DUP1 DUP1 PUSH1 0x20 ADD DUP3 DUP2 SUB DUP3 MSTORE PUSH1 0x18 DUP2 MSTORE PUSH1 0x20 ADD DUP1 PUSH32 0x444552525F4D415443485F4E4F545F46494E414C495A45440000000000000000 DUP2 MSTORE POP PUSH1 0x20 ADD SWAP2 POP POP PUSH1 0x40 MLOAD DUP1 SWAP2 SUB SWAP1 REVERT JUMPDEST PUSH2 0x9E9 DUP5 DUP5 DUP5 DUP1 DUP1 PUSH1 0x20 MUL PUSH1 0x20 ADD PUSH1 0x40 MLOAD SWAP1 DUP2 ADD PUSH1 0x40 MSTORE DUP1 SWAP4 SWAP3 SWAP2 SWAP1 DUP2 DUP2 MSTORE PUSH1 0x20 ADD DUP4 DUP4 PUSH1 0x20 MUL DUP1 DUP3 DUP5 CALLDATACOPY PUSH1 0x0 DUP2 DUP5 ADD MSTORE PUSH1 0x1F NOT PUSH1 0x1F DUP3 ADD AND SWAP1 POP DUP1 DUP4 ADD SWAP3 POP POP POP POP POP POP POP PUSH2 0x2083 JUMP JUMPDEST POP POP POP POP JUMP JUMPDEST PUSH1 0x0 PUSH1 0x2 PUSH1 0x0 DUP4 PUSH20 0xFFFFFFFFFFFFFFFFFFFFFFFFFFFFFFFFFFFFFFFF AND PUSH20 0xFFFFFFFFFFFFFFFFFFFFFFFFFFFFFFFFFFFFFFFF AND DUP2 MSTORE PUSH1 0x20 ADD SWAP1 DUP2 MSTORE PUSH1 0x20 ADD PUSH1 0x0 KECCAK256 SLOAD SWAP1 POP SWAP2 SWAP1 POP JUMP JUMPDEST TIMESTAMP PUSH1 0x2 PUSH1 0x0 CALLER PUSH20 0xFFFFFFFFFFFFFFFFFFFFFFFFFFFFFFFFFFFFFFFF AND PUSH20 0xFFFFFFFFFFFFFFFFFFFFFFFFFFFFFFFFFFFFFFFF AND DUP2 MSTORE PUSH1 0x20 ADD SWAP1 DUP2 MSTORE PUSH1 0x20 ADD PUSH1 0x0 KECCAK256 DUP2 SWAP1 SSTORE POP CALLER PUSH20 0xFFFFFFFFFFFFFFFFFFFFFFFFFFFFFFFFFFFFFFFF AND PUSH32 0xF741D0BA71DA7949FAE818DF4044531F78C6303A239319D2F9E2EDE16CBE2D19 TIMESTAMP PUSH1 0x40 MLOAD DUP1 DUP3 DUP2 MSTORE PUSH1 0x20 ADD SWAP2 POP POP PUSH1 0x40 MLOAD DUP1 SWAP2 SUB SWAP1 LOG2 JUMP JUMPDEST PUSH1 0x0 DUP1 PUSH2 0xAD7 PUSH2 0x464E JUMP JUMPDEST PUSH2 0xB17 DUP5 PUSH1 0x4 DUP1 PUSH1 0x20 MUL PUSH1 0x40 MLOAD SWAP1 DUP2 ADD PUSH1 0x40 MSTORE DUP1 SWAP3 SWAP2 SWAP1 DUP3 PUSH1 0x4 PUSH1 0x20 MUL DUP1 DUP3 DUP5 CALLDATACOPY PUSH1 0x0 DUP2 DUP5 ADD MSTORE PUSH1 0x1F NOT PUSH1 0x1F DUP3 ADD AND SWAP1 POP DUP1 DUP4 ADD SWAP3 POP POP POP POP POP POP PUSH2 0x2500 JUMP JUMPDEST SWAP1 POP PUSH2 0xB22 DUP2 PUSH2 0x25BD JUMP JUMPDEST PUSH1 0x1 PUSH1 0x0 DUP4 PUSH2 0x140 ADD MLOAD DUP2 MSTORE PUSH1 0x20 ADD SWAP1 DUP2 MSTORE PUSH1 0x20 ADD PUSH1 0x0 KECCAK256 SLOAD SWAP3 POP SWAP3 POP POP SWAP2 POP SWAP2 JUMP JUMPDEST PUSH1 0x0 DUP1 PUSH1 0x0 DUP6 DUP2 MSTORE PUSH1 0x20 ADD SWAP1 DUP2 MSTORE PUSH1 0x20 ADD PUSH1 0x0 KECCAK256 PUSH1 0x0 ADD PUSH1 0x0 DUP5 PUSH20 0xFFFFFFFFFFFFFFFFFFFFFFFFFFFFFFFFFFFFFFFF AND PUSH20 0xFFFFFFFFFFFFFFFFFFFFFFFFFFFFFFFFFFFFFFFF AND DUP2 MSTORE PUSH1 0x20 ADD SWAP1 DUP2 MSTORE PUSH1 0x20 ADD PUSH1 0x0 KECCAK256 PUSH1 0x0 DUP4 PUSH20 0xFFFFFFFFFFFFFFFFFFFFFFFFFFFFFFFFFFFFFFFF AND PUSH20 0xFFFFFFFFFFFFFFFFFFFFFFFFFFFFFFFFFFFFFFFF AND DUP2 MSTORE PUSH1 0x20 ADD SWAP1 DUP2 MSTORE PUSH1 0x20 ADD PUSH1 0x0 KECCAK256 SLOAD SWAP1 POP SWAP4 SWAP3 POP POP POP JUMP JUMPDEST PUSH1 0x0 DUP3 DUP3 SWAP1 POP GT PUSH2 0xC59 JUMPI PUSH1 0x40 MLOAD PUSH32 0x8C379A000000000000000000000000000000000000000000000000000000000 DUP2 MSTORE PUSH1 0x4 ADD DUP1 DUP1 PUSH1 0x20 ADD DUP3 DUP2 SUB DUP3 MSTORE PUSH1 0x1C DUP2 MSTORE PUSH1 0x20 ADD DUP1 PUSH32 0x444552525F454D5054595F5041434B454452494748544F524445525300000000 DUP2 MSTORE POP PUSH1 0x20 ADD SWAP2 POP POP PUSH1 0x40 MLOAD DUP1 SWAP2 SUB SWAP1 REVERT JUMPDEST PUSH2 0xC61 PUSH2 0x464E JUMP JUMPDEST PUSH2 0xCA3 DUP7 DUP7 DUP7 PUSH1 0x4 DUP1 PUSH1 0x20 MUL PUSH1 0x40 MLOAD SWAP1 DUP2 ADD PUSH1 0x40 MSTORE DUP1 SWAP3 SWAP2 SWAP1 DUP3 PUSH1 0x4 PUSH1 0x20 MUL DUP1 DUP3 DUP5 CALLDATACOPY PUSH1 0x0 DUP2 DUP5 ADD MSTORE PUSH1 0x1F NOT PUSH1 0x1F DUP3 ADD AND SWAP1 POP DUP1 DUP4 ADD SWAP3 POP POP POP POP POP POP PUSH2 0x2774 JUMP JUMPDEST SWAP1 POP PUSH1 0x0 DUP1 SWAP1 POP JUMPDEST DUP4 DUP4 SWAP1 POP DUP2 LT ISZERO PUSH2 0x119B JUMPI PUSH2 0xCBE PUSH2 0x464E JUMP JUMPDEST PUSH2 0xD11 DUP9 DUP9 DUP8 DUP8 DUP7 DUP2 DUP2 LT PUSH2 0xCCF JUMPI INVALID JUMPDEST SWAP1 POP PUSH1 0x80 MUL ADD PUSH1 0x4 DUP1 PUSH1 0x20 MUL PUSH1 0x40 MLOAD SWAP1 DUP2 ADD PUSH1 0x40 MSTORE DUP1 SWAP3 SWAP2 SWAP1 DUP3 PUSH1 0x4 PUSH1 0x20 MUL DUP1 DUP3 DUP5 CALLDATACOPY PUSH1 0x0 DUP2 DUP5 ADD MSTORE PUSH1 0x1F NOT PUSH1 0x1F DUP3 ADD AND SWAP1 POP DUP1 DUP4 ADD SWAP3 POP POP POP POP POP POP PUSH2 0x2774 JUMP JUMPDEST SWAP1 POP DUP1 PUSH1 0x0 ADD MLOAD PUSH20 0xFFFFFFFFFFFFFFFFFFFFFFFFFFFFFFFFFFFFFFFF AND DUP4 PUSH1 0x0 ADD MLOAD PUSH20 0xFFFFFFFFFFFFFFFFFFFFFFFFFFFFFFFFFFFFFFFF AND EQ ISZERO PUSH2 0xDBD JUMPI PUSH1 0x40 MLOAD PUSH32 0x8C379A000000000000000000000000000000000000000000000000000000000 DUP2 MSTORE PUSH1 0x4 ADD DUP1 DUP1 PUSH1 0x20 ADD DUP3 DUP2 SUB DUP3 MSTORE PUSH1 0xF DUP2 MSTORE PUSH1 0x20 ADD DUP1 PUSH32 0x444552525F53414D455F4D414B45520000000000000000000000000000000000 DUP2 MSTORE POP PUSH1 0x20 ADD SWAP2 POP POP PUSH1 0x40 MLOAD DUP1 SWAP2 SUB SWAP1 REVERT JUMPDEST DUP3 PUSH1 0xC0 ADD MLOAD PUSH1 0xFF AND DUP2 PUSH1 0xC0 ADD MLOAD PUSH1 0xFF AND EQ ISZERO PUSH2 0xE41 JUMPI PUSH1 0x40 MLOAD PUSH32 0x8C379A000000000000000000000000000000000000000000000000000000000 DUP2 MSTORE PUSH1 0x4 ADD DUP1 DUP1 PUSH1 0x20 ADD DUP3 DUP2 SUB DUP3 MSTORE PUSH1 0x13 DUP2 MSTORE PUSH1 0x20 ADD DUP1 PUSH32 0x444552525F53414D455F444952454354494F4E00000000000000000000000000 DUP2 MSTORE POP PUSH1 0x20 ADD SWAP2 POP POP PUSH1 0x40 MLOAD DUP1 SWAP2 SUB SWAP1 REVERT JUMPDEST PUSH1 0x0 DUP1 PUSH2 0xE4D DUP6 PUSH2 0x2F9F JUMP JUMPDEST SWAP2 POP SWAP2 POP PUSH1 0x0 DUP1 PUSH2 0xE5D DUP6 PUSH2 0x2F9F JUMP JUMPDEST SWAP2 POP SWAP2 POP DUP2 DUP5 GT ISZERO PUSH2 0xEAA JUMPI PUSH2 0xEA3 DUP3 PUSH1 0x1 DUP10 PUSH1 0xC0 ADD MLOAD PUSH1 0xFF AND EQ PUSH2 0xE8C JUMPI DUP9 PUSH1 0xA0 ADD MLOAD PUSH4 0xFFFFFFFF AND PUSH2 0xE9E JUMP JUMPDEST DUP9 PUSH1 0xA0 ADD MLOAD PUSH4 0xFFFFFFFF AND PUSH4 0x3B9ACA00 SUB JUMPDEST PUSH2 0x3039 JUMP JUMPDEST SWAP3 POP PUSH2 0xEE7 JUMP JUMPDEST PUSH2 0xEE4 DUP5 PUSH1 0x1 DUP10 PUSH1 0xC0 ADD MLOAD PUSH1 0xFF AND EQ PUSH2 0xED3 JUMPI DUP7 PUSH1 0xA0 ADD MLOAD PUSH4 0xFFFFFFFF AND PUSH4 0x3B9ACA00 SUB PUSH2 0xEDF JUMP JUMPDEST DUP7 PUSH1 0xA0 ADD MLOAD PUSH4 0xFFFFFFFF AND JUMPDEST PUSH2 0x3039 JUMP JUMPDEST SWAP1 POP JUMPDEST PUSH2 0xEEF PUSH2 0x46F3 JUMP JUMPDEST PUSH2 0xEFB DUP3 DUP8 PUSH1 0x1 PUSH2 0x3064 JUMP JUMPDEST SWAP1 POP PUSH1 0x1 PUSH1 0xA DUP2 GT ISZERO PUSH2 0xF0A JUMPI INVALID JUMPDEST DUP2 PUSH1 0x0 ADD MLOAD PUSH1 0xA DUP2 GT ISZERO PUSH2 0xF1A JUMPI INVALID JUMPDEST EQ PUSH2 0xFF4 JUMPI DUP6 PUSH1 0x60 ADD MLOAD DUP7 PUSH1 0x0 ADD MLOAD PUSH20 0xFFFFFFFFFFFFFFFFFFFFFFFFFFFFFFFFFFFFFFFF AND CALLER PUSH20 0xFFFFFFFFFFFFFFFFFFFFFFFFFFFFFFFFFFFFFFFF AND PUSH32 0xC18D9B605D704A457C4E1843595120A6722EB9B31B859EC775262189D62F04B7 DUP10 PUSH1 0x40 ADD MLOAD DUP11 PUSH2 0x140 ADD MLOAD DUP7 PUSH1 0x0 ADD MLOAD PUSH1 0xA DUP2 GT ISZERO PUSH2 0xF92 JUMPI INVALID JUMPDEST PUSH1 0x40 MLOAD DUP1 DUP5 PUSH20 0xFFFFFFFFFFFFFFFFFFFFFFFFFFFFFFFFFFFFFFFF AND PUSH20 0xFFFFFFFFFFFFFFFFFFFFFFFFFFFFFFFFFFFFFFFF AND DUP2 MSTORE PUSH1 0x20 ADD DUP4 DUP2 MSTORE PUSH1 0x20 ADD DUP3 PUSH2 0xFFFF AND PUSH2 0xFFFF AND DUP2 MSTORE PUSH1 0x20 ADD SWAP4 POP POP POP POP PUSH1 0x40 MLOAD DUP1 SWAP2 SUB SWAP1 LOG4 POP POP POP POP POP POP PUSH2 0x118E JUMP JUMPDEST PUSH2 0xFFE DUP7 DUP3 PUSH2 0x3924 JUMP JUMPDEST PUSH2 0x1006 PUSH2 0x46F3 JUMP JUMPDEST PUSH2 0x1012 DUP6 DUP11 PUSH1 0x1 PUSH2 0x3064 JUMP JUMPDEST SWAP1 POP PUSH1 0x1 PUSH1 0xA DUP2 GT ISZERO PUSH2 0x1021 JUMPI INVALID JUMPDEST DUP2 PUSH1 0x0 ADD MLOAD PUSH1 0xA DUP2 GT ISZERO PUSH2 0x1031 JUMPI INVALID JUMPDEST EQ PUSH2 0x10A4 JUMPI PUSH1 0x40 MLOAD PUSH32 0x8C379A000000000000000000000000000000000000000000000000000000000 DUP2 MSTORE PUSH1 0x4 ADD DUP1 DUP1 PUSH1 0x20 ADD DUP3 DUP2 SUB DUP3 MSTORE PUSH1 0x14 DUP2 MSTORE PUSH1 0x20 ADD DUP1 PUSH32 0x444552525F4C4546545F54524144455F4641494C000000000000000000000000 DUP2 MSTORE POP PUSH1 0x20 ADD SWAP2 POP POP PUSH1 0x40 MLOAD DUP1 SWAP2 SUB SWAP1 REVERT JUMPDEST PUSH2 0x10AE DUP10 DUP3 PUSH2 0x3924 JUMP JUMPDEST PUSH1 0x0 DUP1 SWAP1 POP PUSH1 0x1 DUP11 PUSH1 0xC0 ADD MLOAD PUSH1 0xFF AND EQ ISZERO PUSH2 0x10E8 JUMPI DUP3 PUSH1 0xA0 ADD MLOAD DUP3 PUSH1 0xC0 ADD MLOAD ADD SWAP1 POP PUSH1 0x0 DUP4 PUSH1 0xA0 ADD DUP2 DUP2 MSTORE POP DUP3 PUSH1 0xC0 ADD DUP2 DUP2 MSTORE POP POP PUSH2 0x1109 JUMP JUMPDEST DUP3 PUSH1 0xC0 ADD MLOAD DUP3 PUSH1 0xA0 ADD MLOAD ADD SWAP1 POP PUSH1 0x0 DUP4 PUSH1 0xC0 ADD DUP2 DUP2 MSTORE POP DUP3 PUSH1 0xA0 ADD DUP2 DUP2 MSTORE POP POP JUMPDEST PUSH1 0x0 DUP2 SLT ISZERO PUSH2 0x1122 JUMPI PUSH2 0x1121 DUP11 PUSH1 0x40 ADD MLOAD CALLER DUP4 PUSH2 0x3A85 JUMP JUMPDEST JUMPDEST DUP3 PUSH1 0xA0 ADD MLOAD DUP4 PUSH1 0xC0 ADD MLOAD ADD DUP3 PUSH1 0xA0 ADD MLOAD DUP4 PUSH1 0xC0 ADD MLOAD ADD SLT ISZERO PUSH2 0x1157 JUMPI PUSH2 0x1148 DUP11 DUP4 PUSH2 0x3D61 JUMP JUMPDEST PUSH2 0x1152 DUP9 DUP5 PUSH2 0x3D61 JUMP JUMPDEST PUSH2 0x116C JUMP JUMPDEST PUSH2 0x1161 DUP9 DUP5 PUSH2 0x3D61 JUMP JUMPDEST PUSH2 0x116B DUP11 DUP4 PUSH2 0x3D61 JUMP JUMPDEST JUMPDEST PUSH1 0x0 DUP2 SGT ISZERO PUSH2 0x1185 JUMPI PUSH2 0x1184 DUP11 PUSH1 0x40 ADD MLOAD CALLER DUP4 PUSH2 0x3A85 JUMP JUMPDEST JUMPDEST POP POP POP POP POP POP POP POP JUMPDEST DUP1 DUP1 PUSH1 0x1 ADD SWAP2 POP POP PUSH2 0xCAB JUMP JUMPDEST POP POP POP POP POP POP POP JUMP JUMPDEST PUSH1 0x0 DUP11 DUP11 DUP11 DUP11 DUP11 PUSH1 0x40 MLOAD PUSH1 0x20 ADD DUP1 DUP7 DUP2 MSTORE PUSH1 0x20 ADD DUP6 DUP2 MSTORE PUSH1 0x20 ADD DUP5 DUP2 MSTORE PUSH1 0x20 ADD DUP4 DUP4 PUSH1 0x20 MUL DUP1 DUP3 DUP5 CALLDATACOPY DUP1 DUP4 ADD SWAP3 POP POP POP SWAP6 POP POP POP POP POP POP PUSH1 0x40 MLOAD PUSH1 0x20 DUP2 DUP4 SUB SUB DUP2 MSTORE SWAP1 PUSH1 0x40 MSTORE DUP1 MLOAD SWAP1 PUSH1 0x20 ADD KECCAK256 PUSH1 0x0 SHR SWAP1 POP PUSH1 0x0 DUP1 PUSH1 0x0 DUP4 DUP2 MSTORE PUSH1 0x20 ADD SWAP1 DUP2 MSTORE PUSH1 0x20 ADD PUSH1 0x0 KECCAK256 SWAP1 POP DUP1 PUSH1 0x1 ADD PUSH1 0x0 SWAP1 SLOAD SWAP1 PUSH2 0x100 EXP SWAP1 DIV PUSH1 0xFF AND PUSH2 0x183A JUMPI PUSH1 0x0 DUP12 GT PUSH2 0x1298 JUMPI PUSH1 0x40 MLOAD PUSH32 0x8C379A000000000000000000000000000000000000000000000000000000000 DUP2 MSTORE PUSH1 0x4 ADD DUP1 DUP1 PUSH1 0x20 ADD DUP3 DUP2 SUB DUP3 MSTORE PUSH1 0x17 DUP2 MSTORE PUSH1 0x20 ADD DUP1 PUSH32 0x444552525F5A45524F5F4752414445525F51554F52554D000000000000000000 DUP2 MSTORE POP PUSH1 0x20 ADD SWAP2 POP POP PUSH1 0x40 MLOAD DUP1 SWAP2 SUB SWAP1 REVERT JUMPDEST DUP9 DUP9 SWAP1 POP DUP7 DUP7 SWAP1 POP EQ PUSH2 0x1313 JUMPI PUSH1 0x40 MLOAD PUSH32 0x8C379A000000000000000000000000000000000000000000000000000000000 DUP2 MSTORE PUSH1 0x4 ADD DUP1 DUP1 PUSH1 0x20 ADD DUP3 DUP2 SUB DUP3 MSTORE PUSH1 0x15 DUP2 MSTORE PUSH1 0x20 ADD DUP1 PUSH32 0x444552525F494E56414C49445F4E554D5F534947530000000000000000000000 DUP2 MSTORE POP PUSH1 0x20 ADD SWAP2 POP POP PUSH1 0x40 MLOAD DUP1 SWAP2 SUB SWAP1 REVERT JUMPDEST PUSH4 0x3B9ACA00 DUP11 GT ISZERO PUSH2 0x138D JUMPI PUSH1 0x40 MLOAD PUSH32 0x8C379A000000000000000000000000000000000000000000000000000000000 DUP2 MSTORE PUSH1 0x4 ADD DUP1 DUP1 PUSH1 0x20 ADD DUP3 DUP2 SUB DUP3 MSTORE PUSH1 0x16 DUP2 MSTORE PUSH1 0x20 ADD DUP1 PUSH32 0x444552525F494E56414C49445F47524144455246454500000000000000000000 DUP2 MSTORE POP PUSH1 0x20 ADD SWAP2 POP POP PUSH1 0x40 MLOAD DUP1 SWAP2 SUB SWAP1 REVERT JUMPDEST PUSH1 0x0 ADDRESS DUP4 DUP10 PUSH1 0x40 MLOAD PUSH1 0x20 ADD DUP1 DUP5 PUSH20 0xFFFFFFFFFFFFFFFFFFFFFFFFFFFFFFFFFFFFFFFF AND PUSH20 0xFFFFFFFFFFFFFFFFFFFFFFFFFFFFFFFFFFFFFFFF AND PUSH1 0x60 SHL DUP2 MSTORE PUSH1 0x14 ADD DUP4 DUP2 MSTORE PUSH1 0x20 ADD DUP3 PUSH4 0xFFFFFFFF AND PUSH4 0xFFFFFFFF AND PUSH1 0xE0 SHL DUP2 MSTORE PUSH1 0x4 ADD SWAP4 POP POP POP POP PUSH1 0x40 MLOAD PUSH1 0x20 DUP2 DUP4 SUB SUB DUP2 MSTORE SWAP1 PUSH1 0x40 MSTORE DUP1 MLOAD SWAP1 PUSH1 0x20 ADD KECCAK256 PUSH1 0x40 MLOAD PUSH1 0x20 ADD DUP1 DUP1 PUSH32 0x19457468657265756D205369676E6564204D6573736167653A0A333200000000 DUP2 MSTORE POP PUSH1 0x1C ADD DUP3 DUP2 MSTORE PUSH1 0x20 ADD SWAP2 POP POP PUSH1 0x40 MLOAD PUSH1 0x20 DUP2 DUP4 SUB SUB DUP2 MSTORE SWAP1 PUSH1 0x40 MSTORE DUP1 MLOAD SWAP1 PUSH1 0x20 ADD KECCAK256 SWAP1 POP PUSH1 0x0 DUP1 SWAP1 POP PUSH1 0x0 DUP1 SWAP1 POP JUMPDEST DUP12 DUP12 SWAP1 POP DUP2 LT ISZERO PUSH2 0x1657 JUMPI PUSH1 0x0 DUP10 DUP10 DUP4 DUP2 DUP2 LT PUSH2 0x1478 JUMPI INVALID JUMPDEST SWAP1 POP PUSH1 0x40 MUL ADD PUSH1 0x0 PUSH1 0x2 DUP2 LT PUSH2 0x148A JUMPI INVALID JUMPDEST PUSH1 0x20 MUL ADD CALLDATALOAD EQ PUSH2 0x164A JUMPI PUSH1 0x0 PUSH2 0x14E5 DUP5 DUP12 DUP12 DUP6 DUP2 DUP2 LT PUSH2 0x14A6 JUMPI INVALID JUMPDEST SWAP1 POP PUSH1 0x40 MUL ADD PUSH1 0x0 PUSH1 0x2 DUP2 LT PUSH2 0x14B8 JUMPI INVALID JUMPDEST PUSH1 0x20 MUL ADD CALLDATALOAD DUP13 DUP13 DUP7 DUP2 DUP2 LT PUSH2 0x14C9 JUMPI INVALID JUMPDEST SWAP1 POP PUSH1 0x40 MUL ADD PUSH1 0x1 PUSH1 0x2 DUP2 LT PUSH2 0x14DB JUMPI INVALID JUMPDEST PUSH1 0x20 MUL ADD CALLDATALOAD PUSH2 0x3F5E JUMP JUMPDEST SWAP1 POP DUP13 DUP13 DUP4 DUP2 DUP2 LT PUSH2 0x14F3 JUMPI INVALID JUMPDEST SWAP1 POP PUSH1 0x20 MUL ADD CALLDATALOAD PUSH20 0xFFFFFFFFFFFFFFFFFFFFFFFFFFFFFFFFFFFFFFFF AND PUSH20 0xFFFFFFFFFFFFFFFFFFFFFFFFFFFFFFFFFFFFFFFF AND DUP2 PUSH20 0xFFFFFFFFFFFFFFFFFFFFFFFFFFFFFFFFFFFFFFFF AND EQ PUSH2 0x15B0 JUMPI PUSH1 0x40 MLOAD PUSH32 0x8C379A000000000000000000000000000000000000000000000000000000000 DUP2 MSTORE PUSH1 0x4 ADD DUP1 DUP1 PUSH1 0x20 ADD DUP3 DUP2 SUB DUP3 MSTORE PUSH1 0x13 DUP2 MSTORE PUSH1 0x20 ADD DUP1 PUSH32 0x444552525F4241445F4752414445525F53494700000000000000000000000000 DUP2 MSTORE POP PUSH1 0x20 ADD SWAP2 POP POP PUSH1 0x40 MLOAD DUP1 SWAP2 SUB SWAP1 REVERT JUMPDEST DUP5 PUSH1 0x2 ADD DUP14 DUP14 DUP5 DUP2 DUP2 LT PUSH2 0x15C0 JUMPI INVALID JUMPDEST SWAP1 POP PUSH1 0x20 MUL ADD CALLDATALOAD PUSH20 0xFFFFFFFFFFFFFFFFFFFFFFFFFFFFFFFFFFFFFFFF AND SWAP1 DUP1 PUSH1 0x1 DUP2 SLOAD ADD DUP1 DUP3 SSTORE DUP1 SWAP2 POP POP SWAP1 PUSH1 0x1 DUP3 SUB SWAP1 PUSH1 0x0 MSTORE PUSH1 0x20 PUSH1 0x0 KECCAK256 ADD PUSH1 0x0 SWAP1 SWAP2 SWAP3 SWAP1 SWAP2 SWAP1 SWAP2 PUSH2 0x100 EXP DUP2 SLOAD DUP2 PUSH20 0xFFFFFFFFFFFFFFFFFFFFFFFFFFFFFFFFFFFFFFFF MUL NOT AND SWAP1 DUP4 PUSH20 0xFFFFFFFFFFFFFFFFFFFFFFFFFFFFFFFFFFFFFFFF AND MUL OR SWAP1 SSTORE POP POP DUP3 DUP1 PUSH1 0x1 ADD SWAP4 POP POP POP JUMPDEST DUP1 DUP1 PUSH1 0x1 ADD SWAP2 POP POP PUSH2 0x145F JUMP JUMPDEST POP DUP13 DUP2 LT ISZERO PUSH2 0x16CE JUMPI PUSH1 0x40 MLOAD PUSH32 0x8C379A000000000000000000000000000000000000000000000000000000000 DUP2 MSTORE PUSH1 0x4 ADD DUP1 DUP1 PUSH1 0x20 ADD DUP3 DUP2 SUB DUP3 MSTORE PUSH1 0x19 DUP2 MSTORE PUSH1 0x20 ADD DUP1 PUSH32 0x444552525F494E53554646494349454E545F4752414445525300000000000000 DUP2 MSTORE POP PUSH1 0x20 ADD SWAP2 POP POP PUSH1 0x40 MLOAD DUP1 SWAP2 SUB SWAP1 REVERT JUMPDEST PUSH1 0x0 DUP1 PUSH4 0x80000000 DUP12 AND PUSH4 0xFFFFFFFF AND EQ ISZERO SWAP1 POP PUSH1 0x0 PUSH4 0x7FFFFFFF DUP12 AND SWAP1 POP PUSH1 0x1 DUP6 PUSH1 0x1 ADD PUSH1 0x0 PUSH2 0x100 EXP DUP2 SLOAD DUP2 PUSH1 0xFF MUL NOT AND SWAP1 DUP4 ISZERO ISZERO MUL OR SWAP1 SSTORE POP DUP1 DUP6 PUSH1 0x1 ADD PUSH1 0x1 PUSH2 0x100 EXP DUP2 SLOAD DUP2 PUSH4 0xFFFFFFFF MUL NOT AND SWAP1 DUP4 PUSH4 0xFFFFFFFF AND MUL OR SWAP1 SSTORE POP DUP2 PUSH2 0x1738 JUMPI DUP14 PUSH2 0x173B JUMP JUMPDEST PUSH1 0x0 JUMPDEST DUP6 PUSH1 0x1 ADD PUSH1 0x5 PUSH2 0x100 EXP DUP2 SLOAD DUP2 PUSH4 0xFFFFFFFF MUL NOT AND SWAP1 DUP4 PUSH4 0xFFFFFFFF AND MUL OR SWAP1 SSTORE POP PUSH4 0x3B9ACA00 DUP6 PUSH1 0x1 ADD PUSH1 0x1 SWAP1 SLOAD SWAP1 PUSH2 0x100 EXP SWAP1 DIV PUSH4 0xFFFFFFFF AND PUSH4 0xFFFFFFFF AND GT ISZERO PUSH2 0x17F1 JUMPI PUSH1 0x40 MLOAD PUSH32 0x8C379A000000000000000000000000000000000000000000000000000000000 DUP2 MSTORE PUSH1 0x4 ADD DUP1 DUP1 PUSH1 0x20 ADD DUP3 DUP2 SUB DUP3 MSTORE PUSH1 0x13 DUP2 MSTORE PUSH1 0x20 ADD DUP1 PUSH32 0x444552525F4241445F46494E414C505249434500000000000000000000000000 DUP2 MSTORE POP PUSH1 0x20 ADD SWAP2 POP POP PUSH1 0x40 MLOAD DUP1 SWAP2 SUB SWAP1 REVERT JUMPDEST DUP6 PUSH32 0x5B7DD90E5B4429F4065B72413FA0E6B3E94D240F37F15738C63219CF4D1D29A3 DUP13 PUSH1 0x40 MLOAD DUP1 DUP3 PUSH4 0xFFFFFFFF AND PUSH4 0xFFFFFFFF AND DUP2 MSTORE PUSH1 0x20 ADD SWAP2 POP POP PUSH1 0x40 MLOAD DUP1 SWAP2 SUB SWAP1 LOG2 POP POP POP POP JUMPDEST PUSH2 0x1885 DUP3 DUP6 DUP6 DUP1 DUP1 PUSH1 0x20 MUL PUSH1 0x20 ADD PUSH1 0x40 MLOAD SWAP1 DUP2 ADD PUSH1 0x40 MSTORE DUP1 SWAP4 SWAP3 SWAP2 SWAP1 DUP2 DUP2 MSTORE PUSH1 0x20 ADD DUP4 DUP4 PUSH1 0x20 MUL DUP1 DUP3 DUP5 CALLDATACOPY PUSH1 0x0 DUP2 DUP5 ADD MSTORE PUSH1 0x1F NOT PUSH1 0x1F DUP3 ADD AND SWAP1 POP DUP1 DUP4 ADD SWAP3 POP POP POP POP POP POP POP PUSH2 0x2083 JUMP JUMPDEST POP POP POP POP POP POP POP POP POP POP POP POP JUMP JUMPDEST PUSH12 0xFFFFFFFFFFFFFFFFFFFFFFFF DUP2 GT ISZERO PUSH2 0x1915 JUMPI PUSH1 0x40 MLOAD PUSH32 0x8C379A000000000000000000000000000000000000000000000000000000000 DUP2 MSTORE PUSH1 0x4 ADD DUP1 DUP1 PUSH1 0x20 ADD DUP3 DUP2 SUB DUP3 MSTORE PUSH1 0x13 DUP2 MSTORE PUSH1 0x20 ADD DUP1 PUSH32 0x444552525F4241445F4F5244455247524F555000000000000000000000000000 DUP2 MSTORE POP PUSH1 0x20 ADD SWAP2 POP POP PUSH1 0x40 MLOAD DUP1 SWAP2 SUB SWAP1 REVERT JUMPDEST PUSH1 0x0 CALLER DUP5 DUP5 DUP5 PUSH1 0x40 MLOAD PUSH1 0x20 ADD DUP1 DUP6 PUSH20 0xFFFFFFFFFFFFFFFFFFFFFFFFFFFFFFFFFFFFFFFF AND PUSH20 0xFFFFFFFFFFFFFFFFFFFFFFFFFFFFFFFFFFFFFFFF AND PUSH1 0x60 SHL DUP2 MSTORE PUSH1 0x14 ADD DUP5 PUSH20 0xFFFFFFFFFFFFFFFFFFFFFFFFFFFFFFFFFFFFFFFF AND PUSH20 0xFFFFFFFFFFFFFFFFFFFFFFFFFFFFFFFFFFFFFFFF AND PUSH1 0x60 SHL DUP2 MSTORE PUSH1 0x14 ADD DUP4 DUP2 MSTORE PUSH1 0x20 ADD DUP3 DUP2 MSTORE PUSH1 0x20 ADD SWAP5 POP POP POP POP POP PUSH1 0x40 MLOAD PUSH1 0x20 DUP2 DUP4 SUB SUB DUP2 MSTORE SWAP1 PUSH1 0x40 MSTORE DUP1 MLOAD SWAP1 PUSH1 0x20 ADD KECCAK256 PUSH1 0x0 SHR SWAP1 POP PUSH32 0xFFFFFFFFFFFFFFFFFFFFFFFFFFFFFFFFFFFFFFFFFFFFFFFFFFFFFFFFFFFFFFFF PUSH1 0x1 PUSH1 0x0 DUP4 DUP2 MSTORE PUSH1 0x20 ADD SWAP1 DUP2 MSTORE PUSH1 0x20 ADD PUSH1 0x0 KECCAK256 DUP2 SWAP1 SSTORE POP CALLER PUSH20 0xFFFFFFFFFFFFFFFFFFFFFFFFFFFFFFFFFFFFFFFF AND PUSH32 0x1430A8409C73700EB66D67441F57646F38F97871D4EF568E9891000CFBC542DA DUP6 DUP6 DUP6 PUSH1 0x40 MLOAD DUP1 DUP5 PUSH20 0xFFFFFFFFFFFFFFFFFFFFFFFFFFFFFFFFFFFFFFFF AND PUSH20 0xFFFFFFFFFFFFFFFFFFFFFFFFFFFFFFFFFFFFFFFF AND DUP2 MSTORE PUSH1 0x20 ADD DUP4 DUP2 MSTORE PUSH1 0x20 ADD DUP3 DUP2 MSTORE PUSH1 0x20 ADD SWAP4 POP POP POP POP PUSH1 0x40 MLOAD DUP1 SWAP2 SUB SWAP1 LOG2 POP POP POP POP JUMP JUMPDEST PUSH1 0x0 DUP8 DUP8 DUP8 PUSH1 0x40 MLOAD PUSH1 0x20 ADD DUP1 DUP5 DUP2 MSTORE PUSH1 0x20 ADD DUP4 DUP2 MSTORE PUSH1 0x20 ADD DUP3 DUP2 MSTORE PUSH1 0x20 ADD SWAP4 POP POP POP POP PUSH1 0x40 MLOAD PUSH1 0x20 DUP2 DUP4 SUB SUB DUP2 MSTORE SWAP1 PUSH1 0x40 MSTORE DUP1 MLOAD SWAP1 PUSH1 0x20 ADD KECCAK256 SWAP1 POP PUSH1 0x0 DUP2 DUP7 DUP7 DUP7 DUP7 PUSH1 0x40 MLOAD PUSH1 0x20 ADD DUP1 DUP7 DUP2 MSTORE PUSH1 0x20 ADD DUP6 DUP2 MSTORE PUSH1 0x20 ADD DUP5 DUP2 MSTORE PUSH1 0x20 ADD DUP4 DUP4 PUSH1 0x20 MUL DUP1 DUP3 DUP5 CALLDATACOPY DUP1 DUP4 ADD SWAP3 POP POP POP SWAP6 POP POP POP POP POP POP PUSH1 0x40 MLOAD PUSH1 0x20 DUP2 DUP4 SUB SUB DUP2 MSTORE SWAP1 PUSH1 0x40 MSTORE DUP1 MLOAD SWAP1 PUSH1 0x20 ADD KECCAK256 PUSH1 0x0 SHR SWAP1 POP PUSH1 0x0 DUP1 PUSH1 0x0 DUP4 DUP2 MSTORE PUSH1 0x20 ADD SWAP1 DUP2 MSTORE PUSH1 0x20 ADD PUSH1 0x0 KECCAK256 SWAP1 POP DUP1 PUSH1 0x1 ADD PUSH1 0x0 SWAP1 SLOAD SWAP1 PUSH2 0x100 EXP SWAP1 DIV PUSH1 0xFF AND ISZERO PUSH2 0x1BA9 JUMPI PUSH1 0x40 MLOAD PUSH32 0x8C379A000000000000000000000000000000000000000000000000000000000 DUP2 MSTORE PUSH1 0x4 ADD DUP1 DUP1 PUSH1 0x20 ADD DUP3 DUP2 SUB DUP3 MSTORE PUSH1 0x17 DUP2 MSTORE PUSH1 0x20 ADD DUP1 PUSH32 0x444552525F4D415443485F49535F46494E414C495A4544000000000000000000 DUP2 MSTORE POP PUSH1 0x20 ADD SWAP2 POP POP PUSH1 0x40 MLOAD DUP1 SWAP2 SUB SWAP1 REVERT JUMPDEST TIMESTAMP DUP10 LT PUSH2 0x1C1E JUMPI PUSH1 0x40 MLOAD PUSH32 0x8C379A000000000000000000000000000000000000000000000000000000000 DUP2 MSTORE PUSH1 0x4 ADD DUP1 DUP1 PUSH1 0x20 ADD DUP3 DUP2 SUB DUP3 MSTORE PUSH1 0x18 DUP2 MSTORE PUSH1 0x20 ADD DUP1 PUSH32 0x444552525F544F4F5F534F4F4E5F544F5F5245434F5645520000000000000000 DUP2 MSTORE POP PUSH1 0x20 ADD SWAP2 POP POP PUSH1 0x40 MLOAD DUP1 SWAP2 SUB SWAP1 REVERT JUMPDEST PUSH4 0x3B9ACA00 DUP9 GT ISZERO PUSH2 0x1C98 JUMPI PUSH1 0x40 MLOAD PUSH32 0x8C379A000000000000000000000000000000000000000000000000000000000 DUP2 MSTORE PUSH1 0x4 ADD DUP1 DUP1 PUSH1 0x20 ADD DUP3 DUP2 SUB DUP3 MSTORE PUSH1 0x18 DUP2 MSTORE PUSH1 0x20 ADD DUP1 PUSH32 0x444552525F494E56414C49445F43414E43454C50524943450000000000000000 DUP2 MSTORE POP PUSH1 0x20 ADD SWAP2 POP POP PUSH1 0x40 MLOAD DUP1 SWAP2 SUB SWAP1 REVERT JUMPDEST PUSH1 0x1 DUP2 PUSH1 0x1 ADD PUSH1 0x0 PUSH2 0x100 EXP DUP2 SLOAD DUP2 PUSH1 0xFF MUL NOT AND SWAP1 DUP4 ISZERO ISZERO MUL OR SWAP1 SSTORE POP DUP8 DUP2 PUSH1 0x1 ADD PUSH1 0x1 PUSH2 0x100 EXP DUP2 SLOAD DUP2 PUSH4 0xFFFFFFFF MUL NOT AND SWAP1 DUP4 PUSH4 0xFFFFFFFF AND MUL OR SWAP1 SSTORE POP PUSH1 0x0 DUP2 PUSH1 0x1 ADD PUSH1 0x5 PUSH2 0x100 EXP DUP2 SLOAD DUP2 PUSH4 0xFFFFFFFF MUL NOT AND SWAP1 DUP4 PUSH4 0xFFFFFFFF AND MUL OR SWAP1 SSTORE POP DUP2 PUSH32 0x5B7DD90E5B4429F4065B72413FA0E6B3E94D240F37F15738C63219CF4D1D29A3 DUP10 PUSH1 0x40 MLOAD DUP1 DUP3 PUSH4 0xFFFFFFFF AND PUSH4 0xFFFFFFFF AND DUP2 MSTORE PUSH1 0x20 ADD SWAP2 POP POP PUSH1 0x40 MLOAD DUP1 SWAP2 SUB SWAP1 LOG2 POP POP POP POP POP POP POP POP POP POP JUMP JUMPDEST PUSH1 0x0 PUSH1 0x1 PUSH1 0x0 DUP4 PUSH1 0x0 SHR DUP2 MSTORE PUSH1 0x20 ADD SWAP1 DUP2 MSTORE PUSH1 0x20 ADD PUSH1 0x0 KECCAK256 SLOAD SWAP1 POP SWAP2 SWAP1 POP JUMP JUMPDEST PUSH1 0x0 DUP6 EQ ISZERO DUP1 ISZERO PUSH2 0x1D7D JUMPI POP DUP5 TIMESTAMP LT ISZERO JUMPDEST ISZERO PUSH2 0x1E3F JUMPI DUP4 PUSH1 0x0 PUSH20 0xFFFFFFFFFFFFFFFFFFFFFFFFFFFFFFFFFFFFFFFF AND CALLER PUSH20 0xFFFFFFFFFFFFFFFFFFFFFFFFFFFFFFFFFFFFFFFF AND PUSH32 0xC18D9B605D704A457C4E1843595120A6722EB9B31B859EC775262189D62F04B7 DUP7 PUSH1 0x0 PUSH1 0x3 PUSH1 0xA DUP2 GT ISZERO PUSH2 0x1DE3 JUMPI INVALID JUMPDEST PUSH1 0x40 MLOAD DUP1 DUP5 PUSH20 0xFFFFFFFFFFFFFFFFFFFFFFFFFFFFFFFFFFFFFFFF AND PUSH20 0xFFFFFFFFFFFFFFFFFFFFFFFFFFFFFFFFFFFFFFFF AND DUP2 MSTORE PUSH1 0x20 ADD DUP4 DUP2 MSTORE PUSH1 0x20 ADD DUP3 PUSH2 0xFFFF AND PUSH2 0xFFFF AND DUP2 MSTORE PUSH1 0x20 ADD SWAP4 POP POP POP POP PUSH1 0x40 MLOAD DUP1 SWAP2 SUB SWAP1 LOG4 PUSH2 0x207B JUMP JUMPDEST PUSH1 0x0 DUP3 DUP3 SWAP1 POP GT PUSH2 0x1EB8 JUMPI PUSH1 0x40 MLOAD PUSH32 0x8C379A000000000000000000000000000000000000000000000000000000000 DUP2 MSTORE PUSH1 0x4 ADD DUP1 DUP1 PUSH1 0x20 ADD DUP3 DUP2 SUB DUP3 MSTORE PUSH1 0x17 DUP2 MSTORE PUSH1 0x20 ADD DUP1 PUSH32 0x444552525F454D5054595F5041434B45444F5244455253000000000000000000 DUP2 MSTORE POP PUSH1 0x20 ADD SWAP2 POP POP PUSH1 0x40 MLOAD DUP1 SWAP2 SUB SWAP1 REVERT JUMPDEST PUSH1 0x0 DUP7 SWAP1 POP PUSH1 0x0 DUP1 SWAP1 POP JUMPDEST DUP4 DUP4 SWAP1 POP DUP2 LT ISZERO PUSH2 0x2078 JUMPI PUSH2 0x1ED6 PUSH2 0x464E JUMP JUMPDEST PUSH2 0x1F29 DUP8 DUP8 DUP8 DUP8 DUP7 DUP2 DUP2 LT PUSH2 0x1EE7 JUMPI INVALID JUMPDEST SWAP1 POP PUSH1 0x80 MUL ADD PUSH1 0x4 DUP1 PUSH1 0x20 MUL PUSH1 0x40 MLOAD SWAP1 DUP2 ADD PUSH1 0x40 MSTORE DUP1 SWAP3 SWAP2 SWAP1 DUP3 PUSH1 0x4 PUSH1 0x20 MUL DUP1 DUP3 DUP5 CALLDATACOPY PUSH1 0x0 DUP2 DUP5 ADD MSTORE PUSH1 0x1F NOT PUSH1 0x1F DUP3 ADD AND SWAP1 POP DUP1 DUP4 ADD SWAP3 POP POP POP POP POP POP PUSH2 0x2774 JUMP JUMPDEST SWAP1 POP PUSH2 0x1F33 PUSH2 0x46F3 JUMP JUMPDEST PUSH2 0x1F3F DUP5 DUP4 PUSH1 0x0 PUSH2 0x3064 JUMP JUMPDEST SWAP1 POP PUSH1 0x1 PUSH1 0xA DUP2 GT ISZERO PUSH2 0x1F4E JUMPI INVALID JUMPDEST DUP2 PUSH1 0x0 ADD MLOAD PUSH1 0xA DUP2 GT ISZERO PUSH2 0x1F5E JUMPI INVALID JUMPDEST EQ ISZERO PUSH2 0x1F8E JUMPI PUSH2 0x1F6E DUP3 DUP3 PUSH2 0x3924 JUMP JUMPDEST PUSH2 0x1F78 DUP3 DUP3 PUSH2 0x3D61 JUMP JUMPDEST PUSH2 0x1F87 DUP5 DUP3 PUSH2 0x120 ADD MLOAD PUSH2 0x3FFF JUMP JUMPDEST SWAP4 POP PUSH2 0x2059 JUMP JUMPDEST DUP2 PUSH1 0x60 ADD MLOAD DUP3 PUSH1 0x0 ADD MLOAD PUSH20 0xFFFFFFFFFFFFFFFFFFFFFFFFFFFFFFFFFFFFFFFF AND CALLER PUSH20 0xFFFFFFFFFFFFFFFFFFFFFFFFFFFFFFFFFFFFFFFF AND PUSH32 0xC18D9B605D704A457C4E1843595120A6722EB9B31B859EC775262189D62F04B7 DUP6 PUSH1 0x40 ADD MLOAD DUP7 PUSH2 0x140 ADD MLOAD DUP7 PUSH1 0x0 ADD MLOAD PUSH1 0xA DUP2 GT ISZERO PUSH2 0x2001 JUMPI INVALID JUMPDEST PUSH1 0x40 MLOAD DUP1 DUP5 PUSH20 0xFFFFFFFFFFFFFFFFFFFFFFFFFFFFFFFFFFFFFFFF AND PUSH20 0xFFFFFFFFFFFFFFFFFFFFFFFFFFFFFFFFFFFFFFFF AND DUP2 MSTORE PUSH1 0x20 ADD DUP4 DUP2 MSTORE PUSH1 0x20 ADD DUP3 PUSH2 0xFFFF AND PUSH2 0xFFFF AND DUP2 MSTORE PUSH1 0x20 ADD SWAP4 POP POP POP POP PUSH1 0x40 MLOAD DUP1 SWAP2 SUB SWAP1 LOG4 JUMPDEST PUSH1 0x2 DUP5 LT ISZERO PUSH2 0x2069 JUMPI POP POP PUSH2 0x2078 JUMP JUMPDEST POP POP DUP1 DUP1 PUSH1 0x1 ADD SWAP2 POP POP PUSH2 0x1EC3 JUMP JUMPDEST POP POP JUMPDEST POP POP POP POP POP POP JUMP JUMPDEST PUSH1 0x0 DUP1 PUSH1 0x0 DUP5 DUP2 MSTORE PUSH1 0x20 ADD SWAP1 DUP2 MSTORE PUSH1 0x20 ADD PUSH1 0x0 KECCAK256 SWAP1 POP DUP1 PUSH1 0x1 ADD PUSH1 0x0 SWAP1 SLOAD SWAP1 PUSH2 0x100 EXP SWAP1 DIV PUSH1 0xFF AND PUSH2 0x20B1 JUMPI INVALID JUMPDEST PUSH4 0x3B9ACA00 DUP2 PUSH1 0x1 ADD PUSH1 0x5 SWAP1 SLOAD SWAP1 PUSH2 0x100 EXP SWAP1 DIV PUSH4 0xFFFFFFFF AND PUSH4 0xFFFFFFFF AND GT ISZERO PUSH2 0x20D9 JUMPI INVALID JUMPDEST PUSH1 0x0 DUP1 SWAP1 POP JUMPDEST DUP3 MLOAD DUP2 LT ISZERO PUSH2 0x24FA JUMPI PUSH1 0x0 PUSH20 0xFFFFFFFFFFFFFFFFFFFFFFFFFFFFFFFFFFFFFFFF DUP5 DUP4 DUP2 MLOAD DUP2 LT PUSH2 0x210B JUMPI INVALID JUMPDEST PUSH1 0x20 MUL PUSH1 0x20 ADD ADD MLOAD AND SWAP1 POP PUSH1 0x0 DUP1 SWAP1 POP DUP3 DUP1 PUSH1 0x1 ADD SWAP4 POP POP JUMPDEST DUP5 MLOAD DUP4 LT DUP1 ISZERO PUSH2 0x2169 JUMPI POP PUSH1 0x0 PUSH32 0x8000000000000000000000000000000000000000000000000000000000000000 DUP7 DUP6 DUP2 MLOAD DUP2 LT PUSH2 0x215E JUMPI INVALID JUMPDEST PUSH1 0x20 MUL PUSH1 0x20 ADD ADD MLOAD AND EQ JUMPDEST ISZERO PUSH2 0x23EA JUMPI PUSH1 0x0 DUP6 DUP5 DUP2 MLOAD DUP2 LT PUSH2 0x217C JUMPI INVALID JUMPDEST PUSH1 0x20 MUL PUSH1 0x20 ADD ADD MLOAD SWAP1 POP PUSH1 0x0 DUP1 SWAP1 POP PUSH1 0x0 DUP7 PUSH1 0x0 ADD PUSH1 0x0 DUP5 PUSH20 0xFFFFFFFFFFFFFFFFFFFFFFFFFFFFFFFFFFFFFFFF AND PUSH20 0xFFFFFFFFFFFFFFFFFFFFFFFFFFFFFFFFFFFFFFFF AND DUP2 MSTORE PUSH1 0x20 ADD SWAP1 DUP2 MSTORE PUSH1 0x20 ADD PUSH1 0x0 KECCAK256 PUSH1 0x0 DUP7 PUSH20 0xFFFFFFFFFFFFFFFFFFFFFFFFFFFFFFFFFFFFFFFF AND PUSH20 0xFFFFFFFFFFFFFFFFFFFFFFFFFFFFFFFFFFFFFFFF AND DUP2 MSTORE PUSH1 0x20 ADD SWAP1 DUP2 MSTORE PUSH1 0x20 ADD PUSH1 0x0 KECCAK256 SLOAD SWAP1 POP PUSH1 0x0 DUP2 SGT ISZERO PUSH2 0x2242 JUMPI PUSH2 0x223B DUP2 DUP9 PUSH1 0x1 ADD PUSH1 0x1 SWAP1 SLOAD SWAP1 PUSH2 0x100 EXP SWAP1 DIV PUSH4 0xFFFFFFFF AND PUSH4 0xFFFFFFFF AND PUSH2 0x3039 JUMP JUMPDEST SWAP2 POP PUSH2 0x2288 JUMP JUMPDEST PUSH1 0x0 DUP2 SLT ISZERO PUSH2 0x227F JUMPI PUSH2 0x2278 DUP2 PUSH1 0x0 SUB DUP9 PUSH1 0x1 ADD PUSH1 0x1 SWAP1 SLOAD SWAP1 PUSH2 0x100 EXP SWAP1 DIV PUSH4 0xFFFFFFFF AND PUSH4 0xFFFFFFFF AND PUSH4 0x3B9ACA00 SUB PUSH2 0x3039 JUMP JUMPDEST SWAP2 POP PUSH2 0x2287 JUMP JUMPDEST POP POP POP PUSH2 0x23DD JUMP JUMPDEST JUMPDEST PUSH1 0x0 DUP3 SLT ISZERO PUSH2 0x2293 JUMPI INVALID JUMPDEST PUSH1 0x0 PUSH2 0x22B9 DUP4 DUP10 PUSH1 0x1 ADD PUSH1 0x5 SWAP1 SLOAD SWAP1 PUSH2 0x100 EXP SWAP1 DIV PUSH4 0xFFFFFFFF AND PUSH4 0xFFFFFFFF AND PUSH2 0x3039 JUMP JUMPDEST SWAP1 POP PUSH1 0x0 DUP2 SLT ISZERO PUSH2 0x22C6 JUMPI INVALID JUMPDEST DUP1 DUP4 SUB SWAP3 POP DUP1 DUP6 ADD SWAP5 POP PUSH1 0x0 DUP4 SLT ISZERO PUSH2 0x22DB JUMPI INVALID JUMPDEST PUSH1 0x0 DUP9 PUSH1 0x0 ADD PUSH1 0x0 DUP7 PUSH20 0xFFFFFFFFFFFFFFFFFFFFFFFFFFFFFFFFFFFFFFFF AND PUSH20 0xFFFFFFFFFFFFFFFFFFFFFFFFFFFFFFFFFFFFFFFF AND DUP2 MSTORE PUSH1 0x20 ADD SWAP1 DUP2 MSTORE PUSH1 0x20 ADD PUSH1 0x0 KECCAK256 PUSH1 0x0 DUP9 PUSH20 0xFFFFFFFFFFFFFFFFFFFFFFFFFFFFFFFFFFFFFFFF AND PUSH20 0xFFFFFFFFFFFFFFFFFFFFFFFFFFFFFFFFFFFFFFFF AND DUP2 MSTORE PUSH1 0x20 ADD SWAP1 DUP2 MSTORE PUSH1 0x20 ADD PUSH1 0x0 KECCAK256 DUP2 SWAP1 SSTORE POP PUSH2 0x236A DUP7 DUP6 DUP6 PUSH2 0x3A85 JUMP JUMPDEST DUP6 PUSH20 0xFFFFFFFFFFFFFFFFFFFFFFFFFFFFFFFFFFFFFFFF AND DUP11 DUP6 PUSH20 0xFFFFFFFFFFFFFFFFFFFFFFFFFFFFFFFFFFFFFFFF AND PUSH32 0x34B19D4AB39B572DF0255E6C74331CD56F42AFF855508021D664CD2BE29B3FF8 DUP7 DUP6 PUSH1 0x40 MLOAD DUP1 DUP4 DUP2 MSTORE PUSH1 0x20 ADD DUP3 DUP2 MSTORE PUSH1 0x20 ADD SWAP3 POP POP POP PUSH1 0x40 MLOAD DUP1 SWAP2 SUB SWAP1 LOG4 POP POP POP POP JUMPDEST DUP3 DUP1 PUSH1 0x1 ADD SWAP4 POP POP PUSH2 0x2124 JUMP JUMPDEST PUSH1 0x0 DUP5 PUSH1 0x1 ADD PUSH1 0x5 SWAP1 SLOAD SWAP1 PUSH2 0x100 EXP SWAP1 DIV PUSH4 0xFFFFFFFF AND PUSH4 0xFFFFFFFF AND EQ DUP1 PUSH2 0x2413 JUMPI POP PUSH1 0x0 DUP2 EQ JUMPDEST ISZERO PUSH2 0x241F JUMPI POP POP PUSH2 0x24F5 JUMP JUMPDEST PUSH1 0x0 DUP5 PUSH1 0x2 ADD DUP1 SLOAD SWAP1 POP DUP3 DUP2 PUSH2 0x2431 JUMPI INVALID JUMPDEST SDIV SWAP1 POP PUSH1 0x0 DUP1 SWAP1 POP JUMPDEST PUSH1 0x1 DUP7 PUSH1 0x2 ADD DUP1 SLOAD SWAP1 POP SUB DUP2 LT ISZERO PUSH2 0x24A2 JUMPI DUP2 DUP4 SUB SWAP3 POP PUSH2 0x2495 DUP5 DUP8 PUSH1 0x2 ADD DUP4 DUP2 SLOAD DUP2 LT PUSH2 0x2464 JUMPI INVALID JUMPDEST SWAP1 PUSH1 0x0 MSTORE PUSH1 0x20 PUSH1 0x0 KECCAK256 ADD PUSH1 0x0 SWAP1 SLOAD SWAP1 PUSH2 0x100 EXP SWAP1 DIV PUSH20 0xFFFFFFFFFFFFFFFFFFFFFFFFFFFFFFFFFFFFFFFF AND DUP5 PUSH2 0x3A85 JUMP JUMPDEST DUP1 DUP1 PUSH1 0x1 ADD SWAP2 POP POP PUSH2 0x243A JUMP JUMPDEST POP PUSH2 0x24F1 DUP4 DUP7 PUSH1 0x2 ADD PUSH1 0x1 DUP9 PUSH1 0x2 ADD DUP1 SLOAD SWAP1 POP SUB DUP2 SLOAD DUP2 LT PUSH2 0x24C0 JUMPI INVALID JUMPDEST SWAP1 PUSH1 0x0 MSTORE PUSH1 0x20 PUSH1 0x0 KECCAK256 ADD PUSH1 0x0 SWAP1 SLOAD SWAP1 PUSH2 0x100 EXP SWAP1 DIV PUSH20 0xFFFFFFFFFFFFFFFFFFFFFFFFFFFFFFFFFFFFFFFF AND DUP5 PUSH2 0x3A85 JUMP JUMPDEST POP POP POP JUMPDEST PUSH2 0x20DF JUMP JUMPDEST POP POP POP POP JUMP JUMPDEST PUSH2 0x2508 PUSH2 0x464E JUMP JUMPDEST PUSH2 0x2512 DUP3 DUP3 PUSH2 0x4016 JUMP JUMPDEST DUP2 PUSH1 0x2 PUSH1 0x4 DUP2 LT PUSH2 0x251F JUMPI INVALID JUMPDEST PUSH1 0x20 MUL ADD MLOAD DUP2 PUSH1 0x60 ADD DUP2 DUP2 MSTORE POP POP DUP2 PUSH1 0x3 PUSH1 0x4 DUP2 LT PUSH2 0x253A JUMPI INVALID JUMPDEST PUSH1 0x20 MUL ADD MLOAD DUP2 PUSH1 0x40 ADD SWAP1 PUSH20 0xFFFFFFFFFFFFFFFFFFFFFFFFFFFFFFFFFFFFFFFF AND SWAP1 DUP2 PUSH20 0xFFFFFFFFFFFFFFFFFFFFFFFFFFFFFFFFFFFFFFFF AND DUP2 MSTORE POP POP PUSH1 0x0 DUP2 PUSH1 0x20 ADD SWAP1 PUSH20 0xFFFFFFFFFFFFFFFFFFFFFFFFFFFFFFFFFFFFFFFF AND SWAP1 DUP2 PUSH20 0xFFFFFFFFFFFFFFFFFFFFFFFFFFFFFFFFFFFFFFFF AND DUP2 MSTORE POP POP PUSH2 0x25B8 DUP2 PUSH2 0x41C3 JUMP JUMPDEST SWAP2 SWAP1 POP JUMP JUMPDEST PUSH1 0x0 DUP2 PUSH1 0xE0 ADD MLOAD TIMESTAMP LT ISZERO DUP1 PUSH2 0x261A JUMPI POP DUP2 PUSH2 0x100 ADD MLOAD PUSH1 0x2 PUSH1 0x0 DUP5 PUSH1 0x0 ADD MLOAD PUSH20 0xFFFFFFFFFFFFFFFFFFFFFFFFFFFFFFFFFFFFFFFF AND PUSH20 0xFFFFFFFFFFFFFFFFFFFFFFFFFFFFFFFFFFFFFFFF AND DUP2 MSTORE PUSH1 0x20 ADD SWAP1 DUP2 MSTORE PUSH1 0x20 ADD PUSH1 0x0 KECCAK256 SLOAD LT ISZERO JUMPDEST ISZERO PUSH2 0x2628 JUMPI PUSH1 0x0 SWAP1 POP PUSH2 0x276F JUMP JUMPDEST PUSH1 0x0 PUSH1 0x1 PUSH1 0x0 DUP5 PUSH2 0x140 ADD MLOAD DUP2 MSTORE PUSH1 0x20 ADD SWAP1 DUP2 MSTORE PUSH1 0x20 ADD PUSH1 0x0 KECCAK256 SLOAD SWAP1 POP PUSH32 0xFFFFFFFFFFFFFFFFFFFFFFFFFFFFFFFFFFFFFFFFFFFFFFFFFFFFFFFFFFFFFFFF DUP2 EQ ISZERO PUSH2 0x2677 JUMPI PUSH1 0x0 SWAP2 POP POP PUSH2 0x276F JUMP JUMPDEST PUSH1 0x0 DUP1 PUSH1 0x0 DUP6 PUSH1 0x60 ADD MLOAD DUP2 MSTORE PUSH1 0x20 ADD SWAP1 DUP2 MSTORE PUSH1 0x20 ADD PUSH1 0x0 KECCAK256 SWAP1 POP PUSH1 0x0 PUSH2 0x26A1 DUP6 PUSH1 0x80 ADD MLOAD DUP5 PUSH2 0x3FFF JUMP JUMPDEST SWAP1 POP PUSH1 0x0 DUP3 PUSH1 0x0 ADD PUSH1 0x0 DUP8 PUSH1 0x0 ADD MLOAD PUSH20 0xFFFFFFFFFFFFFFFFFFFFFFFFFFFFFFFFFFFFFFFF AND PUSH20 0xFFFFFFFFFFFFFFFFFFFFFFFFFFFFFFFFFFFFFFFF AND DUP2 MSTORE PUSH1 0x20 ADD SWAP1 DUP2 MSTORE PUSH1 0x20 ADD PUSH1 0x0 KECCAK256 PUSH1 0x0 DUP8 PUSH1 0x40 ADD MLOAD PUSH20 0xFFFFFFFFFFFFFFFFFFFFFFFFFFFFFFFFFFFFFFFF AND PUSH20 0xFFFFFFFFFFFFFFFFFFFFFFFFFFFFFFFFFFFFFFFF AND DUP2 MSTORE PUSH1 0x20 ADD SWAP1 DUP2 MSTORE PUSH1 0x20 ADD PUSH1 0x0 KECCAK256 SLOAD SWAP1 POP PUSH2 0x2768 DUP3 PUSH2 0x2763 PUSH2 0x2747 DUP10 PUSH1 0x40 ADD MLOAD DUP11 PUSH1 0x0 ADD MLOAD PUSH2 0x4281 JUMP JUMPDEST DUP5 DUP11 PUSH1 0xA0 ADD MLOAD PUSH4 0xFFFFFFFF AND PUSH1 0x1 DUP13 PUSH1 0xC0 ADD MLOAD PUSH1 0xFF AND EQ PUSH2 0x44C2 JUMP JUMPDEST PUSH2 0x4519 JUMP JUMPDEST SWAP5 POP POP POP POP POP JUMPDEST SWAP2 SWAP1 POP JUMP JUMPDEST PUSH2 0x277C PUSH2 0x464E JUMP JUMPDEST PUSH2 0x2786 DUP3 DUP3 PUSH2 0x4016 JUMP JUMPDEST DUP3 DUP2 PUSH1 0x40 ADD SWAP1 PUSH20 0xFFFFFFFFFFFFFFFFFFFFFFFFFFFFFFFFFFFFFFFF AND SWAP1 DUP2 PUSH20 0xFFFFFFFFFFFFFFFFFFFFFFFFFFFFFFFFFFFFFFFF AND DUP2 MSTORE POP POP DUP4 DUP2 PUSH1 0x60 ADD DUP2 DUP2 MSTORE POP POP PUSH2 0x27D1 DUP2 PUSH2 0x41C3 JUMP JUMPDEST PUSH1 0x0 PUSH1 0x40 MLOAD DUP1 DUP1 PUSH2 0x4785 PUSH1 0x42 SWAP2 CODECOPY PUSH1 0x42 ADD SWAP1 POP PUSH1 0x40 MLOAD DUP1 SWAP2 SUB SWAP1 KECCAK256 PUSH1 0x40 MLOAD DUP1 DUP1 PUSH32 0x5061726C65790000000000000000000000000000000000000000000000000000 DUP2 MSTORE POP PUSH1 0x6 ADD SWAP1 POP PUSH1 0x40 MLOAD DUP1 SWAP2 SUB SWAP1 KECCAK256 PUSH1 0x40 MLOAD DUP1 DUP1 PUSH32 0x312E300000000000000000000000000000000000000000000000000000000000 DUP2 MSTORE POP PUSH1 0x3 ADD SWAP1 POP PUSH1 0x40 MLOAD DUP1 SWAP2 SUB SWAP1 KECCAK256 PUSH20 0x888888E88E027E5585FA504954DAD6246271AA81 PUSH1 0x40 MLOAD PUSH1 0x20 ADD DUP1 DUP6 DUP2 MSTORE PUSH1 0x20 ADD DUP5 DUP2 MSTORE PUSH1 0x20 ADD DUP4 DUP2 MSTORE PUSH1 0x20 ADD DUP3 PUSH20 0xFFFFFFFFFFFFFFFFFFFFFFFFFFFFFFFFFFFFFFFF AND PUSH20 0xFFFFFFFFFFFFFFFFFFFFFFFFFFFFFFFFFFFFFFFF AND DUP2 MSTORE PUSH1 0x20 ADD SWAP5 POP POP POP POP POP PUSH1 0x40 MLOAD PUSH1 0x20 DUP2 DUP4 SUB SUB DUP2 MSTORE SWAP1 PUSH1 0x40 MSTORE DUP1 MLOAD SWAP1 PUSH1 0x20 ADD KECCAK256 PUSH1 0x40 MLOAD PUSH1 0x20 ADD DUP1 DUP1 PUSH32 0x4F72646572280000000000000000000000000000000000000000000000000000 DUP2 MSTORE POP PUSH1 0x6 ADD DUP1 PUSH32 0x61646472657373206D616B65722C000000000000000000000000000000000000 DUP2 MSTORE POP PUSH1 0xE ADD DUP1 PUSH32 0x616464726573732074616B65722C000000000000000000000000000000000000 DUP2 MSTORE POP PUSH1 0xE ADD DUP1 PUSH32 0x6164647265737320746F6B656E2C000000000000000000000000000000000000 DUP2 MSTORE POP PUSH1 0xE ADD DUP1 PUSH32 0x75696E74323536206D6174636849642C00000000000000000000000000000000 DUP2 MSTORE POP PUSH1 0x10 ADD DUP1 PUSH32 0x75696E7432353620616D6F756E742C0000000000000000000000000000000000 DUP2 MSTORE POP PUSH1 0xF ADD DUP1 PUSH32 0x75696E743235362070726963652C000000000000000000000000000000000000 DUP2 MSTORE POP PUSH1 0xE ADD DUP1 PUSH32 0x75696E7432353620646972656374696F6E2C0000000000000000000000000000 DUP2 MSTORE POP PUSH1 0x12 ADD DUP1 PUSH32 0x75696E74323536206578706972792C0000000000000000000000000000000000 DUP2 MSTORE POP PUSH1 0xF ADD DUP1 PUSH32 0x75696E743235362074696D657374616D702C0000000000000000000000000000 DUP2 MSTORE POP PUSH1 0x12 ADD DUP1 PUSH32 0x75696E74323536206F7264657247726F75700000000000000000000000000000 DUP2 MSTORE POP PUSH1 0x12 ADD DUP1 PUSH32 0x2900000000000000000000000000000000000000000000000000000000000000 DUP2 MSTORE POP PUSH1 0x1 ADD SWAP1 POP PUSH1 0x40 MLOAD PUSH1 0x20 DUP2 DUP4 SUB SUB DUP2 MSTORE SWAP1 PUSH1 0x40 MSTORE DUP1 MLOAD SWAP1 PUSH1 0x20 ADD KECCAK256 DUP4 PUSH1 0x0 ADD MLOAD DUP5 PUSH1 0x20 ADD MLOAD DUP6 PUSH1 0x40 ADD MLOAD DUP7 PUSH1 0x60 ADD MLOAD DUP8 PUSH1 0x80 ADD MLOAD DUP9 PUSH1 0xA0 ADD MLOAD PUSH4 0xFFFFFFFF AND DUP10 PUSH1 0xC0 ADD MLOAD PUSH1 0xFF AND DUP11 PUSH1 0xE0 ADD MLOAD DUP12 PUSH2 0x100 ADD MLOAD DUP13 PUSH2 0x120 ADD MLOAD PUSH1 0x40 MLOAD PUSH1 0x20 ADD DUP1 DUP13 DUP2 MSTORE PUSH1 0x20 ADD DUP12 PUSH20 0xFFFFFFFFFFFFFFFFFFFFFFFFFFFFFFFFFFFFFFFF AND PUSH20 0xFFFFFFFFFFFFFFFFFFFFFFFFFFFFFFFFFFFFFFFF AND DUP2 MSTORE PUSH1 0x20 ADD DUP11 PUSH20 0xFFFFFFFFFFFFFFFFFFFFFFFFFFFFFFFFFFFFFFFF AND PUSH20 0xFFFFFFFFFFFFFFFFFFFFFFFFFFFFFFFFFFFFFFFF AND DUP2 MSTORE PUSH1 0x20 ADD DUP10 PUSH20 0xFFFFFFFFFFFFFFFFFFFFFFFFFFFFFFFFFFFFFFFF AND PUSH20 0xFFFFFFFFFFFFFFFFFFFFFFFFFFFFFFFFFFFFFFFF AND DUP2 MSTORE PUSH1 0x20 ADD DUP9 DUP2 MSTORE PUSH1 0x20 ADD DUP8 DUP2 MSTORE PUSH1 0x20 ADD DUP7 DUP2 MSTORE PUSH1 0x20 ADD DUP6 DUP2 MSTORE PUSH1 0x20 ADD DUP5 DUP2 MSTORE PUSH1 0x20 ADD DUP4 DUP2 MSTORE PUSH1 0x20 ADD DUP3 DUP2 MSTORE PUSH1 0x20 ADD SWAP12 POP POP POP POP POP POP POP POP POP POP POP POP PUSH1 0x40 MLOAD PUSH1 0x20 DUP2 DUP4 SUB SUB DUP2 MSTORE SWAP1 PUSH1 0x40 MSTORE DUP1 MLOAD SWAP1 PUSH1 0x20 ADD KECCAK256 PUSH1 0x40 MLOAD PUSH1 0x20 ADD DUP1 DUP1 PUSH32 0x1901000000000000000000000000000000000000000000000000000000000000 DUP2 MSTORE POP PUSH1 0x2 ADD DUP4 DUP2 MSTORE PUSH1 0x20 ADD DUP3 DUP2 MSTORE PUSH1 0x20 ADD SWAP3 POP POP POP PUSH1 0x40 MLOAD PUSH1 0x20 DUP2 DUP4 SUB SUB DUP2 MSTORE SWAP1 PUSH1 0x40 MSTORE DUP1 MLOAD SWAP1 PUSH1 0x20 ADD KECCAK256 SWAP1 POP PUSH1 0x0 PUSH12 0x20000000000000000000000 DUP5 PUSH1 0x0 PUSH1 0x4 DUP2 LT PUSH2 0x2C73 JUMPI INVALID JUMPDEST PUSH1 0x20 MUL ADD MLOAD AND EQ PUSH2 0x2CD0 JUMPI DUP1 PUSH1 0x40 MLOAD PUSH1 0x20 ADD DUP1 DUP1 PUSH32 0x19457468657265756D205369676E6564204D6573736167653A0A333200000000 DUP2 MSTORE POP PUSH1 0x1C ADD DUP3 DUP2 MSTORE PUSH1 0x20 ADD SWAP2 POP POP PUSH1 0x40 MLOAD PUSH1 0x20 DUP2 DUP4 SUB SUB DUP2 MSTORE SWAP1 PUSH1 0x40 MSTORE DUP1 MLOAD SWAP1 PUSH1 0x20 ADD KECCAK256 SWAP1 POP JUMPDEST DUP2 PUSH1 0x0 ADD MLOAD PUSH20 0xFFFFFFFFFFFFFFFFFFFFFFFFFFFFFFFFFFFFFFFF AND PUSH2 0x2D18 DUP3 DUP6 PUSH1 0x2 PUSH1 0x4 DUP2 LT PUSH2 0x2CFC JUMPI INVALID JUMPDEST PUSH1 0x20 MUL ADD MLOAD DUP7 PUSH1 0x3 PUSH1 0x4 DUP2 LT PUSH2 0x2D0E JUMPI INVALID JUMPDEST PUSH1 0x20 MUL ADD MLOAD PUSH2 0x3F5E JUMP JUMPDEST PUSH20 0xFFFFFFFFFFFFFFFFFFFFFFFFFFFFFFFFFFFFFFFF AND EQ PUSH2 0x2DA1 JUMPI PUSH1 0x40 MLOAD PUSH32 0x8C379A000000000000000000000000000000000000000000000000000000000 DUP2 MSTORE PUSH1 0x4 ADD DUP1 DUP1 PUSH1 0x20 ADD DUP3 DUP2 SUB DUP3 MSTORE PUSH1 0x1C DUP2 MSTORE PUSH1 0x20 ADD DUP1 PUSH32 0x444552525F494E56414C49445F4F524445525F5349474E415455524500000000 DUP2 MSTORE POP PUSH1 0x20 ADD SWAP2 POP POP PUSH1 0x40 MLOAD DUP1 SWAP2 SUB SWAP1 REVERT JUMPDEST PUSH1 0x0 PUSH20 0xFFFFFFFFFFFFFFFFFFFFFFFFFFFFFFFFFFFFFFFF AND DUP3 PUSH1 0x20 ADD MLOAD PUSH20 0xFFFFFFFFFFFFFFFFFFFFFFFFFFFFFFFFFFFFFFFF AND EQ DUP1 PUSH2 0x2E0F JUMPI POP CALLER PUSH20 0xFFFFFFFFFFFFFFFFFFFFFFFFFFFFFFFFFFFFFFFF AND DUP3 PUSH1 0x20 ADD MLOAD PUSH20 0xFFFFFFFFFFFFFFFFFFFFFFFFFFFFFFFFFFFFFFFF AND EQ JUMPDEST PUSH2 0x2E81 JUMPI PUSH1 0x40 MLOAD PUSH32 0x8C379A000000000000000000000000000000000000000000000000000000000 DUP2 MSTORE PUSH1 0x4 ADD DUP1 DUP1 PUSH1 0x20 ADD DUP3 DUP2 SUB DUP3 MSTORE PUSH1 0x12 DUP2 MSTORE PUSH1 0x20 ADD DUP1 PUSH32 0x444552525F494E56414C49445F54414B45520000000000000000000000000000 DUP2 MSTORE POP PUSH1 0x20 ADD SWAP2 POP POP PUSH1 0x40 MLOAD DUP1 SWAP2 SUB SWAP1 REVERT JUMPDEST PUSH1 0x0 DUP3 PUSH1 0xA0 ADD MLOAD PUSH4 0xFFFFFFFF AND GT DUP1 ISZERO PUSH2 0x2EA8 JUMPI POP PUSH4 0x3B9ACA00 DUP3 PUSH1 0xA0 ADD MLOAD PUSH4 0xFFFFFFFF AND LT JUMPDEST PUSH2 0x2F1A JUMPI PUSH1 0x40 MLOAD PUSH32 0x8C379A000000000000000000000000000000000000000000000000000000000 DUP2 MSTORE PUSH1 0x4 ADD DUP1 DUP1 PUSH1 0x20 ADD DUP3 DUP2 SUB DUP3 MSTORE PUSH1 0x12 DUP2 MSTORE PUSH1 0x20 ADD DUP1 PUSH32 0x444552525F494E56414C49445F50524943450000000000000000000000000000 DUP2 MSTORE POP PUSH1 0x20 ADD SWAP2 POP POP PUSH1 0x40 MLOAD DUP1 SWAP2 SUB SWAP1 REVERT JUMPDEST PUSH1 0x2 DUP3 PUSH1 0xC0 ADD MLOAD PUSH1 0xFF AND LT PUSH2 0x2F97 JUMPI PUSH1 0x40 MLOAD PUSH32 0x8C379A000000000000000000000000000000000000000000000000000000000 DUP2 MSTORE PUSH1 0x4 ADD DUP1 DUP1 PUSH1 0x20 ADD DUP3 DUP2 SUB DUP3 MSTORE PUSH1 0x16 DUP2 MSTORE PUSH1 0x20 ADD DUP1 PUSH32 0x444552525F494E56414C49445F444952454354494F4E00000000000000000000 DUP2 MSTORE POP PUSH1 0x20 ADD SWAP2 POP POP PUSH1 0x40 MLOAD DUP1 SWAP2 SUB SWAP1 REVERT JUMPDEST POP SWAP4 SWAP3 POP POP POP JUMP JUMPDEST PUSH1 0x0 DUP1 PUSH1 0x1 DUP4 PUSH1 0xC0 ADD MLOAD PUSH1 0xFF AND EQ ISZERO PUSH2 0x2FF5 JUMPI PUSH1 0x0 DUP1 PUSH2 0x2FE2 PUSH2 0x2FC1 DUP7 PUSH2 0x25BD JUMP JUMPDEST PUSH16 0xFFFFFFFFFFFFFFFFFFFFFFFFFFFFFFFF DUP8 PUSH1 0xA0 ADD MLOAD PUSH4 0xFFFFFFFF AND PUSH2 0x4532 JUMP JUMPDEST SWAP2 POP SWAP2 POP DUP1 DUP3 ADD DUP2 SWAP4 POP SWAP4 POP POP POP PUSH2 0x3034 JUMP JUMPDEST PUSH1 0x0 DUP1 PUSH2 0x3025 PUSH16 0xFFFFFFFFFFFFFFFFFFFFFFFFFFFFFFFF PUSH2 0x3015 DUP8 PUSH2 0x25BD JUMP JUMPDEST DUP8 PUSH1 0xA0 ADD MLOAD PUSH4 0xFFFFFFFF AND PUSH2 0x4532 JUMP JUMPDEST SWAP2 POP SWAP2 POP DUP1 DUP3 ADD DUP3 SWAP4 POP SWAP4 POP POP POP JUMPDEST SWAP2 POP SWAP2 JUMP JUMPDEST PUSH1 0x0 DUP1 DUP4 SLT ISZERO PUSH2 0x3045 JUMPI INVALID JUMPDEST PUSH4 0x3B9ACA00 PUSH2 0x3054 DUP5 DUP5 PUSH2 0x459D JUMP JUMPDEST DUP2 PUSH2 0x305B JUMPI INVALID JUMPDEST DIV SWAP1 POP SWAP3 SWAP2 POP POP JUMP JUMPDEST PUSH2 0x306C PUSH2 0x46F3 JUMP JUMPDEST PUSH1 0x0 DUP2 PUSH1 0x0 ADD SWAP1 PUSH1 0xA DUP2 GT ISZERO PUSH2 0x307E JUMPI INVALID JUMPDEST SWAP1 DUP2 PUSH1 0xA DUP2 GT ISZERO PUSH2 0x308B JUMPI INVALID JUMPDEST DUP2 MSTORE POP POP DUP3 PUSH1 0xE0 ADD MLOAD TIMESTAMP LT PUSH2 0x30C5 JUMPI PUSH1 0x7 DUP2 PUSH1 0x0 ADD SWAP1 PUSH1 0xA DUP2 GT ISZERO PUSH2 0x30AC JUMPI INVALID JUMPDEST SWAP1 DUP2 PUSH1 0xA DUP2 GT ISZERO PUSH2 0x30B9 JUMPI INVALID JUMPDEST DUP2 MSTORE POP POP DUP1 SWAP1 POP PUSH2 0x391D JUMP JUMPDEST PUSH1 0x0 PUSH1 0x1 PUSH1 0x0 DUP6 PUSH2 0x140 ADD MLOAD DUP2 MSTORE PUSH1 0x20 ADD SWAP1 DUP2 MSTORE PUSH1 0x20 ADD PUSH1 0x0 KECCAK256 SLOAD SWAP1 POP DUP4 PUSH2 0x100 ADD MLOAD PUSH1 0x2 PUSH1 0x0 DUP7 PUSH1 0x0 ADD MLOAD PUSH20 0xFFFFFFFFFFFFFFFFFFFFFFFFFFFFFFFFFFFFFFFF AND PUSH20 0xFFFFFFFFFFFFFFFFFFFFFFFFFFFFFFFFFFFFFFFF AND DUP2 MSTORE PUSH1 0x20 ADD SWAP1 DUP2 MSTORE PUSH1 0x20 ADD PUSH1 0x0 KECCAK256 SLOAD LT ISZERO DUP1 PUSH2 0x3158 JUMPI POP PUSH32 0xFFFFFFFFFFFFFFFFFFFFFFFFFFFFFFFFFFFFFFFFFFFFFFFFFFFFFFFFFFFFFFFF DUP2 EQ JUMPDEST ISZERO PUSH2 0x3189 JUMPI PUSH1 0x8 DUP3 PUSH1 0x0 ADD SWAP1 PUSH1 0xA DUP2 GT ISZERO PUSH2 0x316F JUMPI INVALID JUMPDEST SWAP1 DUP2 PUSH1 0xA DUP2 GT ISZERO PUSH2 0x317C JUMPI INVALID JUMPDEST DUP2 MSTORE POP POP DUP2 SWAP2 POP POP PUSH2 0x391D JUMP JUMPDEST DUP4 PUSH1 0x0 ADD MLOAD PUSH20 0xFFFFFFFFFFFFFFFFFFFFFFFFFFFFFFFFFFFFFFFF AND CALLER PUSH20 0xFFFFFFFFFFFFFFFFFFFFFFFFFFFFFFFFFFFFFFFF AND EQ ISZERO PUSH2 0x31ED JUMPI PUSH1 0xA DUP3 PUSH1 0x0 ADD SWAP1 PUSH1 0xA DUP2 GT ISZERO PUSH2 0x31D3 JUMPI INVALID JUMPDEST SWAP1 DUP2 PUSH1 0xA DUP2 GT ISZERO PUSH2 0x31E0 JUMPI INVALID JUMPDEST DUP2 MSTORE POP POP DUP2 SWAP2 POP POP PUSH2 0x391D JUMP JUMPDEST PUSH16 0xFFFFFFFFFFFFFFFFFFFFFFFFFFFFFFFF DUP6 GT ISZERO PUSH2 0x3231 JUMPI PUSH1 0x9 DUP3 PUSH1 0x0 ADD SWAP1 PUSH1 0xA DUP2 GT ISZERO PUSH2 0x3217 JUMPI INVALID JUMPDEST SWAP1 DUP2 PUSH1 0xA DUP2 GT ISZERO PUSH2 0x3224 JUMPI INVALID JUMPDEST DUP2 MSTORE POP POP DUP2 SWAP2 POP POP PUSH2 0x391D JUMP JUMPDEST PUSH1 0x0 DUP1 PUSH1 0x0 DUP7 PUSH1 0x60 ADD MLOAD DUP2 MSTORE PUSH1 0x20 ADD SWAP1 DUP2 MSTORE PUSH1 0x20 ADD PUSH1 0x0 KECCAK256 SWAP1 POP DUP1 PUSH1 0x1 ADD PUSH1 0x0 SWAP1 SLOAD SWAP1 PUSH2 0x100 EXP SWAP1 DIV PUSH1 0xFF AND ISZERO PUSH2 0x328F JUMPI PUSH1 0x4 DUP4 PUSH1 0x0 ADD SWAP1 PUSH1 0xA DUP2 GT ISZERO PUSH2 0x3274 JUMPI INVALID JUMPDEST SWAP1 DUP2 PUSH1 0xA DUP2 GT ISZERO PUSH2 0x3281 JUMPI INVALID JUMPDEST DUP2 MSTORE POP POP DUP3 SWAP3 POP POP POP PUSH2 0x391D JUMP JUMPDEST PUSH1 0x0 DUP1 PUSH1 0x0 DUP1 PUSH1 0x0 DUP10 PUSH1 0xC0 ADD MLOAD PUSH1 0xFF AND EQ ISZERO PUSH2 0x3375 JUMPI CALLER DUP8 PUSH1 0x20 ADD SWAP1 PUSH20 0xFFFFFFFFFFFFFFFFFFFFFFFFFFFFFFFFFFFFFFFF AND SWAP1 DUP2 PUSH20 0xFFFFFFFFFFFFFFFFFFFFFFFFFFFFFFFFFFFFFFFF AND DUP2 MSTORE POP POP DUP10 SWAP4 POP DUP9 PUSH1 0x0 ADD MLOAD DUP8 PUSH1 0x40 ADD SWAP1 PUSH20 0xFFFFFFFFFFFFFFFFFFFFFFFFFFFFFFFFFFFFFFFF AND SWAP1 DUP2 PUSH20 0xFFFFFFFFFFFFFFFFFFFFFFFFFFFFFFFFFFFFFFFF AND DUP2 MSTORE POP POP PUSH2 0x332A DUP10 PUSH1 0x80 ADD MLOAD DUP8 PUSH2 0x3FFF JUMP JUMPDEST SWAP3 POP DUP8 PUSH2 0x3348 JUMPI PUSH2 0x3343 DUP10 PUSH1 0x40 ADD MLOAD DUP9 PUSH1 0x20 ADD MLOAD PUSH2 0x4281 JUMP JUMPDEST PUSH2 0x335A JUMP JUMPDEST PUSH16 0xFFFFFFFFFFFFFFFFFFFFFFFFFFFFFFFF JUMPDEST SWAP2 POP PUSH2 0x336E DUP10 PUSH1 0x40 ADD MLOAD DUP9 PUSH1 0x40 ADD MLOAD PUSH2 0x4281 JUMP JUMPDEST SWAP1 POP PUSH2 0x3441 JUMP JUMPDEST DUP9 PUSH1 0x0 ADD MLOAD DUP8 PUSH1 0x20 ADD SWAP1 PUSH20 0xFFFFFFFFFFFFFFFFFFFFFFFFFFFFFFFFFFFFFFFF AND SWAP1 DUP2 PUSH20 0xFFFFFFFFFFFFFFFFFFFFFFFFFFFFFFFFFFFFFFFF AND DUP2 MSTORE POP POP PUSH2 0x33BF DUP10 PUSH1 0x80 ADD MLOAD DUP8 PUSH2 0x3FFF JUMP JUMPDEST SWAP4 POP CALLER DUP8 PUSH1 0x40 ADD SWAP1 PUSH20 0xFFFFFFFFFFFFFFFFFFFFFFFFFFFFFFFFFFFFFFFF AND SWAP1 DUP2 PUSH20 0xFFFFFFFFFFFFFFFFFFFFFFFFFFFFFFFFFFFFFFFF AND DUP2 MSTORE POP POP DUP10 SWAP3 POP PUSH2 0x340E DUP10 PUSH1 0x40 ADD MLOAD DUP9 PUSH1 0x20 ADD MLOAD PUSH2 0x4281 JUMP JUMPDEST SWAP2 POP DUP8 PUSH2 0x342C JUMPI PUSH2 0x3427 DUP10 PUSH1 0x40 ADD MLOAD DUP9 PUSH1 0x40 ADD MLOAD PUSH2 0x4281 JUMP JUMPDEST PUSH2 0x343E JUMP JUMPDEST PUSH16 0xFFFFFFFFFFFFFFFFFFFFFFFFFFFFFFFF JUMPDEST SWAP1 POP JUMPDEST PUSH1 0x0 DUP6 PUSH1 0x0 ADD PUSH1 0x0 DUP10 PUSH1 0x20 ADD MLOAD PUSH20 0xFFFFFFFFFFFFFFFFFFFFFFFFFFFFFFFFFFFFFFFF AND PUSH20 0xFFFFFFFFFFFFFFFFFFFFFFFFFFFFFFFFFFFFFFFF AND DUP2 MSTORE PUSH1 0x20 ADD SWAP1 DUP2 MSTORE PUSH1 0x20 ADD PUSH1 0x0 KECCAK256 PUSH1 0x0 DUP12 PUSH1 0x40 ADD MLOAD PUSH20 0xFFFFFFFFFFFFFFFFFFFFFFFFFFFFFFFFFFFFFFFF AND PUSH20 0xFFFFFFFFFFFFFFFFFFFFFFFFFFFFFFFFFFFFFFFF AND DUP2 MSTORE PUSH1 0x20 ADD SWAP1 DUP2 MSTORE PUSH1 0x20 ADD PUSH1 0x0 KECCAK256 SLOAD SWAP1 POP PUSH1 0x0 DUP7 PUSH1 0x0 ADD PUSH1 0x0 DUP11 PUSH1 0x40 ADD MLOAD PUSH20 0xFFFFFFFFFFFFFFFFFFFFFFFFFFFFFFFFFFFFFFFF AND PUSH20 0xFFFFFFFFFFFFFFFFFFFFFFFFFFFFFFFFFFFFFFFF AND DUP2 MSTORE PUSH1 0x20 ADD SWAP1 DUP2 MSTORE PUSH1 0x20 ADD PUSH1 0x0 KECCAK256 PUSH1 0x0 DUP13 PUSH1 0x40 ADD MLOAD PUSH20 0xFFFFFFFFFFFFFFFFFFFFFFFFFFFFFFFFFFFFFFFF AND PUSH20 0xFFFFFFFFFFFFFFFFFFFFFFFFFFFFFFFFFFFFFFFF AND DUP2 MSTORE PUSH1 0x20 ADD SWAP1 DUP2 MSTORE PUSH1 0x20 ADD PUSH1 0x0 KECCAK256 SLOAD SWAP1 POP PUSH2 0x3577 DUP7 PUSH2 0x3572 DUP7 DUP6 DUP16 PUSH1 0xA0 ADD MLOAD PUSH4 0xFFFFFFFF AND PUSH1 0x1 PUSH2 0x44C2 JUMP JUMPDEST PUSH2 0x4519 JUMP JUMPDEST SWAP6 POP PUSH2 0x3599 DUP6 PUSH2 0x3594 DUP6 DUP5 DUP16 PUSH1 0xA0 ADD MLOAD PUSH4 0xFFFFFFFF AND PUSH1 0x0 PUSH2 0x44C2 JUMP JUMPDEST PUSH2 0x4519 JUMP JUMPDEST SWAP5 POP PUSH1 0x2 DUP7 LT ISZERO PUSH2 0x35EE JUMPI PUSH1 0x0 DUP12 PUSH1 0xC0 ADD MLOAD PUSH1 0xFF AND EQ PUSH2 0x35BA JUMPI PUSH1 0x6 PUSH2 0x35BD JUMP JUMPDEST PUSH1 0x2 JUMPDEST DUP10 PUSH1 0x0 ADD SWAP1 PUSH1 0xA DUP2 GT ISZERO PUSH2 0x35CD JUMPI INVALID JUMPDEST SWAP1 DUP2 PUSH1 0xA DUP2 GT ISZERO PUSH2 0x35DA JUMPI INVALID JUMPDEST DUP2 MSTORE POP POP DUP9 SWAP9 POP POP POP POP POP POP POP POP POP PUSH2 0x391D JUMP JUMPDEST PUSH1 0x2 DUP6 LT ISZERO PUSH2 0x3641 JUMPI PUSH1 0x0 DUP12 PUSH1 0xC0 ADD MLOAD PUSH1 0xFF AND EQ PUSH2 0x360D JUMPI PUSH1 0x2 PUSH2 0x3610 JUMP JUMPDEST PUSH1 0x6 JUMPDEST DUP10 PUSH1 0x0 ADD SWAP1 PUSH1 0xA DUP2 GT ISZERO PUSH2 0x3620 JUMPI INVALID JUMPDEST SWAP1 DUP2 PUSH1 0xA DUP2 GT ISZERO PUSH2 0x362D JUMPI INVALID JUMPDEST DUP2 MSTORE POP POP DUP9 SWAP9 POP POP POP POP POP POP POP POP POP PUSH2 0x391D JUMP JUMPDEST PUSH2 0x3656 DUP7 DUP7 DUP14 PUSH1 0xA0 ADD MLOAD PUSH4 0xFFFFFFFF AND PUSH2 0x4532 JUMP JUMPDEST DUP1 SWAP7 POP DUP2 SWAP8 POP POP POP PUSH1 0x2 DUP7 LT DUP1 PUSH2 0x366D JUMPI POP PUSH1 0x2 DUP6 LT JUMPDEST ISZERO PUSH2 0x36A5 JUMPI PUSH1 0x5 DUP10 PUSH1 0x0 ADD SWAP1 PUSH1 0xA DUP2 GT ISZERO PUSH2 0x3684 JUMPI INVALID JUMPDEST SWAP1 DUP2 PUSH1 0xA DUP2 GT ISZERO PUSH2 0x3691 JUMPI INVALID JUMPDEST DUP2 MSTORE POP POP DUP9 SWAP9 POP POP POP POP POP POP POP POP POP PUSH2 0x391D JUMP JUMPDEST PUSH1 0x0 DUP6 DUP8 ADD DUP4 ADD SWAP1 POP PUSH1 0x0 DUP7 DUP9 ADD DUP4 SUB SWAP1 POP PUSH1 0x0 DUP12 PUSH1 0xA0 ADD DUP2 DUP2 MSTORE POP POP PUSH1 0x0 DUP12 PUSH1 0xC0 ADD DUP2 DUP2 MSTORE POP POP PUSH1 0x0 DUP5 SLT ISZERO PUSH2 0x370F JUMPI PUSH2 0x36FF PUSH2 0x36E4 PUSH1 0x0 DUP5 PUSH2 0x45CC JUMP JUMPDEST DUP6 PUSH1 0x0 SUB ADD DUP15 PUSH1 0xA0 ADD MLOAD PUSH4 0xFFFFFFFF AND PUSH4 0x3B9ACA00 SUB PUSH2 0x3039 JUMP JUMPDEST DUP12 PUSH1 0xA0 ADD DUP2 DUP2 MLOAD ADD SWAP2 POP DUP2 DUP2 MSTORE POP POP JUMPDEST PUSH1 0x0 DUP3 SGT ISZERO PUSH2 0x3748 JUMPI PUSH2 0x3738 PUSH2 0x3726 PUSH1 0x0 DUP7 PUSH2 0x45E5 JUMP JUMPDEST DUP4 SUB DUP15 PUSH1 0xA0 ADD MLOAD PUSH4 0xFFFFFFFF AND PUSH2 0x3039 JUMP JUMPDEST DUP12 PUSH1 0xA0 ADD DUP2 DUP2 MLOAD SUB SWAP2 POP DUP2 DUP2 MSTORE POP POP JUMPDEST PUSH1 0x0 DUP4 SGT ISZERO PUSH2 0x3781 JUMPI PUSH2 0x3771 PUSH2 0x375F PUSH1 0x0 DUP4 PUSH2 0x45E5 JUMP JUMPDEST DUP5 SUB DUP15 PUSH1 0xA0 ADD MLOAD PUSH4 0xFFFFFFFF AND PUSH2 0x3039 JUMP JUMPDEST DUP12 PUSH1 0xC0 ADD DUP2 DUP2 MLOAD ADD SWAP2 POP DUP2 DUP2 MSTORE POP POP JUMPDEST PUSH1 0x0 DUP2 SLT ISZERO PUSH2 0x37C3 JUMPI PUSH2 0x37B3 PUSH2 0x3798 PUSH1 0x0 DUP6 PUSH2 0x45CC JUMP JUMPDEST DUP3 PUSH1 0x0 SUB ADD DUP15 PUSH1 0xA0 ADD MLOAD PUSH4 0xFFFFFFFF AND PUSH4 0x3B9ACA00 SUB PUSH2 0x3039 JUMP JUMPDEST DUP12 PUSH1 0xC0 ADD DUP2 DUP2 MLOAD SUB SWAP2 POP DUP2 DUP2 MSTORE POP POP JUMPDEST PUSH1 0x0 PUSH2 0x37DB DUP13 PUSH1 0xA0 ADD MLOAD DUP14 PUSH1 0xC0 ADD MLOAD DUP8 DUP7 DUP9 DUP8 PUSH2 0x45FF JUMP JUMPDEST SWAP1 POP PUSH1 0x0 DUP2 EQ PUSH2 0x386E JUMPI PUSH1 0x1 DUP2 EQ ISZERO PUSH2 0x3804 JUMPI DUP3 DUP1 PUSH1 0x1 SWAP1 SUB SWAP4 POP POP DUP2 DUP1 PUSH1 0x1 ADD SWAP3 POP POP PUSH2 0x384B JUMP JUMPDEST PUSH32 0xFFFFFFFFFFFFFFFFFFFFFFFFFFFFFFFFFFFFFFFFFFFFFFFFFFFFFFFFFFFFFFFF DUP2 EQ ISZERO PUSH2 0x3841 JUMPI DUP12 PUSH1 0xA0 ADD DUP1 MLOAD DUP1 SWAP2 SWAP1 PUSH1 0x1 ADD DUP2 MSTORE POP POP PUSH2 0x384A JUMP JUMPDEST PUSH1 0x0 PUSH2 0x3849 JUMPI INVALID JUMPDEST JUMPDEST JUMPDEST PUSH2 0x3861 DUP13 PUSH1 0xA0 ADD MLOAD DUP14 PUSH1 0xC0 ADD MLOAD DUP8 DUP7 DUP9 DUP8 PUSH2 0x45FF JUMP JUMPDEST SWAP1 POP PUSH1 0x0 DUP2 EQ PUSH2 0x386D JUMPI INVALID JUMPDEST JUMPDEST PUSH1 0x1 DUP13 PUSH1 0x0 ADD SWAP1 PUSH1 0xA DUP2 GT ISZERO PUSH2 0x3880 JUMPI INVALID JUMPDEST SWAP1 DUP2 PUSH1 0xA DUP2 GT ISZERO PUSH2 0x388D JUMPI INVALID JUMPDEST DUP2 MSTORE POP POP DUP3 DUP13 PUSH1 0x60 ADD DUP2 DUP2 MSTORE POP POP DUP2 DUP13 PUSH1 0x80 ADD DUP2 DUP2 MSTORE POP POP DUP8 DUP13 PUSH1 0xE0 ADD DUP2 DUP2 MSTORE POP POP DUP9 DUP13 PUSH2 0x100 ADD DUP2 DUP2 MSTORE POP POP PUSH1 0x0 DUP15 PUSH1 0xC0 ADD MLOAD PUSH1 0xFF AND EQ ISZERO PUSH2 0x38EE JUMPI DUP12 PUSH2 0x100 ADD MLOAD DUP13 PUSH2 0x120 ADD DUP2 DUP2 MSTORE POP POP DUP12 PUSH1 0xE0 ADD MLOAD DUP13 PUSH2 0x140 ADD DUP2 DUP2 MSTORE POP POP PUSH2 0x390E JUMP JUMPDEST DUP12 PUSH1 0xE0 ADD MLOAD DUP13 PUSH2 0x120 ADD DUP2 DUP2 MSTORE POP POP DUP12 PUSH2 0x100 ADD MLOAD DUP13 PUSH2 0x140 ADD DUP2 DUP2 MSTORE POP POP JUMPDEST DUP12 SWAP12 POP POP POP POP POP POP POP POP POP POP POP POP JUMPDEST SWAP4 SWAP3 POP POP POP JUMP JUMPDEST PUSH1 0x1 PUSH1 0xA DUP2 GT ISZERO PUSH2 0x3931 JUMPI INVALID JUMPDEST DUP2 PUSH1 0x0 ADD MLOAD PUSH1 0xA DUP2 GT ISZERO PUSH2 0x3941 JUMPI INVALID JUMPDEST EQ PUSH2 0x3948 JUMPI INVALID JUMPDEST PUSH1 0x0 DUP1 PUSH1 0x0 DUP5 PUSH1 0x60 ADD MLOAD DUP2 MSTORE PUSH1 0x20 ADD SWAP1 DUP2 MSTORE PUSH1 0x20 ADD PUSH1 0x0 KECCAK256 SWAP1 POP DUP2 PUSH1 0x60 ADD MLOAD DUP2 PUSH1 0x0 ADD PUSH1 0x0 DUP5 PUSH1 0x20 ADD MLOAD PUSH20 0xFFFFFFFFFFFFFFFFFFFFFFFFFFFFFFFFFFFFFFFF AND PUSH20 0xFFFFFFFFFFFFFFFFFFFFFFFFFFFFFFFFFFFFFFFF AND DUP2 MSTORE PUSH1 0x20 ADD SWAP1 DUP2 MSTORE PUSH1 0x20 ADD PUSH1 0x0 KECCAK256 PUSH1 0x0 DUP6 PUSH1 0x40 ADD MLOAD PUSH20 0xFFFFFFFFFFFFFFFFFFFFFFFFFFFFFFFFFFFFFFFF AND PUSH20 0xFFFFFFFFFFFFFFFFFFFFFFFFFFFFFFFFFFFFFFFF AND DUP2 MSTORE PUSH1 0x20 ADD SWAP1 DUP2 MSTORE PUSH1 0x20 ADD PUSH1 0x0 KECCAK256 DUP2 SWAP1 SSTORE POP DUP2 PUSH1 0x80 ADD MLOAD DUP2 PUSH1 0x0 ADD PUSH1 0x0 DUP5 PUSH1 0x40 ADD MLOAD PUSH20 0xFFFFFFFFFFFFFFFFFFFFFFFFFFFFFFFFFFFFFFFF AND PUSH20 0xFFFFFFFFFFFFFFFFFFFFFFFFFFFFFFFFFFFFFFFF AND DUP2 MSTORE PUSH1 0x20 ADD SWAP1 DUP2 MSTORE PUSH1 0x20 ADD PUSH1 0x0 KECCAK256 PUSH1 0x0 DUP6 PUSH1 0x40 ADD MLOAD PUSH20 0xFFFFFFFFFFFFFFFFFFFFFFFFFFFFFFFFFFFFFFFF AND PUSH20 0xFFFFFFFFFFFFFFFFFFFFFFFFFFFFFFFFFFFFFFFF AND DUP2 MSTORE PUSH1 0x20 ADD SWAP1 DUP2 MSTORE PUSH1 0x20 ADD PUSH1 0x0 KECCAK256 DUP2 SWAP1 SSTORE POP POP POP POP JUMP JUMPDEST PUSH1 0x0 DUP2 SGT ISZERO PUSH2 0x3BC7 JUMPI DUP3 PUSH20 0xFFFFFFFFFFFFFFFFFFFFFFFFFFFFFFFFFFFFFFFF AND PUSH4 0xA9059CBB DUP4 DUP4 PUSH1 0x40 MLOAD DUP4 PUSH4 0xFFFFFFFF AND PUSH1 0xE0 SHL DUP2 MSTORE PUSH1 0x4 ADD DUP1 DUP4 PUSH20 0xFFFFFFFFFFFFFFFFFFFFFFFFFFFFFFFFFFFFFFFF AND PUSH20 0xFFFFFFFFFFFFFFFFFFFFFFFFFFFFFFFFFFFFFFFF AND DUP2 MSTORE PUSH1 0x20 ADD DUP3 DUP2 MSTORE PUSH1 0x20 ADD SWAP3 POP POP POP PUSH1 0x20 PUSH1 0x40 MLOAD DUP1 DUP4 SUB DUP2 PUSH1 0x0 DUP8 DUP1 EXTCODESIZE ISZERO DUP1 ISZERO PUSH2 0x3B15 JUMPI PUSH1 0x0 DUP1 REVERT JUMPDEST POP GAS CALL ISZERO DUP1 ISZERO PUSH2 0x3B29 JUMPI RETURNDATASIZE PUSH1 0x0 DUP1 RETURNDATACOPY RETURNDATASIZE PUSH1 0x0 REVERT JUMPDEST POP POP POP POP PUSH1 0x40 MLOAD RETURNDATASIZE PUSH1 0x20 DUP2 LT ISZERO PUSH2 0x3B3F JUMPI PUSH1 0x0 DUP1 REVERT JUMPDEST DUP2 ADD SWAP1 DUP1 DUP1 MLOAD SWAP1 PUSH1 0x20 ADD SWAP1 SWAP3 SWAP2 SWAP1 POP POP POP PUSH2 0x3BC2 JUMPI PUSH1 0x40 MLOAD PUSH32 0x8C379A000000000000000000000000000000000000000000000000000000000 DUP2 MSTORE PUSH1 0x4 ADD DUP1 DUP1 PUSH1 0x20 ADD DUP3 DUP2 SUB DUP3 MSTORE PUSH1 0x18 DUP2 MSTORE PUSH1 0x20 ADD DUP1 PUSH32 0x444552525F544F4B454E5F5452414E534645525F4641494C0000000000000000 DUP2 MSTORE POP PUSH1 0x20 ADD SWAP2 POP POP PUSH1 0x40 MLOAD DUP1 SWAP2 SUB SWAP1 REVERT JUMPDEST PUSH2 0x3D5C JUMP JUMPDEST PUSH1 0x0 DUP2 SLT ISZERO PUSH2 0x3D5B JUMPI DUP3 PUSH20 0xFFFFFFFFFFFFFFFFFFFFFFFFFFFFFFFFFFFFFFFF AND PUSH4 0x23B872DD DUP4 ADDRESS DUP5 PUSH32 0xFFFFFFFFFFFFFFFFFFFFFFFFFFFFFFFFFFFFFFFFFFFFFFFFFFFFFFFFFFFFFFFF MUL PUSH1 0x40 MLOAD DUP5 PUSH4 0xFFFFFFFF AND PUSH1 0xE0 SHL DUP2 MSTORE PUSH1 0x4 ADD DUP1 DUP5 PUSH20 0xFFFFFFFFFFFFFFFFFFFFFFFFFFFFFFFFFFFFFFFF AND PUSH20 0xFFFFFFFFFFFFFFFFFFFFFFFFFFFFFFFFFFFFFFFF AND DUP2 MSTORE PUSH1 0x20 ADD DUP4 PUSH20 0xFFFFFFFFFFFFFFFFFFFFFFFFFFFFFFFFFFFFFFFF AND PUSH20 0xFFFFFFFFFFFFFFFFFFFFFFFFFFFFFFFFFFFFFFFF AND DUP2 MSTORE PUSH1 0x20 ADD DUP3 DUP2 MSTORE PUSH1 0x20 ADD SWAP4 POP POP POP POP PUSH1 0x20 PUSH1 0x40 MLOAD DUP1 DUP4 SUB DUP2 PUSH1 0x0 DUP8 DUP1 EXTCODESIZE ISZERO DUP1 ISZERO PUSH2 0x3CAD JUMPI PUSH1 0x0 DUP1 REVERT JUMPDEST POP GAS CALL ISZERO DUP1 ISZERO PUSH2 0x3CC1 JUMPI RETURNDATASIZE PUSH1 0x0 DUP1 RETURNDATACOPY RETURNDATASIZE PUSH1 0x0 REVERT JUMPDEST POP POP POP POP PUSH1 0x40 MLOAD RETURNDATASIZE PUSH1 0x20 DUP2 LT ISZERO PUSH2 0x3CD7 JUMPI PUSH1 0x0 DUP1 REVERT JUMPDEST DUP2 ADD SWAP1 DUP1 DUP1 MLOAD SWAP1 PUSH1 0x20 ADD SWAP1 SWAP3 SWAP2 SWAP1 POP POP POP PUSH2 0x3D5A JUMPI PUSH1 0x40 MLOAD PUSH32 0x8C379A000000000000000000000000000000000000000000000000000000000 DUP2 MSTORE PUSH1 0x4 ADD DUP1 DUP1 PUSH1 0x20 ADD DUP3 DUP2 SUB DUP3 MSTORE PUSH1 0x1C DUP2 MSTORE PUSH1 0x20 ADD DUP1 PUSH32 0x444552525F544F4B454E5F5452414E5346455246524F4D5F4641494C00000000 DUP2 MSTORE POP PUSH1 0x20 ADD SWAP2 POP POP PUSH1 0x40 MLOAD DUP1 SWAP2 SUB SWAP1 REVERT JUMPDEST JUMPDEST JUMPDEST POP POP POP JUMP JUMPDEST PUSH1 0x1 PUSH1 0xA DUP2 GT ISZERO PUSH2 0x3D6E JUMPI INVALID JUMPDEST DUP2 PUSH1 0x0 ADD MLOAD PUSH1 0xA DUP2 GT ISZERO PUSH2 0x3D7E JUMPI INVALID JUMPDEST EQ PUSH2 0x3D85 JUMPI INVALID JUMPDEST DUP1 PUSH1 0xC0 ADD MLOAD DUP2 PUSH1 0xA0 ADD MLOAD SLT ISZERO PUSH2 0x3DC8 JUMPI PUSH2 0x3DAC DUP3 PUSH1 0x40 ADD MLOAD DUP3 PUSH1 0x20 ADD MLOAD DUP4 PUSH1 0xA0 ADD MLOAD PUSH2 0x3A85 JUMP JUMPDEST PUSH2 0x3DC3 DUP3 PUSH1 0x40 ADD MLOAD DUP3 PUSH1 0x40 ADD MLOAD DUP4 PUSH1 0xC0 ADD MLOAD PUSH2 0x3A85 JUMP JUMPDEST PUSH2 0x3DF7 JUMP JUMPDEST PUSH2 0x3DDF DUP3 PUSH1 0x40 ADD MLOAD DUP3 PUSH1 0x40 ADD MLOAD DUP4 PUSH1 0xC0 ADD MLOAD PUSH2 0x3A85 JUMP JUMPDEST PUSH2 0x3DF6 DUP3 PUSH1 0x40 ADD MLOAD DUP3 PUSH1 0x20 ADD MLOAD DUP4 PUSH1 0xA0 ADD MLOAD PUSH2 0x3A85 JUMP JUMPDEST JUMPDEST PUSH1 0x0 DUP3 PUSH1 0xC0 ADD MLOAD PUSH1 0xFF AND EQ PUSH2 0x3E11 JUMPI DUP1 PUSH2 0x100 ADD MLOAD PUSH2 0x3E17 JUMP JUMPDEST DUP1 PUSH1 0xE0 ADD MLOAD JUMPDEST PUSH1 0x1 PUSH1 0x0 DUP5 PUSH2 0x140 ADD MLOAD DUP2 MSTORE PUSH1 0x20 ADD SWAP1 DUP2 MSTORE PUSH1 0x20 ADD PUSH1 0x0 KECCAK256 PUSH1 0x0 DUP3 DUP3 SLOAD ADD SWAP3 POP POP DUP2 SWAP1 SSTORE POP DUP2 PUSH1 0x60 ADD MLOAD DUP3 PUSH1 0x0 ADD MLOAD PUSH20 0xFFFFFFFFFFFFFFFFFFFFFFFFFFFFFFFFFFFFFFFF AND CALLER PUSH20 0xFFFFFFFFFFFFFFFFFFFFFFFFFFFFFFFFFFFFFFFF AND PUSH32 0xDC13589835B7BDC7FF3BBF712A59927511E18E82E9EC9231372692090E1C09F1 DUP6 PUSH1 0x40 ADD MLOAD DUP7 PUSH2 0x140 ADD MLOAD DUP8 PUSH1 0xC0 ADD MLOAD DUP9 PUSH1 0xA0 ADD MLOAD DUP9 PUSH2 0x100 ADD MLOAD DUP10 PUSH1 0x60 ADD MLOAD DUP11 PUSH1 0xE0 ADD MLOAD DUP12 PUSH1 0x80 ADD MLOAD DUP13 PUSH1 0xA0 ADD MLOAD DUP14 PUSH1 0xC0 ADD MLOAD PUSH1 0x40 MLOAD DUP1 DUP12 PUSH20 0xFFFFFFFFFFFFFFFFFFFFFFFFFFFFFFFFFFFFFFFF AND PUSH20 0xFFFFFFFFFFFFFFFFFFFFFFFFFFFFFFFFFFFFFFFF AND DUP2 MSTORE PUSH1 0x20 ADD DUP11 DUP2 MSTORE PUSH1 0x20 ADD DUP10 PUSH1 0xFF AND PUSH1 0xFF AND DUP2 MSTORE PUSH1 0x20 ADD DUP9 PUSH4 0xFFFFFFFF AND PUSH4 0xFFFFFFFF AND DUP2 MSTORE PUSH1 0x20 ADD DUP8 DUP2 MSTORE PUSH1 0x20 ADD DUP7 DUP2 MSTORE PUSH1 0x20 ADD DUP6 DUP2 MSTORE PUSH1 0x20 ADD DUP5 DUP2 MSTORE PUSH1 0x20 ADD DUP4 DUP2 MSTORE PUSH1 0x20 ADD DUP3 DUP2 MSTORE PUSH1 0x20 ADD SWAP11 POP POP POP POP POP POP POP POP POP POP POP PUSH1 0x40 MLOAD DUP1 SWAP2 SUB SWAP1 LOG4 POP POP JUMP JUMPDEST PUSH1 0x0 PUSH1 0x1 DUP5 PUSH1 0xFF DUP5 SWAP1 SHR PUSH1 0x1B ADD DUP6 PUSH1 0x0 SHL PUSH32 0x7FFFFFFFFFFFFFFFFFFFFFFFFFFFFFFFFFFFFFFFFFFFFFFFFFFFFFFFFFFFFFFF DUP7 AND PUSH1 0x0 SHL PUSH1 0x40 MLOAD PUSH1 0x0 DUP2 MSTORE PUSH1 0x20 ADD PUSH1 0x40 MSTORE PUSH1 0x40 MLOAD DUP1 DUP6 DUP2 MSTORE PUSH1 0x20 ADD DUP5 PUSH1 0xFF AND PUSH1 0xFF AND DUP2 MSTORE PUSH1 0x20 ADD DUP4 DUP2 MSTORE PUSH1 0x20 ADD DUP3 DUP2 MSTORE PUSH1 0x20 ADD SWAP5 POP POP POP POP POP PUSH1 0x20 PUSH1 0x40 MLOAD PUSH1 0x20 DUP2 SUB SWAP1 DUP1 DUP5 SUB SWAP1 DUP6 GAS STATICCALL ISZERO DUP1 ISZERO PUSH2 0x3FEC JUMPI RETURNDATASIZE PUSH1 0x0 DUP1 RETURNDATACOPY RETURNDATASIZE PUSH1 0x0 REVERT JUMPDEST POP POP POP PUSH1 0x20 PUSH1 0x40 MLOAD SUB MLOAD SWAP1 POP SWAP4 SWAP3 POP POP POP JUMP JUMPDEST PUSH1 0x0 DUP3 DUP3 GT ISZERO PUSH2 0x400B JUMPI INVALID JUMPDEST DUP2 DUP4 SUB SWAP1 POP SWAP3 SWAP2 POP POP JUMP JUMPDEST PUSH1 0x60 DUP3 PUSH1 0x0 PUSH1 0x4 DUP2 LT PUSH2 0x4025 JUMPI INVALID JUMPDEST PUSH1 0x20 MUL ADD MLOAD SWAP1 SHR DUP2 PUSH1 0x0 ADD SWAP1 PUSH20 0xFFFFFFFFFFFFFFFFFFFFFFFFFFFFFFFFFFFFFFFF AND SWAP1 DUP2 PUSH20 0xFFFFFFFFFFFFFFFFFFFFFFFFFFFFFFFFFFFFFFFF AND DUP2 MSTORE POP POP PUSH1 0x0 PUSH12 0x10000000000000000000000 DUP4 PUSH1 0x0 PUSH1 0x4 DUP2 LT PUSH2 0x407F JUMPI INVALID JUMPDEST PUSH1 0x20 MUL ADD MLOAD AND EQ PUSH2 0x4090 JUMPI CALLER PUSH2 0x4093 JUMP JUMPDEST PUSH1 0x0 JUMPDEST DUP2 PUSH1 0x20 ADD SWAP1 PUSH20 0xFFFFFFFFFFFFFFFFFFFFFFFFFFFFFFFFFFFFFFFF AND SWAP1 DUP2 PUSH20 0xFFFFFFFFFFFFFFFFFFFFFFFFFFFFFFFFFFFFFFFF AND DUP2 MSTORE POP POP PUSH1 0x80 DUP3 PUSH1 0x1 PUSH1 0x4 DUP2 LT PUSH2 0x40D9 JUMPI INVALID JUMPDEST PUSH1 0x20 MUL ADD MLOAD SWAP1 SHR DUP2 PUSH1 0x80 ADD DUP2 DUP2 MSTORE POP POP PUSH4 0xFFFFFFFF PUSH1 0x60 PUSH4 0xFFFFFFFF AND DUP4 PUSH1 0x1 PUSH1 0x4 DUP2 LT PUSH2 0x4103 JUMPI INVALID JUMPDEST PUSH1 0x20 MUL ADD MLOAD SWAP1 SHR AND DUP2 PUSH1 0xA0 ADD SWAP1 PUSH4 0xFFFFFFFF AND SWAP1 DUP2 PUSH4 0xFFFFFFFF AND DUP2 MSTORE POP POP PUSH1 0xFF PUSH1 0x50 DUP4 PUSH1 0x0 PUSH1 0x4 DUP2 LT PUSH2 0x4133 JUMPI INVALID JUMPDEST PUSH1 0x20 MUL ADD MLOAD SWAP1 SHR AND DUP2 PUSH1 0xC0 ADD SWAP1 PUSH1 0xFF AND SWAP1 DUP2 PUSH1 0xFF AND DUP2 MSTORE POP POP PUSH5 0xFFFFFFFFFF PUSH1 0x28 DUP4 PUSH1 0x0 PUSH1 0x4 DUP2 LT PUSH2 0x4161 JUMPI INVALID JUMPDEST PUSH1 0x20 MUL ADD MLOAD SWAP1 SHR AND DUP2 PUSH1 0xE0 ADD DUP2 DUP2 MSTORE POP POP PUSH5 0xFFFFFFFFFF DUP3 PUSH1 0x0 PUSH1 0x4 DUP2 LT PUSH2 0x4185 JUMPI INVALID JUMPDEST PUSH1 0x20 MUL ADD MLOAD AND DUP2 PUSH2 0x100 ADD DUP2 DUP2 MSTORE POP POP PUSH12 0xFFFFFFFFFFFFFFFFFFFFFFFF DUP3 PUSH1 0x1 PUSH1 0x4 DUP2 LT PUSH2 0x41AF JUMPI INVALID JUMPDEST PUSH1 0x20 MUL ADD MLOAD AND DUP2 PUSH2 0x120 ADD DUP2 DUP2 MSTORE POP POP POP POP JUMP JUMPDEST DUP1 PUSH1 0x0 ADD MLOAD DUP2 PUSH1 0x40 ADD MLOAD DUP3 PUSH1 0x80 ADD MLOAD DUP4 PUSH2 0x120 ADD MLOAD PUSH1 0x40 MLOAD PUSH1 0x20 ADD DUP1 DUP6 PUSH20 0xFFFFFFFFFFFFFFFFFFFFFFFFFFFFFFFFFFFFFFFF AND PUSH20 0xFFFFFFFFFFFFFFFFFFFFFFFFFFFFFFFFFFFFFFFF AND PUSH1 0x60 SHL DUP2 MSTORE PUSH1 0x14 ADD DUP5 PUSH20 0xFFFFFFFFFFFFFFFFFFFFFFFFFFFFFFFFFFFFFFFF AND PUSH20 0xFFFFFFFFFFFFFFFFFFFFFFFFFFFFFFFFFFFFFFFF AND PUSH1 0x60 SHL DUP2 MSTORE PUSH1 0x14 ADD DUP4 DUP2 MSTORE PUSH1 0x20 ADD DUP3 DUP2 MSTORE PUSH1 0x20 ADD SWAP5 POP POP POP POP POP PUSH1 0x40 MLOAD PUSH1 0x20 DUP2 DUP4 SUB SUB DUP2 MSTORE SWAP1 PUSH1 0x40 MSTORE DUP1 MLOAD SWAP1 PUSH1 0x20 ADD KECCAK256 PUSH1 0x0 SHR DUP2 PUSH2 0x140 ADD DUP2 DUP2 MSTORE POP POP POP JUMP JUMPDEST PUSH1 0x0 DUP1 PUSH2 0x4430 DUP5 PUSH20 0xFFFFFFFFFFFFFFFFFFFFFFFFFFFFFFFFFFFFFFFF AND PUSH4 0x70A08231 DUP6 PUSH1 0x40 MLOAD DUP3 PUSH4 0xFFFFFFFF AND PUSH1 0xE0 SHL DUP2 MSTORE PUSH1 0x4 ADD DUP1 DUP3 PUSH20 0xFFFFFFFFFFFFFFFFFFFFFFFFFFFFFFFFFFFFFFFF AND PUSH20 0xFFFFFFFFFFFFFFFFFFFFFFFFFFFFFFFFFFFFFFFF AND DUP2 MSTORE PUSH1 0x20 ADD SWAP2 POP POP PUSH1 0x20 PUSH1 0x40 MLOAD DUP1 DUP4 SUB DUP2 DUP7 DUP1 EXTCODESIZE ISZERO DUP1 ISZERO PUSH2 0x4304 JUMPI PUSH1 0x0 DUP1 REVERT JUMPDEST POP GAS STATICCALL ISZERO DUP1 ISZERO PUSH2 0x4318 JUMPI RETURNDATASIZE PUSH1 0x0 DUP1 RETURNDATACOPY RETURNDATASIZE PUSH1 0x0 REVERT JUMPDEST POP POP POP POP PUSH1 0x40 MLOAD RETURNDATASIZE PUSH1 0x20 DUP2 LT ISZERO PUSH2 0x432E JUMPI PUSH1 0x0 DUP1 REVERT JUMPDEST DUP2 ADD SWAP1 DUP1 DUP1 MLOAD SWAP1 PUSH1 0x20 ADD SWAP1 SWAP3 SWAP2 SWAP1 POP POP POP DUP6 PUSH20 0xFFFFFFFFFFFFFFFFFFFFFFFFFFFFFFFFFFFFFFFF AND PUSH4 0xDD62ED3E DUP7 ADDRESS PUSH1 0x40 MLOAD DUP4 PUSH4 0xFFFFFFFF AND PUSH1 0xE0 SHL DUP2 MSTORE PUSH1 0x4 ADD DUP1 DUP4 PUSH20 0xFFFFFFFFFFFFFFFFFFFFFFFFFFFFFFFFFFFFFFFF AND PUSH20 0xFFFFFFFFFFFFFFFFFFFFFFFFFFFFFFFFFFFFFFFF AND DUP2 MSTORE PUSH1 0x20 ADD DUP3 PUSH20 0xFFFFFFFFFFFFFFFFFFFFFFFFFFFFFFFFFFFFFFFF AND PUSH20 0xFFFFFFFFFFFFFFFFFFFFFFFFFFFFFFFFFFFFFFFF AND DUP2 MSTORE PUSH1 0x20 ADD SWAP3 POP POP POP PUSH1 0x20 PUSH1 0x40 MLOAD DUP1 DUP4 SUB DUP2 DUP7 DUP1 EXTCODESIZE ISZERO DUP1 ISZERO PUSH2 0x43F0 JUMPI PUSH1 0x0 DUP1 REVERT JUMPDEST POP GAS STATICCALL ISZERO DUP1 ISZERO PUSH2 0x4404 JUMPI RETURNDATASIZE PUSH1 0x0 DUP1 RETURNDATACOPY RETURNDATASIZE PUSH1 0x0 REVERT JUMPDEST POP POP POP POP PUSH1 0x40 MLOAD RETURNDATASIZE PUSH1 0x20 DUP2 LT ISZERO PUSH2 0x441A JUMPI PUSH1 0x0 DUP1 REVERT JUMPDEST DUP2 ADD SWAP1 DUP1 DUP1 MLOAD SWAP1 PUSH1 0x20 ADD SWAP1 SWAP3 SWAP2 SWAP1 POP POP POP PUSH2 0x4519 JUMP JUMPDEST SWAP1 POP PUSH16 0xFFFFFFFFFFFFFFFFFFFFFFFFFFFFFFFF DUP2 GT ISZERO PUSH2 0x44B8 JUMPI PUSH1 0x40 MLOAD PUSH32 0x8C379A000000000000000000000000000000000000000000000000000000000 DUP2 MSTORE PUSH1 0x4 ADD DUP1 DUP1 PUSH1 0x20 ADD DUP3 DUP2 SUB DUP3 MSTORE PUSH1 0x13 DUP2 MSTORE PUSH1 0x20 ADD DUP1 PUSH32 0x444552525F42414C414E43455F494E53414E4500000000000000000000000000 DUP2 MSTORE POP PUSH1 0x20 ADD SWAP2 POP POP PUSH1 0x40 MLOAD DUP1 SWAP2 SUB SWAP1 REVERT JUMPDEST DUP1 SWAP2 POP POP SWAP3 SWAP2 POP POP JUMP JUMPDEST PUSH1 0x0 DUP1 DUP6 SWAP1 POP DUP3 ISZERO PUSH2 0x44EE JUMPI PUSH1 0x0 DUP6 SLT ISZERO PUSH2 0x44E9 JUMPI PUSH2 0x44E4 DUP6 PUSH1 0x0 SUB DUP6 PUSH2 0x3039 JUMP JUMPDEST DUP2 ADD SWAP1 POP JUMPDEST PUSH2 0x450D JUMP JUMPDEST PUSH1 0x0 DUP6 SGT ISZERO PUSH2 0x450C JUMPI PUSH2 0x4507 DUP6 DUP6 PUSH4 0x3B9ACA00 SUB PUSH2 0x3039 JUMP JUMPDEST DUP2 ADD SWAP1 POP JUMPDEST JUMPDEST DUP1 SWAP2 POP POP SWAP5 SWAP4 POP POP POP POP JUMP JUMPDEST PUSH1 0x0 DUP2 DUP4 LT PUSH2 0x4528 JUMPI DUP2 PUSH2 0x452A JUMP JUMPDEST DUP3 JUMPDEST SWAP1 POP SWAP3 SWAP2 POP POP JUMP JUMPDEST PUSH1 0x0 DUP1 PUSH1 0x0 DUP4 PUSH2 0x4548 DUP8 DUP7 PUSH4 0x3B9ACA00 SUB PUSH2 0x459D JUMP JUMPDEST DUP2 PUSH2 0x454F JUMPI INVALID JUMPDEST DIV DUP7 ADD SWAP1 POP PUSH1 0x0 DUP5 PUSH4 0x3B9ACA00 SUB PUSH2 0x4567 DUP8 DUP8 PUSH2 0x459D JUMP JUMPDEST DUP2 PUSH2 0x456E JUMPI INVALID JUMPDEST DIV DUP7 ADD SWAP1 POP DUP1 DUP3 GT ISZERO PUSH2 0x458A JUMPI DUP6 DUP2 SUB DUP7 SWAP4 POP SWAP4 POP POP POP PUSH2 0x4595 JUMP JUMPDEST DUP7 DUP8 DUP4 SUB SWAP4 POP SWAP4 POP POP POP JUMPDEST SWAP4 POP SWAP4 SWAP2 POP POP JUMP JUMPDEST PUSH1 0x0 DUP1 DUP3 DUP5 MUL SWAP1 POP PUSH1 0x0 DUP5 EQ DUP1 PUSH2 0x45BC JUMPI POP DUP3 DUP5 DUP3 DUP2 PUSH2 0x45B9 JUMPI INVALID JUMPDEST DIV EQ JUMPDEST PUSH2 0x45C2 JUMPI INVALID JUMPDEST DUP1 SWAP2 POP POP SWAP3 SWAP2 POP POP JUMP JUMPDEST PUSH1 0x0 DUP2 DUP4 SLT PUSH2 0x45DB JUMPI DUP2 PUSH2 0x45DD JUMP JUMPDEST DUP3 JUMPDEST SWAP1 POP SWAP3 SWAP2 POP POP JUMP JUMPDEST PUSH1 0x0 DUP2 DUP4 SLT ISZERO PUSH2 0x45F5 JUMPI DUP2 PUSH2 0x45F7 JUMP JUMPDEST DUP3 JUMPDEST SWAP1 POP SWAP3 SWAP2 POP POP JUMP JUMPDEST PUSH1 0x0 DUP1 PUSH1 0x0 SWAP1 POP PUSH1 0x0 DUP6 SGT ISZERO PUSH2 0x4621 JUMPI PUSH2 0x461A PUSH1 0x0 DUP8 PUSH2 0x45E5 JUMP JUMPDEST DUP6 SUB DUP2 ADD SWAP1 POP JUMPDEST PUSH1 0x0 DUP5 SGT ISZERO PUSH2 0x463C JUMPI PUSH2 0x4635 PUSH1 0x0 DUP5 PUSH2 0x45E5 JUMP JUMPDEST DUP5 SUB DUP2 SUB SWAP1 POP JUMPDEST DUP7 DUP9 DUP3 ADD ADD SWAP2 POP POP SWAP7 SWAP6 POP POP POP POP POP POP JUMP JUMPDEST PUSH1 0x40 MLOAD DUP1 PUSH2 0x160 ADD PUSH1 0x40 MSTORE DUP1 PUSH1 0x0 PUSH20 0xFFFFFFFFFFFFFFFFFFFFFFFFFFFFFFFFFFFFFFFF AND DUP2 MSTORE PUSH1 0x20 ADD PUSH1 0x0 PUSH20 0xFFFFFFFFFFFFFFFFFFFFFFFFFFFFFFFFFFFFFFFF AND DUP2 MSTORE PUSH1 0x20 ADD PUSH1 0x0 PUSH20 0xFFFFFFFFFFFFFFFFFFFFFFFFFFFFFFFFFFFFFFFF AND DUP2 MSTORE PUSH1 0x20 ADD PUSH1 0x0 DUP2 MSTORE PUSH1 0x20 ADD PUSH1 0x0 DUP2 MSTORE PUSH1 0x20 ADD PUSH1 0x0 PUSH4 0xFFFFFFFF AND DUP2 MSTORE PUSH1 0x20 ADD PUSH1 0x0 PUSH1 0xFF AND DUP2 MSTORE PUSH1 0x20 ADD PUSH1 0x0 DUP2 MSTORE PUSH1 0x20 ADD PUSH1 0x0 DUP2 MSTORE PUSH1 0x20 ADD PUSH1 0x0 DUP2 MSTORE PUSH1 0x20 ADD PUSH1 0x0 DUP2 MSTORE POP SWAP1 JUMP JUMPDEST PUSH1 0x40 MLOAD DUP1 PUSH2 0x160 ADD PUSH1 0x40 MSTORE DUP1 PUSH1 0x0 PUSH1 0xA DUP2 GT ISZERO PUSH2 0x470C JUMPI INVALID JUMPDEST DUP2 MSTORE PUSH1 0x20 ADD PUSH1 0x0 PUSH20 0xFFFFFFFFFFFFFFFFFFFFFFFFFFFFFFFFFFFFFFFF AND DUP2 MSTORE PUSH1 0x20 ADD PUSH1 0x0 PUSH20 0xFFFFFFFFFFFFFFFFFFFFFFFFFFFFFFFFFFFFFFFF AND DUP2 MSTORE PUSH1 0x20 ADD PUSH1 0x0 DUP2 MSTORE PUSH1 0x20 ADD PUSH1 0x0 DUP2 MSTORE PUSH1 0x20 ADD PUSH1 0x0 DUP2 MSTORE PUSH1 0x20 ADD PUSH1 0x0 DUP2 MSTORE PUSH1 0x20 ADD PUSH1 0x0 DUP2 MSTORE PUSH1 0x20 ADD PUSH1 0x0 DUP2 MSTORE PUSH1 0x20 ADD PUSH1 0x0 DUP2 MSTORE PUSH1 0x20 ADD PUSH1 0x0 DUP2 MSTORE POP SWAP1 JUMP INVALID GASLIMIT 0x49 POP CALLDATACOPY BALANCE ORIGIN DIFFICULTY PUSH16 0x6D61696E28737472696E67206E616D65 0x2c PUSH20 0x7472696E672076657273696F6E2C616464726573 PUSH20 0x20766572696679696E67436F6E747261637429A2 PUSH6 0x627A7A723058 KECCAK256 CALLDATALOAD DUP1 0xdd PC 0x2b GAS BLOCKHASH 0xa8 DELEGATECALL PUSH19 0xB7C12ED39EF9139E5466DD4E896439790E06F PUSH30 0x611164736F6C634300050A00320000000000000000000000000000000000 "
		},
		"gasEstimates": {
			"creation": {
				"codeDepositCost": "3685400",
				"executionCost": "4155",
				"totalCost": "3689555"
			},
			"external": {
				"": "330",
				"cancel(address,uint256,uint256)": "22745",
				"cancelAll()": "21762",
				"claim(bytes32,uint256,uint256,address[],uint32,uint256[2][],uint256[])": "infinite",
				"claimFinalized(uint256,uint256[])": "infinite",
				"getCancelTimestamp(address)": "641",
				"getFilledAmount(bytes32)": "672",
				"getFinalizedStatus(uint256)": "infinite",
				"getPosition(uint256,address,address)": "945",
				"matchOrders(uint256,address,uint256[4],uint256[4][])": "infinite",
				"recoverFunds(uint256,uint256,uint256,uint256,uint256,address[])": "infinite",
				"testOrder(uint256[4])": "infinite",
				"trade(uint256,uint256,uint256,address,uint256[4][])": "infinite"
			},
			"internal": {
				"adjustBalance(address,address,int256)": "infinite",
				"applyTrade(struct Parley.Order memory,struct Parley.Trade memory)": "infinite",
				"applyTradePositions(struct Parley.Order memory,struct Parley.Trade memory)": "infinite",
				"computeEffectiveBalance(uint256,int256,uint256,bool)": "358",
				"computeExposureDelta(int256,int256,int256,int256,int256,int256)": "220",
				"computeFillHash(struct Parley.Order memory)": "infinite",
				"computeMaxPosition(struct Parley.Order memory)": "infinite",
				"computePriceWeightedAmounts(uint256,uint256,uint256)": "infinite",
				"ecrecoverPacked(bytes32,uint256,uint256)": "infinite",
				"getOrderAmount(struct Parley.Order memory)": "infinite",
				"lookupBalance(address,address)": "infinite",
				"max256(int256,int256)": "67",
				"min256(int256,int256)": "64",
				"minu256(uint256,uint256)": "64",
				"priceDivide(int256,uint256)": "226",
				"processClaims(uint256,uint256[] memory)": "infinite",
				"safeMul(uint256,uint256)": "127",
				"safeSub(uint256,uint256)": "62",
				"tradeCore(uint256,struct Parley.Order memory,bool)": "infinite",
				"unpackOrder(uint256,address,uint256[4] memory)": "infinite",
				"unpackOrderForQuery(uint256[4] memory)": "infinite",
				"unpackShared(uint256[4] memory,struct Parley.Order memory)": "infinite"
			}
		},
		"methodIdentifiers": {
			"cancel(address,uint256,uint256)": "a981848f",
			"cancelAll()": "18cb2b18",
			"claim(bytes32,uint256,uint256,address[],uint32,uint256[2][],uint256[])": "a49a4088",
			"claimFinalized(uint256,uint256[])": "13e3dcf2",
			"getCancelTimestamp(address)": "16b7218f",
			"getFilledAmount(bytes32)": "cc527775",
			"getFinalizedStatus(uint256)": "01ba4a36",
			"getPosition(uint256,address,address)": "3c186ff3",
			"matchOrders(uint256,address,uint256[4],uint256[4][])": "44ae7b67",
			"recoverFunds(uint256,uint256,uint256,uint256,uint256,address[])": "c3908f97",
			"testOrder(uint256[4])": "2f1ae7ab",
			"trade(uint256,uint256,uint256,address,uint256[4][])": "e156d58e"
		}
	},
	"abi": [
		{
			"constant": true,
			"inputs": [
				{
					"name": "matchId",
					"type": "uint256"
				}
			],
			"name": "getFinalizedStatus",
			"outputs": [
				{
					"name": "",
					"type": "bool"
				},
				{
					"name": "",
					"type": "uint32"
				},
				{
					"name": "",
					"type": "uint32"
				},
				{
					"name": "graders",
					"type": "address[]"
				}
			],
			"payable": false,
			"stateMutability": "view",
			"type": "function"
		},
		{
			"constant": false,
			"inputs": [
				{
					"name": "matchId",
					"type": "uint256"
				},
				{
					"name": "targets",
					"type": "uint256[]"
				}
			],
			"name": "claimFinalized",
			"outputs": [],
			"payable": false,
			"stateMutability": "nonpayable",
			"type": "function"
		},
		{
			"constant": true,
			"inputs": [
				{
					"name": "account",
					"type": "address"
				}
			],
			"name": "getCancelTimestamp",
			"outputs": [
				{
					"name": "",
					"type": "uint256"
				}
			],
			"payable": false,
			"stateMutability": "view",
			"type": "function"
		},
		{
			"constant": false,
			"inputs": [],
			"name": "cancelAll",
			"outputs": [],
			"payable": false,
			"stateMutability": "nonpayable",
			"type": "function"
		},
		{
			"constant": true,
			"inputs": [
				{
					"name": "packed",
					"type": "uint256[4]"
				}
			],
			"name": "testOrder",
			"outputs": [
				{
					"name": "",
					"type": "uint256"
				},
				{
					"name": "",
					"type": "uint256"
				}
			],
			"payable": false,
			"stateMutability": "view",
			"type": "function"
		},
		{
			"constant": true,
			"inputs": [
				{
					"name": "matchId",
					"type": "uint256"
				},
				{
					"name": "account",
					"type": "address"
				},
				{
					"name": "token",
					"type": "address"
				}
			],
			"name": "getPosition",
			"outputs": [
				{
					"name": "",
					"type": "int256"
				}
			],
			"payable": false,
			"stateMutability": "view",
			"type": "function"
		},
		{
			"constant": false,
			"inputs": [
				{
					"name": "matchId",
					"type": "uint256"
				},
				{
					"name": "token",
					"type": "address"
				},
				{
					"name": "packedLeftOrder",
					"type": "uint256[4]"
				},
				{
					"name": "packedRightOrders",
					"type": "uint256[4][]"
				}
			],
			"name": "matchOrders",
			"outputs": [],
			"payable": false,
			"stateMutability": "nonpayable",
			"type": "function"
		},
		{
			"constant": false,
			"inputs": [
				{
					"name": "witness",
					"type": "bytes32"
				},
				{
					"name": "graderQuorum",
					"type": "uint256"
				},
				{
					"name": "graderFee",
					"type": "uint256"
				},
				{
					"name": "graders",
					"type": "address[]"
				},
				{
					"name": "finalPrice",
					"type": "uint32"
				},
				{
					"name": "sigs",
					"type": "uint256[2][]"
				},
				{
					"name": "targets",
					"type": "uint256[]"
				}
			],
			"name": "claim",
			"outputs": [],
			"payable": false,
			"stateMutability": "nonpayable",
			"type": "function"
		},
		{
			"constant": false,
			"inputs": [
				{
					"name": "token",
					"type": "address"
				},
				{
					"name": "amount",
					"type": "uint256"
				},
				{
					"name": "orderGroup",
					"type": "uint256"
				}
			],
			"name": "cancel",
			"outputs": [],
			"payable": false,
			"stateMutability": "nonpayable",
			"type": "function"
		},
		{
			"constant": false,
			"inputs": [
				{
					"name": "detailsHash",
					"type": "uint256"
				},
				{
					"name": "recoveryTime",
					"type": "uint256"
				},
				{
					"name": "cancelPrice",
					"type": "uint256"
				},
				{
					"name": "graderQuorum",
					"type": "uint256"
				},
				{
					"name": "graderFee",
					"type": "uint256"
				},
				{
					"name": "graders",
					"type": "address[]"
				}
			],
			"name": "recoverFunds",
			"outputs": [],
			"payable": false,
			"stateMutability": "nonpayable",
			"type": "function"
		},
		{
			"constant": true,
			"inputs": [
				{
					"name": "fillHash",
					"type": "bytes32"
				}
			],
			"name": "getFilledAmount",
			"outputs": [
				{
					"name": "",
					"type": "uint256"
				}
			],
			"payable": false,
			"stateMutability": "view",
			"type": "function"
		},
		{
			"constant": false,
			"inputs": [
				{
					"name": "amount",
					"type": "uint256"
				},
				{
					"name": "expiry",
					"type": "uint256"
				},
				{
					"name": "matchId",
					"type": "uint256"
				},
				{
					"name": "token",
					"type": "address"
				},
				{
					"name": "packedOrders",
					"type": "uint256[4][]"
				}
			],
			"name": "trade",
			"outputs": [],
			"payable": false,
			"stateMutability": "nonpayable",
			"type": "function"
		},
		{
			"payable": true,
			"stateMutability": "payable",
			"type": "fallback"
		},
		{
			"anonymous": false,
			"inputs": [
				{
					"indexed": true,
					"name": "takerAccount",
					"type": "address"
				},
				{
					"indexed": true,
					"name": "makerAccount",
					"type": "address"
				},
				{
					"indexed": true,
					"name": "matchId",
					"type": "uint256"
				},
				{
					"indexed": false,
					"name": "token",
					"type": "address"
				},
				{
					"indexed": false,
					"name": "orderFillHash",
					"type": "uint256"
				},
				{
					"indexed": false,
					"name": "orderDirection",
					"type": "uint8"
				},
				{
					"indexed": false,
					"name": "price",
					"type": "uint32"
				},
				{
					"indexed": false,
					"name": "longAmount",
					"type": "uint256"
				},
				{
					"indexed": false,
					"name": "newLongPosition",
					"type": "int256"
				},
				{
					"indexed": false,
					"name": "shortAmount",
					"type": "uint256"
				},
				{
					"indexed": false,
					"name": "newShortPosition",
					"type": "int256"
				},
				{
					"indexed": false,
					"name": "longBalanceDelta",
					"type": "int256"
				},
				{
					"indexed": false,
					"name": "shortBalanceDelta",
					"type": "int256"
				}
			],
			"name": "LogTrade",
			"type": "event"
		},
		{
			"anonymous": false,
			"inputs": [
				{
					"indexed": true,
					"name": "takerAccount",
					"type": "address"
				},
				{
					"indexed": true,
					"name": "makerAccount",
					"type": "address"
				},
				{
					"indexed": true,
					"name": "matchId",
					"type": "uint256"
				},
				{
					"indexed": false,
					"name": "token",
					"type": "address"
				},
				{
					"indexed": false,
					"name": "orderFillHash",
					"type": "uint256"
				},
				{
					"indexed": false,
					"name": "status",
					"type": "uint16"
				}
			],
			"name": "LogTradeError",
			"type": "event"
		},
		{
			"anonymous": false,
			"inputs": [
				{
					"indexed": true,
					"name": "account",
					"type": "address"
				},
				{
					"indexed": false,
					"name": "token",
					"type": "address"
				},
				{
					"indexed": false,
					"name": "amount",
					"type": "uint256"
				},
				{
					"indexed": false,
					"name": "orderGroup",
					"type": "uint256"
				}
			],
			"name": "LogCancel",
			"type": "event"
		},
		{
			"anonymous": false,
			"inputs": [
				{
					"indexed": true,
					"name": "account",
					"type": "address"
				},
				{
					"indexed": false,
					"name": "timestamp",
					"type": "uint256"
				}
			],
			"name": "LogCancelAll",
			"type": "event"
		},
		{
			"anonymous": false,
			"inputs": [
				{
					"indexed": true,
					"name": "matchId",
					"type": "uint256"
				},
				{
					"indexed": false,
					"name": "finalPrice",
					"type": "uint32"
				}
			],
			"name": "LogFinalizeMatch",
			"type": "event"
		},
		{
			"anonymous": false,
			"inputs": [
				{
					"indexed": true,
					"name": "account",
					"type": "address"
				},
				{
					"indexed": true,
					"name": "matchId",
					"type": "uint256"
				},
				{
					"indexed": true,
					"name": "token",
					"type": "address"
				},
				{
					"indexed": false,
					"name": "amount",
					"type": "uint256"
				},
				{
					"indexed": false,
					"name": "graderFee",
					"type": "uint256"
				}
			],
			"name": "LogClaim",
			"type": "event"
		}
	]
}